:020000040800F2
:1000000000800120A195000871880008738800080D
:1000100075880008778800087988000800000000CB
:100020000000000000000000000000007B880008C5
:100030007D880008000000007F8800088188000893
:10004000E9950008E9950008E9950008E995000898
:10005000E9950008E9950008E9950008E995000888
:10006000E9950008E9950008E9950008E995000878
:10007000E9950008E9950008E9950008E995000868
:10008000E9950008E9950008E9950008E995000858
:1000900089880008E9950008E9950008E9950008B5
:1000A000E9950008E9950008E9950008E995000838
:1000B000E9950008E9950008E9950008E995000828
:1000C000E9950008E9950008E9950008E995000818
:1000D000E9950008E9950008E9950008E995000808
:1000E000E9950008E9950008E9950008E9950008F8
:1000F000E9950008E9950008E9950008E9950008E8
:10010000E9950008E9950008E9950008E9950008D7
:10011000E9950008E995000899880008E995000824
:10012000E9950008E9950008E9950008E9950008B7
:1001300000000000000000000000000000000000BF
:1001400000000000000000000000000000000000AF
:10015000000000000000000000000000000000009F
:10016000000000000000000000000000000000008F
:10017000000000000000000000000000000000007F
:10018000000000000000000000000000000000006F
:10019000000000000000000000000000000000005F
:1001A000000000000000000000000000000000004F
:1001B000000000000000000000000000000000003F
:1001C000000000000000000000000000000000002F
:1001D000000000000000000000000000000000001F
:0401E0005FF8E0F1F3
:1001E40010B5054C237833B9044B13B10448AFF36D
:1001F40000800123237010BDEC01002000000000EA
:10020400A89E000808B5034B1BB103490348AFF38C
:10021400008008BD00000000F0010020A89E000836
:10022400034613F8012B002AFBD1181A0138704732
:1002340010B504460E4B18784FF47A73B3FBF0F301
:100244000C4A1068B0FBF3F000F0A2F868B90F2C68
:1002540001D9012010BD002221464FF0FF3000F0EB
:1002640057F8054B1C60002010BD012010BD00BFD5
:1002740000000020240100200400002008B5074AE3
:10028400136843F010031360032000F02FF80020DC
:10029400FFF7CEFF08F0EEF9002008BD0020024071
:1002A400034A1168034B1B780B441360704700BF6B
:1002B4008409002000000020014B1868704700BF2B
:1002C4008409002038B50446FFF7F6FF0546B4F16B
:1002D400FF3F02D0044B1B781C44FFF7EDFF401B8B
:1002E4008442FAD838BD00BF00000020074AD36812
:1002F40023F4E0631B041B0C000200F4E0601843C9
:1003040040F0BF6040F40030D060704700ED00E082
:1003140030B4164BDB68C3F30223C3F10704042C87
:1003240028BF04241D1D062D17D9033B012505FAFA
:1003340004F4013C2140994005FA03F3013B1340C6
:10034400194300280BDB0901C9B200F1604000F534
:10035400614080F8001330BC70470023E6E700F0EA
:100364000F000901C9B2024B1954F4E700ED00E093
:1003740014ED00E0002808DB420900F01F0001230F
:1003840003FA00F0014B43F82200704700E100E05B
:100394000138B0F1807F0AD2064B5860F021064A3A
:1003A40082F823100020986007221A607047012009
:1003B400704700BF10E000E000ED00E0F0B583B04E
:1003C4000026344679E0002D00F0AA80012D00D1EA
:1003D400CE68FF2B00F2B8808646FF2B00F2B78070
:1003E400A500DEF800200F27AF4022EA070206FA34
:1003F40005F52A43CEF800204A6812F0805F5BD0EE
:10040400684A956945F001059561926902F0010217
:100414000192019AA208971C634D55F8275004F0E5
:1004240003074FEA870E0F2707FA0EF725EA070599
:100434005E4FB84200F0918007F58067B84200F043
:100444008E8007F58067B84200F08B8007F58067DF
:10045400B84200F0888007F58067B84200F08580D4
:1004640007F58067B84276D0062707FA0EF73D43B2
:1004740002324D4F47F822504A6812F4803F76D03A
:100484004B4D2A681A432A604A6812F4003F74D01C
:10049400474D6A681A436A604A6812F4801F72D032
:1004A400434DAA681A43AA604A6812F4001F70D028
:1004B4003F4DEA681343EB6001340B6833FA04F2EE
:1004C4006DD00122A24013409A42F5D14D68122DFD
:1004D40030D00BD8022D2AD07FF675AF032D2FD044
:1004E400112D7FF476AFCE68043672E7314FBD42EA
:1004F40016D00CD9304FBD4212D007F58037BD421B
:100504000ED0A7F58017BD427FF463AF08E0A7F5CE
:100514008017BD4204D007F58037BD427FF459AF40
:100524008D687DB1012D08D04261082651E7CE685F
:1005340008364EE7CE680C364BE70261082648E7DA
:10054400002646E7042644E700F1040E45E7A4F13B
:100554000805AD0045E7052787E7002785E701275C
:1005640083E7022781E703277FE704277DE7104D10
:100574002A6822EA03022A6086E70D4D6A6822EAA5
:1005840003026A6088E70A4DAA6822EA0302AA60A5
:100594008AE7074DEA6822EA0303EB608CE703B0BD
:1005A400F0BD00BF001002400000014000080140FF
:1005B40000040140000021100000311012B90904A8
:1005C4000161704701617047C3680B4201D1016149
:1005D40070474161704703685A6912F4806F11D003
:1005E4006FF480625A6100230363202280F83D2067
:1005F40080F83E30026C42F00402026480F83C3021
:100604000120704700207047F8B506460C4617468F
:100614001D4622E0FFF750FE069BC01A854200D318
:10062400DDB900233363202286F83D2086F83E306E
:10063400326C42F02002326486F83C300120F8BD6E
:1006440033685B6924EA03039BB2B3FA83F35B095F
:10065400BB420FD1B5F1FF3FDCD1C4F30743012BFB
:10066400EED033689B6924EA03039BB2B3FA83F3A5
:100674005B09EDE70020F8BDF8B504460D461646C3
:100684001F463CE01A6842F400721A6023686FF453
:1006940080625A6100232363202284F83D2084F879
:1006A4003E30226C42F00402226484F83C30012083
:1006B400F8BDFFF701FEC01B864200D3FEB900233C
:1006C4002363202284F83D2084F83E30226C42F0DB
:1006D4002002226484F83C300120F8BD23685B6961
:1006E40025EA03039BB2003318BF0123A3B1236897
:1006F4005A6912F4806FC5D1B6F1FF3FD9D1C5F361
:100704000743012BEAD023689B6925EA03039BB2C4
:10071400003318BF0123E9E70020F8BDF0B583B02A
:1007240004460F4615461E46C36A082B0DD0012BFE
:100734000BD013F5803F08D0036B122B0AD102684B
:10074400136843F48073136004E02268136843F46D
:100754008073136000962B4600224FF0011120464F
:10076400FFF752FF18BB2369B3F5804F11D02268FD
:10077400FB1103F0060343F0F003136133462A46EA
:100784000E492046FFF778FFA8B92368FFB21F611E
:1007940003E0236807F0FE071F6133462A46084931
:1007A4002046FFF769FF034610B1012300E001234F
:1007B400184603B0F0BD0123FAE700BF08000100AA
:1007C4000200010070B504460D46164623685B69B5
:1007D40013F0800F1CD12046FFF7FDFED0B9B5F110
:1007E400FF3FF3D0FFF768FD801B854201D3002D46
:1007F400ECD100232363202284F83D2084F83E308A
:10080400226C42F02002226484F83C30012070BD46
:10081400002070BD012070BD70B504460D4616461B
:1008240023685B6913F0040F1CD12046FFF7D3FE45
:10083400D0B9B5F1FF3FF3D0FFF73EFD801B8542F1
:1008440001D3002DECD100232363202284F83D2022
:1008540084F83E30226C42F02002226484F83C305A
:10086400012070BD002070BD012070BD002800F083
:10087400BE80F8B5044690F83D30002B6BD024239D
:1008840084F83D302268136823F00103136001F0FB
:1008940015FA6268584B9A4262D8584B98428CBFFA
:1008A40000230123002B40F0A480554BA3FB00231D
:1008B4009A0C21684B6823F03F0313434B6025686F
:1008C400296A21F03F0166684B4B9E424ED8531C67
:1008D4000B432B622268D16921F44F4121F0FF01BF
:1008E4006368454DAB424BD801385B00B0FBF3F372
:1008F4000133C3F30B03042B38BF04230B43D3612D
:1009040021680B6823F0C003E269206A02431343A1
:100914000B6021688B6823F4034323F0FF032269EF
:10092400E068024313438B602168CB6823F0FF0324
:100934006269A06902431343CB602268136843F0E1
:100944000103136000202064202384F83D302063D9
:1009540084F83E00F8BD80F83C3007F0ADFE8EE729
:10096400284B98428CBF002301239BE74FF49673D6
:1009740003FB02F3244AA2FB03239B090133A7E7E9
:10098400A668BEB9451E03EB4307B5FBF7F5013571
:10099400C5F30B05B5FA85F56D0935BBC6B9013844
:1009A40003EB4303B0FBF3F30133C3F30B0343F44F
:1009B4000043A3E7451E03EB830707EB8707B5FB5B
:1009C400F7F50135C5F30B05B5FA85F56D09E4E7CF
:1009D400013803EB830303EB8303B0FBF3F301332D
:1009E400C3F30B0343F4404388E7012386E7012064
:1009F40070470120F8BD00BFA08601007F841E005F
:100A040083DE1B43FF083D00D34D62102DE9F04106
:100A140084B004460D4690461F46FFF74DFC94F8FB
:100A24003D30DBB2202B04D00225284604B0BDE8BB
:100A3400F08106460090192301224F492046FFF712
:100A4400E3FD08B10225F0E794F83C30012B00F0F7
:100A54008E80012384F83C3023681A6812F0010F59
:100A640003D11A6842F001021A602268136823F461
:100A740000631360212384F83D30102384F83E3052
:100A840000232364C4F824806785638D23853B4B4E
:100A9400E36233460A9A29462046FFF73FFE05469D
:100AA400002866D10023039323685A6903929B6943
:100AB4000393039B12E0236C042B01D00125B4E7BC
:100AC4002268136843F4007313600125ADE73246CE
:100AD4000A992046FFF7A0FE00282ED1238D002B73
:100AE40037D032460A992046FFF76CFE0028E2D13F
:100AF4002368626A12781A61616A4B1C6362638DAF
:100B04009BB2013B9BB26385238D013B9BB2238542
:100B14002268506910F0040FD9D0002BD7D04B783D
:100B24001361636A01336362638D9BB2013B9BB2C1
:100B34006385238D013B2385C9E7236C042B01D0F6
:100B4400012572E72268136843F4007313600125DA
:100B54006BE72268136843F400731360202384F85E
:100B64003D30002384F83E3084F83C305DE70225B4
:100B74005BE7012559E700BF020010000000FFFFFA
:100B84002DE9F04385B004460F4690461D46FFF715
:100B940093FB94F83D30DBB2202B04D0022318469B
:100BA40005B0BDE8F083064600901923012254499C
:100BB4002046FFF729FD08B10223F0E794F83C3002
:100BC400012B00F09480012384F83C3023681A68D8
:100BD40012F0010F03D11A6842F001021A60226870
:100BE400136823F400631360242384F83D30002346
:100BF4002364A3F58033E3624FF0010935E0A023B9
:100C040084F83D3023685A69C2F340025969C1F33C
:100C1400802194F83D30DBB2A02B09D042B939B918
:100C2400FFF74AFB801B8542E9D3002DEAD1E6E7B2
:100C3400202384F83D3023685A6912F0020F32D120
:100C44001A6842F400721A6023686FF480625A6171
:100C54000096192301222A492046FFF7D5FC0028D3
:100C64004BD109F10109C14539D22268136843F413
:100C74008073136000962B4600224FF0011120462A
:100C8400FFF7C2FC002834D1236807F0FE021A6182
:100C9400FFF712FB064623685A69C2F340025969FA
:100CA400C1F38021B5E71A6842F400721A60002388
:100CB400039323685A6903929B690393039B0096E9
:100CC400192301220E492046FFF79EFC034690B9E2
:100CD400202284F83D20002284F83C205FE7202372
:100CE40084F83D30002384F83C30012357E7022385
:100CF40055E7012353E7012351E701234FE700BFE1
:100D040002001000F0B587B0002873D0044690F8B4
:100D14002932D3B1032384F82932206802F0C9FEB2
:100D2400254655F8107B6E460FCD0FC62B683360F1
:100D3400231D0ECB384602F0ACFE58B1022384F8D2
:100D440029320125284607B0F0BD80F8283207F083
:100D540089FEDFE70021206802F0B5FE002311E0E0
:100D640004EB4312012182F8291082F82830D3863B
:100D7400002182F82B109163D1639A1C5201A15077
:100D84000133DBB260688342EAD3002312E004EB50
:100D94004311002281F8292181F8283181F82B217F
:100DA400C1F83821C1F83C2103F10A01490162501C
:100DB4000133DBB29842EAD8254655F8107B6E46DB
:100DC4000FCD0FC62B683360231D0ECB384602F0BF
:100DD4007CFE054620B1022384F829320125B1E7BF
:100DE400002384F82430012384F82932206803F096
:100DF400AAF9A7E70125A5E790F82832012B01D12C
:100E04000220704710B50446012180F8281207F02B
:100E140034FF206803F095F9206802F041FE0020B9
:100E240084F8280210BD90F82832012B01D1022049
:100E3400704710B50446012380F8283280F8241046
:100E4400006803F078F9002084F8280210BD70B51A
:100E540011F0800F19D101F007056D0105F59474A7
:100E640004440544002685F8296101F00701217036
:100E74002261E370627802B1E181022B10D090F814
:100E84002832012B0FD1022070BD01F007056D013E
:100E940005F1280404440544012685F82960E4E7A3
:100EA40000232371EBE70546012380F8283221460D
:100EB400006802F020FE002085F8280270BD10B5FD
:100EC40011F0800F12D101F007035B0103F5947256
:100ED40002440344002483F8294101F007031370FA
:100EE40090F82832012B0CD1022010BD01F0070329
:100EF4005B0103F1280202440344012483F82940DE
:100F0400EBE70446012380F828321146006802F01A
:100F1400B2FF002084F8280210BD70B501F0070567
:100F24006C0104F5947101440444C4F83C2105F1B6
:100F34000A025201861883500023736084F8293111
:100F440084F8285125B1006803F01AF9002070BD17
:100F5400006803F015F9F9E701F007010A3100EB25
:100F640041114868704770B501F007056C0104F140
:100F7400280101440444E263AA1C520186188350E8
:100F840000237360012384F8293084F8285025B1A4
:100F9400006803F0F5F8002070BD006803F0F0F875
:100FA400F9E7F8B50446ACE003889BB223F4E143C7
:100FB40023F070036FEA43436FEA53439BB2038009
:100FC4002268B2F850309BB294F8281003EBC103A6
:100FD400023302EB4303B3F80034C3F3090363643D
:100FE400E26B1344E3630021204607F06DFD94F89F
:100FF4002430002B00F08580236C002B40F081808E
:10100400226894F8243043F08003A2F84C30002383
:1010140084F8243075E0B0F850309BB294F828215D
:1010240003EBC203063300EB4303B3F80034C3F30A
:101034000903C4F84431B4F82E2104F50C7103F00B
:1010440047FA2268138823F070031B051B0D43F035
:1010540080031380204607F025FD52E03E2A09D87C
:10106400510812F0010F00D001318A0292B2A3F8A4
:101074000C24A7E0510912F01F0F00D101396FEAC7
:10108400C1626FEA524292B2A3F80C249AE030F89B
:101094002560B6B216F4004F40F0A38016F0800F1E
:1010A4002FD0226832F825309BB223F4E14323F099
:1010B40070036FEA43436FEA53439BB222F825302F
:1010C4002268B2F850309BB204EB451090F8281017
:1010D40003EBC103023302EB4303B3F80024C2F36E
:1010E4000902AB1C5B01E1184A60C16B0A44C2638C
:1010F400E358002B40F00F8190F82810204607F0A9
:10110400E3FC2068B0F8443013F4004F00F00B8186
:10111400B0F844309BB213F00F05B8D113F0100FA0
:101124003FF442AF03889BB213F4006F7FF473AFB4
:1011340013F4004FE5D0038823F070031B051B0D47
:1011440043F0800303802068B0F850309BB294F8D9
:10115400282103EBC203063300EB4303B3F8003446
:10116400C3F30903C4F844318BB1D4F83C1171B111
:10117400B4F82E2103F0ACF9D4F84421D4F83C316E
:101184001344C4F83C310021204607F093FC226844
:10119400B2F850309BB21344D4F83821002A7FF4BB
:1011A4005DAFB3F80C2492B222F4F84292B2A3F8E1
:1011B4000C24B3F80C246FEA42426FEA524292B212
:1011C400A3F80C24226813889BB223F4804323F0F1
:1011D400700383F4405343F4004343F080031380CB
:1011E4008FE730F8253023F070031B051B0D43F007
:1011F400800320F8253004EB451393F83431DBB930
:101204002068B0F850309BB204EB451292F82821C4
:1012140003EBC203063300EB4303B3F80074C7F3D4
:10122400090797B304EB45113B46B1F82E21D1F8D9
:101234003C1103F04DF928E0206804EB451393F8C2
:10124400282130F8223013F4804F44D0B0F85030C5
:101254009BB203EBC203023300EB4303B3F8007405
:10126400C7F309076FBB226804EB451393F82811F1
:1012740032F821309BB223F4E04323F0700343F4AB
:10128400004343F0C00322F8213005F10A035B0157
:10129400E1184A683A444A6004EB4511D1F83C210C
:1012A4003A44C1F83C21E3581BB1D1F838118F42BC
:1012B40029D204EB451393F82811204607F0FAFBD2
:1012C400ECE604EB45113B46B1F83021D1F83C1172
:1012D40003F0FEF8C7E7B0F850309BB203EBC2034B
:1012E400063300EB4303B3F80074C7F30907002F78
:1012F400B9D004EB45113B46B1F83221D1F83C1189
:1013040003F0E6F8AFE704EB451191F82811204605
:10131400FFF703FEC2E604EB451595F828102046B6
:10132400FFF721FEEDE60020F8BD10B50446006885
:1013340002F00BFF10F4004F45D1206802F005FFC6
:1013440010F4806F43D1206802F0FFFE10F4804F48
:1013540008D02268B2F844309BB223F480439BB295
:10136400A2F84430206802F0F0FE10F4005F08D0C8
:101374002268B2F844309BB223F400539BB2A2F823
:101384004430206802F0E1FE10F4805F30D1206820
:1013940002F0DBFE10F4006F49D1206802F0D5FEA4
:1013A40010F4007F6FD1206802F0CFFE10F4807F2C
:1013B40008D02268B2F844309BB223F480739BB205
:1013C400A2F8443010BD2046FFF7EBFDB5E72268D4
:1013D400B2F844309BB223F480639BB2A2F8443049
:1013E400204607F080FB00212046FFF71CFDAAE7FA
:1013F4002268B2F840309BB223F004039BB2A2F8F7
:1014040040302268B2F840309BB223F008039BB20C
:10141400A2F84030204607F087FB2268B2F8443037
:101424009BB223F480539BB2A2F84430AFE7226806
:10143400B2F840309BB243F00803A2F8403022686F
:10144400B2F844309BB223F400639BB2A2F8443058
:101454002268B2F840309BB243F00403A2F8403053
:10146400206802F072FE10F4805F08D02268B2F89F
:1014740044309BB223F480539BB2A2F844302046FC
:1014840007F042FB89E72268B2F844309BB223F4A8
:1014940000739BB2A2F84430204607F01EFB82E79B
:1014A40038B501F0070543689D422ED811F0800F2E
:1014B40010D14B0103F5947101440344002283F8D5
:1014C400292101238B700D7090F82832012B0AD149
:1014D400022038BD6B0103F12801014403440122B9
:1014E40083F82920EDE70446012380F828320068B8
:1014F40002F0ABFD1DB1002084F8280238BD04F5CC
:101504000C71206802F025FEF5E7012038BD01F0DA
:101514000F0243689A422FD810B511F0800F14D1EE
:1015240001F007035B0103F59472024403440024B1
:1015340083F829410023937001F00703137090F896
:101544002832012B0CD1022010BD01F007035B01EE
:1015540003F1280202440344012483F82940E9E703
:101564000446012380F828321146006802F092FDF7
:10157400002084F8280210BD0120704711F0800F6C
:101584000CD001F007014901283101445AB101226C
:101594000A730B811B0C4B8100207047490101F534
:1015A40094710144F2E70A73CB80F5E782B0084BEB
:1015B4001B68084AA2FB03235B0A00FB03F00190AB
:1015C40000BF019B5A1E0192002BF9D102B0704753
:1015D40024010020D34D621070B5FEF76DFE044661
:1015E400364A136843F001031360344B1B6813F04D
:1015F400020F07D1FEF760FE001B0228F5D9032471
:10160400204670BD2D4D2B6823F0F80343F0800372
:101614002B60FEF751FE044600236B60274B5B688A
:1016240013F00C0F08D0FEF747FE001B41F288337D
:101634009842F3D90324E3E7214A224B1A60224B50
:101644001868FEF7F5FD044608B10124D8E7FEF753
:1016540033FE0546194A136823F080731360174B51
:101664001B6813F0007F06D0FEF726FE401B0228FD
:10167400F5D90324C4E7114E00237360FEF71CFE62
:101684000546336823F4102333600C4B1B6813F4B2
:10169400003F06D0FEF710FE401B6428F5D9032452
:1016A400AEE7064B1A6822F480221A605A6A42F0A6
:1016B40080725A6200229A60A2E700BF00100240C2
:1016C40000127A002401002004000020002800F009
:1016D400F58170B582B00446036813F0010F3DD064
:1016E400AB4B5B6803F00C03042B2ED0A84B5B6858
:1016F40003F00C03082B23D06368B3F5803F51D06B
:10170400002B55D103F1804303F504331A6822F406
:1017140080321A601A6822F480221A606368002BEF
:1017240060D0FEF7C9FD0546994B1B6813F4003FD2
:1017340014D1FEF7C1FD401B6428F5D90320C2E192
:10174400934B5B6813F4803FD6D0914B1B6813F422
:10175400003F03D06368002B00F0B281236813F0CC
:10176400020F65D08A4B5B6813F00C0F4ED0884B88
:101774005B6803F00C03082B43D02369002B79D05A
:101784000122844B1A60FEF797FD0546804B1B68C7
:1017940013F0020F65D1FEF78FFD401B0228F5D927
:1017A400032090E17A4A136843F480331360B5E769
:1017B400B3F5A02F09D0764B1A6822F480321A6050
:1017C4001A6822F480221A60A8E703F18043A3F583
:1017D4003C331A6842F480221A601A6842F4803258
:1017E4001A609BE7FEF768FD0546694B1B6813F416
:1017F400003FB3D0FEF760FD401B6428F5D90320F9
:1018040061E1634B5B6813F4803FB6D1604B1B68A6
:1018140013F0020F04D02369012B01D0012052E1FF
:101824005B4A136823F0F803616943EAC103136058
:10183400236813F0080F32D0A369002B6ED0012265
:10184400554B1A60FEF738FD0546514B5B6A13F0A1
:10185400020F21D1FEF730FD401B0228F5D90320E9
:1018640031E14B4A136823F0F803616943EAC10389
:101874001360DDE70022474B1A60FEF71DFD0546A5
:10188400434B1B6813F0020FD2D0FEF715FD401B2B
:101894000228F5D9032016E10120FFF787FE23680B
:1018A40013F0040F00F09880394BDB6913F0805F6C
:1018B40046D1374BDA6942F08052DA61DB6903F0D2
:1018C40080530193019B0125344B1B6813F4807FE3
:1018D40038D0E368012B49D0002B4DD103F180436C
:1018E40003F504331A6A22F001021A621A6A22F01A
:1018F40004021A62E368002B5CD0FEF7DDFC0646A6
:10190400234B1B6A13F0020F65D1FEF7D5FC801B35
:1019140041F288339842F3D90320D4E000221E4BCD
:101924001A60FEF7C9FC0546194B5B6A13F0020FF7
:10193400B5D0FEF7C1FC401B0228F5D90320C2E054
:101944000025C1E7154A136843F480731360FEF75A
:10195400B3FC0646114B1B6813F4807FB9D1FEF724
:10196400ABFC801B6428F5D90320ACE0084A136A59
:1019740043F001031362BDE7052B11D0044B1A6A2F
:1019840022F001021A621A6A22F004021A62B1E712
:1019940000100240000042428004424200700040B5
:1019A4004C4B1A6A42F004021A621A6A42F00102AB
:1019B4001A629FE7FEF780FC0646464B1B6A13F04B
:1019C400020F08D0FEF778FC801B41F2883398425E
:1019D400F3D9032077E0E5B9E369002B72D03D4ADF
:1019E400526802F00C02082A56D0022B17D00022AB
:1019F400394B1A60FEF760FC0446364B1B6813F043
:101A0400007F47D0FEF758FC001B0228F5D90320BD
:101A140059E0304AD36923F08053D361DCE70022D4
:101A24002D4B1A60FEF748FC05462A4B1B6813F041
:101A3400007F06D0FEF740FC401B0228F5D90320A6
:101A440041E0236AB3F5803F1AD022494B6823F45E
:101A54007413226A606A024313434B6001221E4BD3
:101A64001A60FEF729FC04461A4B1B6813F0007F2A
:101A74000ED1FEF721FC001B0228F5D9032022E039
:101A8400144A536823F40033A1680B435360DCE722
:101A9400002018E0002016E0012B16D00D4B5B68E7
:101AA40003F48031226A914201D001200BE003F457
:101AB4007013626A93420AD0012004E00120704747
:101AC400012000E0002002B070BD0120FBE70020EF
:101AD400F9E700BF001002406000424210B586B032
:101AE400154C94E80F000DF1180E0EE90F00238A2F
:101AF400ADF80430114B5B6803F00C02082A18D1CE
:101B0400C3F38342724412F8102C13F4803F03D1C0
:101B14000B4800FB02F00DE0084B5B68C3F3404345
:101B2400734413F8143C074800FB02F0B0FBF3F0D5
:101B340000E0044806B010BDC09E0008001002403A
:101B440000093D0000127A00002800F0A38070B55F
:101B54000446524B1B6803F007038B420CD24F4AD6
:101B6400136823F007030B431360136803F00703A0
:101B7400994201D0012070BD236813F0020F17D0E1
:101B840013F0040F04D0464A536843F4E0635360EF
:101B9400236813F0080F04D0414A536843F4605398
:101BA40053603F4A536823F0F003A0680343536033
:101BB4000D46236813F0010F31D06368012B20D048
:101BC400022B25D0364A126812F0020F64D0344931
:101BD4004A6822F0030213434B60FEF76DFB06468E
:101BE4002F4B5B6803F00C036268B3EB820F16D0D3
:101BF400FEF762FB801B41F288339842F0D9032040
:101C040070BD274A126812F4003FE0D1012070BD74
:101C1400234A126812F0007FD9D1012070BD1F4BF6
:101C24001B6803F007039D420CD21C4A136823F07F
:101C340007032B431360136803F007039D4201D08D
:101C4400012070BD236813F0040F06D0144A5368B2
:101C540023F4E063E1680B435360236813F0080F37
:101C640007D00F4A536823F46053216943EAC10340
:101C74005360FFF733FF0A4B5B68C3F30313094A4E
:101C8400D35CD840084B1860084B1868FEF7D0FAAC
:101C9400002070BD01207047012070BD002002406B
:101CA4000010024084AC000824010020040000203D
:101CB400014B1868704700BF2401002008B5FFF7E6
:101CC400F7FF044B5B68C3F30223034AD35CD84099
:101CD40008BD00BF0010024094AC000870B582B08B
:101CE4000446036813F0010F34D03E4BDB6913F054
:101CF400805F48D13B4BDA6942F08052DA61DB699C
:101D040003F080530193019B0125374B1B6813F4A7
:101D1400807F3AD0334B1B6A13F4407311D062684E
:101D240002F4407293420CD02E4A136A23F440709A
:101D34002E4901260E6000260E60106213F0010F7A
:101D440037D1284A136A23F4407361680B43136242
:101D5400002D3FD1236813F0020F06D0214A5368A7
:101D640023F44043A1680B435360236813F0100F1E
:101D740035D01C4A536823F4800361690B435360D4
:101D8400002002B070BD0025BFE7174A136843F472
:101D940080731360FEF790FA0646134B1B6813F426
:101DA400807FB7D1FEF788FA801B6428F5D9032019
:101DB400E7E7FEF781FA06460A4B1B6A13F0020FA7
:101DC400BFD1FEF779FA801B41F288339842F3D9E8
:101DD4000320D6E7D36923F08053D361BAE7002008
:101DE400CFE700BF001002400070004040044242B0
:101DF40070B582B0044600230193006801F064FDCD
:101E0400064610B1304602B070BD206801F06FFD87
:101E140038B90123A364A36C012B0BD0354630469B
:101E240014E00023A364206801F04EFD0028F2D0E2
:101E34000646E7E70021206801F070FD0028EDD098
:101E44004FF08056DEE7019B01330193019A4FF670
:101E5400FE739A4213D895B90021206801F05EFD03
:101E6400F0B91249206801F071FD0546D0B900218E
:101E7400206801F06BFBC30FE5D01D46E3E7019A30
:101E84004FF6FE739A4202D94FF08076BAE710F00B
:101E9400804F02D100236364B4E701236364B1E794
:101EA4000646AFE74FF08056ACE700BF000010C114
:101EB4002DE9F04188B004460F46FEF7FDF90646C9
:101EC4000023009301930821206801F053FC054688
:101ED40018B1284608B0BDE8F081216D09042068D6
:101EE40001F01CFD05460028F3D14FF0FF330293A7
:101EF40008230393302304930223059300230693BA
:101F04000123079302A9206801F022FC206801F054
:101F14004EFD05460028DCD1804605E0FEF7CCF9ED
:101F2400801BB0F1FF3F43D02068426B40F22A434C
:101F34001A420AD1436B13F4001FEFD001F0DDFA0B
:101F44004DF8280008F10108E8E7436B13F0080F87
:101F540002D008258563BCE7436B13F0020F02D05F
:101F640002258563B5E7436B13F0200F02D02025CB
:101F74008563AEE740F23A538363019A130203F494
:101F84007F0343EA0263110A01F47F410B4343EAEE
:101F940012633B60009A130203F47F0343EA026373
:101FA400110A01F47F410B4343EA12637B6090E71B
:101FB4004FF000458DE710B582B004460021009132
:101FC4000191006801F0C2FA10F0007F04D04FF4D0
:101FD4000063184602B010BD69462046FFF768FF4B
:101FE40003460028F5D1019B13F4802F02D14FF052
:101FF4008063EEE7216D0904206801F08FFC03463D
:102004000028E6D10221206801F0B9FC0346E0E78C
:1020140010B582B00446002100910191006801F0DE
:1020240095FA10F0007F04D04FF40063184602B014
:1020340010BD69462046FFF73BFF03460028F5D153
:10204400019B13F4803F02D14FF08063EEE7216DD2
:102054000904206801F062FC03460028E6D100214F
:10206400206801F08CFC0346E0E770B571B10D46C1
:102074000446016D0904006801F0F3FC064638B912
:102084000021206801F062FA286001E04FF0006648
:10209400304670BD2DE9F04786B005460C4616461D
:1020A4009946FEF709F96CB1804695F83430DBB2F5
:1020B400012B0DD0AB6B43F00053AB63012006B092
:1020C400BDE8F087AB6B43F00063AB630120F6E738
:1020D4000023AB6306EB0903EA6D93421AD803238A
:1020E40085F834302B680022DA626B6C012B00D047
:1020F40076024FF40071286801F03CFB034678B186
:102104002A687C499163AA6B1343AB63012085F869
:102114003400D4E7AB6B43F00073AB630120CEE72C
:102124004FF0FF3300934FEA492301939023029326
:10213400022303930023049301230593694628682B
:1021440001F006FBB9F1010F0BD902232B633146D1
:10215400286801F03FFB8246BAF1000F09D1019FC4
:102164001CE001232B633146286801F01BFB8246E7
:10217400F2E72B685F4A9A63AB6B4AEA0303AB63EB
:10218400012085F8340000232B6398E7FEF794F8C8
:10219400A0EB08000E9B98421FD2F3B12868426B53
:1021A40040F22A331A4226D1436B13F4004FEDD088
:1021B400002FEBD05646072EE8D8286801F09DF989
:1021C4002070C0F307236370C0F30743A370000EAD
:1021D400E0700434043F0136EDE72B68454A9A6306
:1021E400AB6B43F00043AB63012385F83430002329
:1021F4002B63032063E7436B13F4807F0AD0B9F1A8
:10220400010F07D96B6C032B04D001F02BFB0346A1
:10221400002836D12B685A6B12F0080F3DD15A6B47
:1022240012F0020F45D15A6B12F0200F4DD12868DD
:10223400436B13F4001F54D0002F52D001F05DF90A
:102244002070C0F307236370C0F30743A370000E2C
:10225400E0700434043FFEF72FF8A0EB08000E9B57
:10226400834201D9002BE2D12B68224A9A63AB6BDB
:1022740043F00043AB63012085F8340000232B6353
:102284001DE72A681B499163AA6B1343AB630120C2
:1022940085F8340000232B6311E7164A9A63AB6B6D
:1022A40043F00803AB63012085F8340000232B635B
:1022B40005E7104A9A63AB6B43F00203AB6301205A
:1022C40085F8340000232B63F9E60A4A9A63AB6B62
:1022D40043F02003AB63012085F8340000232B6313
:1022E400EDE640F23A538363012385F8343000204D
:1022F400E5E600BFFF0540002DE9F04788B005463C
:102304000C4616469946FDF7D7FF6CB1804695F802
:102314003430DBB2012B0DD0AB6B43F00053AB6315
:10232400012008B0BDE8F087AB6B43F00063AB63FA
:102334000120F6E70023AB6306EB0903EA6D934241
:102344001AD8032385F834302B680022DA626B6CC8
:10235400012B00D076024FF40071286801F00AFACC
:10236400034678B12A6868499163AA6B1343AB6347
:10237400012085F83400D4E7AB6B43F00073AB6302
:102384000120CEE74FF0FF3302934FEA4923039332
:10239400902304930023059306930123079302A932
:1023A400286801F0D5F9B9F1010F0BD920232B636B
:1023B4003146286801F03EFA8246BAF1000F09D18D
:1023C400039F1CE010232B633146286801F01AFA9E
:1023D4008246F2E72B684C4A9A63AB6B4AEA0303E2
:1023E400AB63012085F8340000232B6399E7FDF7E4
:1023F40063FFA0EB0800109B984223D213B3286814
:10240400426B40F21A331A422AD1436B13F4804FC1
:10241400EDD0002FEBD05646072EE8D8237862780B
:1024240043EA0223A27843EA0243E27843EA0263DE
:1024340008A941F81C3D0434043F286801F060F801
:102444000136E9E72B68304A9A63AB6B4AEA030327
:10245400AB63012385F8343000232B63032060E74A
:10246400436B13F4807F09D0B9F1010F06D96B6C6B
:10247400032B03D001F0F6F90346C0B92B685A6B5D
:1024840012F0080F1FD15A6B12F0020F27D15A6BAA
:1024940012F0100F2FD01C4A9A63AB6B43F0100359
:1024A400AB63012085F8340000232B6339E72A68E5
:1024B40015499163AA6B1343AB63012085F834007B
:1024C40000232B632DE7104A9A63AB6B43F0080398
:1024D400AB63012085F8340000232B6321E70A4A0B
:1024E4009A63AB6B43F00203AB63012085F83400BD
:1024F40000232B6315E740F23A529A63012385F8CF
:10250400343000200DE700BFFF05400010B4436ED7
:102514009B0F0B70436EC3F383634B7090F867306B
:1025240003F003038B7090F86630CB7090F865303D
:102534000B7190F864304B71836E1B0DCB80B0F837
:102544006A3003F00F030B72836EC3F3C0334B7214
:10255400836EC3F380338B72836EC3F34033CB72C9
:10256400836EC3F300330B7300234B73436C002B54
:1025740040F08780826E40F6FC7303EA8203C26EE9
:1025840043EA92730B61C36EC3F3C2630B7590F895
:102594006F3003F007034B75C36EC3F342538B755F
:1025A400C36EC3F38243CB75C36EC3F3C2330B76DE
:1025B4000B69013343650A7E02F00702023203FA13
:1025C40002F242650B7A03F00F040123A3408365F2
:1025D4005B0A03FB02F3C3654FF400730366C36E27
:1025E400C3F380334B76C36EC3F3C6138B76C36ECB
:1025F40003F07F03CB76036FDB0F0B77036FC3F31B
:1026040041734B77036FC3F382638B77036FC3F319
:102614008353CB77036FC3F3405381F820300023F7
:1026240081F82130B0F8722002F0010281F82220F2
:10263400026FC2F3C03281F82320026FC2F38032EA
:1026440081F82420026FC2F3403281F82520026F02
:10265400C2F3003281F82620026FC2F3812281F88E
:102664002720026FC2F3012281F82820026FC2F3EF
:10267400460281F82920012281F82A20184610BC3C
:102684007047012B0BD003680E4A9A63836B43F0A7
:1026940080538363012380F834301846EFE7836E58
:1026A4001B0403F47C13B0F86E2013430B610B6915
:1026B40001339B024365C3654FF40073836503666E
:1026C4008DE700BFFF05400070B590B004460123BC
:1026D400ADF81230006800F020FF20B94FF080659B
:1026E400284610B070BD636C032B1AD0206801F02B
:1026F40076F905460028F3D10021206800F026FF72
:1027040060670421206800F021FFA0670821206889
:1027140000F01CFFE0670C21206800F017FFC4F8EC
:102724008000636C032B07D00DF11201206801F0C7
:1027340080F905460028D3D1636C032B1DD0BDF866
:10274400121021650904206801F05EF9054600288D
:10275400C6D10021206800F0F9FE606604212068DB
:1027640000F0F4FEA0660821206800F0EFFEE066A9
:102774000C21206800F0EAFE20670421206800F0A4
:10278400E5FE000DE06405A92046FFF7BFFE10B189
:102794004FF08055A4E7226D12040023206801F055
:1027A4007BF8054600289BD1234653F8106B93E829
:1027B40007008DE80700043494E80E00304600F06A
:1027C40081FE8DE770B58AB0054600230493059316
:1027D400069307930893762309930AAB13E907003A
:1027E4008DE8070004AB0ECB286800F06BFE18B12F
:1027F400012420460AB070BD0446104E0023336005
:10280400286800F082FE012333602846FFF7F0FABF
:10281400034630B1012485F83440AA6B1343AB63FB
:10282400E7E72846FFF750FF03460028E1D00124DC
:1028340085F83440AA6B1343AB63DAE7A000304257
:10284400C0B110B5044690F834307BB1032384F84A
:1028540034302046FFF7B6FF034670B90022A26366
:102864002263012284F83420184610BD037705F052
:1028740055FFEBE70123184670470123F4E7436C47
:102884000B60836C4B60C36C8B60036DCB60436DDA
:102894000B61836D4B61C36D8B61036ECB61002053
:1028A4007047000030B58BB004460D46032380F812
:1028B4003430436C032B25D0B1F5805F11D0B1F5D2
:1028C400006F13D0C1B1836B43F000638363A36BC8
:1028D400EBB123681B4A9A63012084F834000BB0DF
:1028E40030BD836B43F080538363F0E7FFF763FBF2
:1028F400A36B1843A063EAE7FFF78AFBA36B1843B3
:10290400A063E4E7836B43F080538363DFE763688A
:102914000493A3680593E368069307956369089392
:10292400A36909930AAB13E907008DE8070004AB18
:102934000ECB206800F0C6FD012384F8343000205B
:10294400CDE700BFFF05400010B582B0044602A9E0
:10295400002341F8043DFFF788FB18B10346A26B3E
:102964001343A3630198C0F3432002B010BDF8B52C
:1029740005460F4616461C462B689B6837EA030338
:102984000CBF01230023B34237D0B4F1FF3FF3D08F
:10299400FDF792FC069BC01A844201D9002CEBD1AE
:1029A4002A68536823F0E00353606B68B3F5827FB1
:1029B4000BD0AB6AB3F5005F14D0012385F8513016
:1029C400002385F850300320F8BDAB68B3F5004F01
:1029D40002D0B3F5806FECD12A68136823F040036A
:1029E4001360E6E72A68136823F4005313602A6827
:1029F400136843F400531360DFE70020F8BD10B5FB
:102A040082B0044600920B4600228021FFF7AFFFFC
:102A1400034620B1636D43F0200363650323184626
:102A240002B010BD10B582B004464068B0F5827F94
:102A340014D06068B0F5827F1DD000920B4600224E
:102A440080212046FFF793FF034620B1636D43F0D6
:102A5400200363650323184602B010BDA368B3F5D1
:102A6400004F02D0B3F5806FE3D12068036823F0F0
:102A740040030360DDE7A368B3F5806FDDD1009206
:102A84000B46002201212046FFF771FF0346002870
:102A9400E1D0636D43F0200363650323DBE7002883
:102AA40039D010B504460023836290F85130002BCE
:102AB4002CD0022384F851302268136823F0400399
:102AC400136022686368A1680B43E1680B432169C2
:102AD4000B4361690B43A16901F400710B43E16984
:102AE4000B43216A0B43A16A0B4313602268638B77
:102AF40003F0040353602268D36923F40063D361B1
:102B040000206065012384F8513010BD80F85030F6
:102B140005F048FECDE7012070472DE9F04182B071
:102B240090F85040012C03D1022002B0BDE8F0819E
:102B34001D46174688460446012380F85030FDF7A9
:102B4400BBFB064694F85130DBB2012B07D00220C0
:102B5400012384F85130002384F85030E5E7B8F1BC
:102B6400000F00F09C80002F00F09B80032384F86A
:102B7400513000236365C4F83080A786E786A363D9
:102B8400A387E38763642364A368B3F5004F1DD070
:102B940023681A6812F0400F03D11A6842F0400209
:102BA4001A60E368B3F5006F16D063680BB1012FA8
:102BB4004CD12368226B12781A73236B013323637D
:102BC400E38E9BB2013B9BB2E3863FE0226813682D
:102BD40043F480431360DBE763680BB1012F16D124
:102BE4002368226B1288DA60236B02332363E38E3B
:102BF4009BB2013B9BB2E38609E0FDF75DFB801BC2
:102C0400A84202D3B5F1FF3F4DD1002D4DD0E38E44
:102C14009BB2002B2ED023689A6812F0020FECD0DE
:102C2400226B1288DA60236B02332363E38E9BB238
:102C3400013B9BB2E386EAE7FDF73EFB801B85423E
:102C440002D8B5F1FF3F32D1002D32D0E28E92B2DC
:102C540082B123689A6812F0020FEDD0226B1278C9
:102C64001A73236B01332363E28E92B2013A92B258
:102C7400E286EBE7324629462046FFF7C0FE08B15C
:102C840020236365A36833B901932368DA6801924A
:102C94009B680193019B636D6BB9002058E7012089
:102CA40056E7012054E7032052E7032050E70320AE
:102CB4004EE703204CE701204AE72DE9F04383B0B7
:102CC4000A9D90F85040012C04D10223184603B009
:102CD400BDE8F0831E4690460F460446012380F863
:102CE4005030FDF7E9FA814694F85130DBB262685E
:102CF400012B12D0B2F5827F07D00223012284F87F
:102D04005120002284F85020E0E7A268002A40F015
:102D1400E280042B01D00223F0E7002F00F0DD80D5
:102D2400B8F1000F00F0DB80002E00F0DA8094F898
:102D34005130DBB2042B02D0052384F85130002338
:102D44006365C4F83880E687A6872763E686A68687
:102D54002364636423681A6812F0400F03D11A686D
:102D640042F040021A60E368B3F5006F11D0636863
:102D74000BB1012E0BD12368226B12781A73236BCB
:102D840001332363E38E9BB2013B9BB2E3860126AE
:102D94006CE063680BB1012E0BD12368226B12889F
:102DA400DA60236B02332363E38E9BB2013B9BB255
:102DB400E38601261CE023689A6812F0010F0ED006
:102DC400E28F92B25AB1A26BDB681380A36B023319
:102DD400A363E38F9BB2013B9BB2E3870126FDF71C
:102DE4006BFAA0EB0900A84202D3B5F1FF3F7AD1F8
:102DF400E38E9BB21BB9E38F9BB2002B54D02368A4
:102E04009A6812F0020FD6D0E28E92B2002AD2D083
:102E1400002ED0D0226B1288DA60236B0233236336
:102E2400E38E9BB2013B9BB2E3860026C3E7236893
:102E34009A6812F0010F0ED0E28F92B25AB1A26BCF
:102E4400DB681370A36B0133A363E38F9BB2013B75
:102E54009BB2E3870126FDF72FFAA0EB0900854218
:102E640002D8B5F1FF3F40D1002D40D0E38E9BB294
:102E740013B9E38F9BB2BBB123689A6812F0020FB7
:102E8400D5D0E28E92B2002AD1D0002ECFD0226BC0
:102E940012781A73236B01332363E38E9BB2013BD5
:102EA4009BB2E3860026C2E74A4629462046FFF73E
:102EB400A6FD034618B12023636501231EE7A2681B
:102EC400002A7FF41BAF01922268D16801919268B5
:102ED4000192019A12E7022310E701230EE701236E
:102EE4000CE701230AE7032308E7032306E7032388
:102EF40004E72DE9F04182B004460F4690461D4692
:102F04004368B3F5827F07D094F85030012B0FD17A
:102F1400022002B0BDE8F0818368002BF4D10423C1
:102F240080F85130009513460A46FFF7C6FEF0E7D5
:102F3400012384F85030FDF7BFF9064694F8513068
:102F4400DBB2012B07D00220012384F85130002387
:102F540084F85030DDE7002F6FD0B8F1000F6ED049
:102F6400042384F8513000236365A763A4F83C80EC
:102F7400A4F83E802363A386E38623646364A36882
:102F8400B3F5004F0BD023681A6812F0400F03D139
:102F94001A6842F040021A60E36883B12DE02268A7
:102FA400136823F480431360EDE7FDF785F9801B74
:102FB400854202D8B5F1FF3F43D1002D43D0E38FC2
:102FC4009BB2002B2DD023689A6812F0010FECD02D
:102FD400A26B1B7B1370A36B0133A363E38F9BB2C0
:102FE400013B9BB2E387EAE7FDF766F9801B854264
:102FF40002D8B5F1FF3F28D14DB3E38F9BB283B123
:1030040023689A6812F0010FEED0A26BDB6813807C
:10301400A36B0233A363E38F9BB2013B9BB2E387B1
:10302400EBE7324629462046FFF7FCFC08B1202393
:103034006365636D6BB9002086E7012084E7012096
:1030440082E7032080E703207EE703207CE7032058
:103054007AE7012078E70268D36843F00103D3607C
:103064000268936803F00703062B03D0136843F048
:1030740001031360002070470268D36823F0010342
:10308400D3600368196A41F21112114208D1196A16
:1030940040F24442114203D11A6822F001021A603C
:1030A40000207047704770477047704710B504465A
:1030B40003681A6912F0020F11D0DA6812F0020FD5
:1030C4000DD06FF002021A610123037703689B6934
:1030D40013F0030F70D0FFF7E6FF00232377236874
:1030E4001A6912F0040F12D0DA6812F0040F0ED02D
:1030F4006FF004021A610223237723689B6913F497
:10310400407F5FD02046FFF7CEFF0023237723685C
:103114001A6912F0080F12D0DA6812F0080F0ED0F4
:103124006FF008021A61042323772368DB6913F024
:10313400030F4ED02046FFF7B6FF00232377236802
:103144001A6912F0100F12D0DA6812F0100F0ED0B4
:103154006FF010021A61082323772368DB6913F4E4
:10316400407F3DD02046FFF79EFF0023237723684E
:103174001A6912F0010F03D0DA6812F0010F36D188
:1031840023681A6912F0800F03D0DA6812F0800FF6
:1031940034D123681A6912F0400F03D0DA6812F0B0
:1031A400400F32D123681A6912F0200F03D0DA6875
:1031B40012F0200F30D110BDFFF774FF2046FFF747
:1031C40073FF8AE72046FFF76DFF2046FFF76CFF89
:1031D4009BE72046FFF766FF2046FFF765FFACE755
:1031E4002046FFF75FFF2046FFF75EFFBDE76FF065
:1031F40001021A61204604F087FBC1E76FF08002E8
:103204001A61204600F0B3F8C3E76FF040021A6178
:103214002046FFF74AFFC5E76FF020021A612046F7
:1032240000F0A4F8C7E700000368314A904212D0C6
:1032340002F5006290420ED0B0F1804F0BD0A2F59F
:103244009832904207D002F58062904203D002F592
:103254008062904203D123F070034A681343244AE6
:1032640090422AD002F50062904226D0B0F1804FFD
:1032740023D0A2F5983290421FD002F5806290428A
:103284001BD002F58062904217D002F5A032904222
:1032940013D002F5806290420FD002F58062904212
:1032A4000BD0A2F59E32904207D002F58062904284
:1032B40003D002F58062904203D123F44073CA68BC
:1032C400134323F080034A69134303608B68C3628A
:1032D4000B688362064B984206D003F5006398425C
:1032E40002D00123436170470B690363F9E700BF10
:1032F400002C0140A8B110B5044690F83D305BB1F4
:10330400022384F83D30211D2068FFF78DFF01233F
:1033140084F83D30002010BD80F83C3005F086FA7A
:10332400EEE70120704790F83C30012B1CD070B4BC
:10333400012580F83C50022380F83D30046862681F
:10334400A36822F070020E68324323F080034968B8
:103354000B4362600268936080F83D50002380F85C
:103364003C30184670BC7047022070477047704765
:103374000B4B1B680B4AA2FB03235A0A41F2883306
:1033840003FB02F35A1E43B1416B134611F0800F45
:10339400F8D0C5238363002070474FF00040704786
:1033A40024010020D34D6210154B1B68154AA2FB63
:1033B40003235A0A41F2883303FB02F35A1EDBB19A
:1033C400416B134611F0450FF8D011F4006FF5D19D
:1033D400436B13F0040F03D0042383631846704730
:1033E400436B13F0010F03D1C5238363002070479F
:1033F40001238363184670474FF00040704700BFB5
:1034040024010020D34D6210114B1B68114AA2FB0A
:1034140003235A0A41F2883303FB02F35A1E9BB179
:10342400416B134611F0450FF8D011F4006FF5D13C
:10343400436B13F0040F03D00423836318467047CF
:10344400C5238363002070474FF00040704700BFDE
:1034540024010020D34D6210184B1B68184AA2FBAC
:1034640003235A0A41F2883303FB02F35A1EFBB1C9
:10347400416B134611F0450FF8D011F4006FF5D1EC
:10348400436B13F0040F03D004238363184670477F
:10349400436B13F0010F07D1436B13F0400F0AD0B5
:1034A40040238363002070470123836318467047D9
:1034B4004FF0004070470020704700BF24010020F7
:1034C400D34D621084B010B402AC84E80E00039AA9
:1034D4000B461343049A1343059A1343069A134362
:1034E400079A1343426822F4FD4222F07F021343F9
:1034F4004360002010BC04B07047D0F880007047CF
:103504000B68C0F880300020704708B503230360BF
:103514000220FCF7D7FE002008BD006800F003007D
:1035240070470B6883604B688A681343CA68134307
:103534000A691343C26822F47F6222F00F02134324
:10354400C360002070470069C0B27047143040580F
:103554007047000038B5524B1B68524CA4FB034320
:103564005B0A02FB03F2531E002A62D0446B1A4624
:1035740014F0450FF7D014F4006FF4D1436B13F03B
:10358400040F03D004238363184638BD436B13F040
:10359400010F03D001238363184638BD0D4604464A
:1035A400C5238363FFF7CFFFA84201D0012038BDB4
:1035B40000212046FFF7CAFF3B4B0340E3B300283A
:1035C4003CDB10F0804F3CD110F0005F01D0802034
:1035D40038BD10F0805F36D110F0006F36D110F096
:1035E400806F36D110F0807F36D110F4000F36D1C1
:1035F40010F4800F36D110F4001F36D110F4801F60
:1036040036D110F4802F36D110F4003F36D110F4A7
:10361400803F36D110F4004F36D110F4804F36D1AC
:1036240010F4005F36D110F0080F36D04FF40000CC
:1036340038BD4FF0004038BD002038BD4FF0007059
:1036440038BD402038BD4FF4807038BD4FF4007051
:1036540038BD4FF4806038BD4FF4006038BD4FF47E
:10366400805038BD4FF4005038BD4FF4804038BD11
:103674004FF4004038BD4FF4003038BD4FF4802083
:1036840038BD4FF4002038BD4FF4801038BD4FF4DE
:10369400001038BD4FF4800038BD4FF4803038BD81
:1036A40024010020D34D621008E0FFFD70B5264BC5
:1036B4001B68264CA4FB03435C0A41F2883303FBDA
:1036C40004F35C1E002B39D0456B234615F0450FDF
:1036D400F7D015F4006FF4D1436B13F0040F03D04B
:1036E40004238363184670BD436B13F0010F03D0AA
:1036F40001238363184670BD16460D460446FFF742
:1037040022FFA84201D0012070BDC523A36300217C
:103714002046FFF71BFF10F4604F05D010F4804FD4
:1037240006D04FF4005070BD000C3080002070BDF6
:1037340010F4004F05D04FF4805070BD4FF000409E
:1037440070BD4FF4803070BD24010020D34D621051
:103754000B6843624B6883628B68CA6813430A69C7
:1037640013434A691343C26A22F0F7021343C36244
:103774000020704730B587B00546019110240294AB
:1037840040230393002304934FF48063059301A91A
:10379400FFF7C7FE41F2883221462846FFF7DAFEDA
:1037A40007B030BD30B587B00546019111240294AD
:1037B40040230393002304934FF48063059301A9EA
:1037C400FFF7AFFE41F2883221462846FFF7C2FEDA
:1037D40007B030BD30B587B005460191122402947C
:1037E40040230393002304934FF48063059301A9BA
:1037F400FFF797FE41F2883221462846FFF7AAFEDA
:1038040007B030BD30B587B0054601911824029445
:1038140040230393002304934FF48063059301A989
:10382400FFF77FFE41F2883221462846FFF792FED9
:1038340007B030BD30B587B0054601911924029414
:1038440040230393002304934FF48063059301A959
:10385400FFF767FE41F2883221462846FFF77AFED9
:1038640007B030BD30B587B00546002301930C2462
:1038740002944022039204934FF48063059301A9B8
:10388400FFF74FFE034A21462846FFF763FE07B0C1
:1038940030BD00BF00E1F50530B587B005460192A3
:1038A4000724029440230393002304934FF480637A
:1038B400059301A9FFF735FE41F2883221462846D7
:1038C400FFF748FE07B030BD10B586B004460023AC
:1038D40001930293039304934FF48063059301A926
:1038E400FFF71FFE2046FFF743FD06B010BD10B5DD
:1038F40086B004464FF4D573019308230293402302
:103904000393002304934FF48063059301A9FFF705
:1039140008FE2046FFF7A0FD06B010BD30B587B005
:103924000546019137240294402303930023049312
:103934004FF48063059301A9FFF7F3FD41F2883248
:1039440021462846FFF706FE07B030BD10B586B005
:10395400044641F0004141F480110191292302936E
:1039640040230393002304934FF48063059301A938
:10397400FFF7D7FD2046FFF747FD06B010BD30B571
:1039840087B0054601910624029440230393002343
:1039940004934FF48063059301A9FFF7C2FD41F23C
:1039A400883221462846FFF7D5FD07B030BD30B533
:1039B40087B00546002301933324029440220392E6
:1039C40004934FF48063059301A9FFF7AAFD41F224
:1039D400883221462846FFF7BDFD07B030BD10B53B
:1039E40086B004460023019302220292C02203926D
:1039F40004934FF48063059301A9FFF792FD2046D9
:103A0400FFF7D2FC06B010BD10B586B00446019194
:103A140009230293C0230393002304934FF4806388
:103A2400059301A9FFF77DFD2046FFF7BDFC06B015
:103A340010BD70B586B005460E46002301930324DD
:103A440002944022039204934FF48063059301A9E6
:103A5400FFF767FD324621462846FFF727FE06B0EA
:103A640070BD30B587B0054601910D240294402302
:103A74000393002304934FF48063059301A9FFF794
:103A840050FD41F2883221462846FFF763FD07B016
:103A940030BD84B001A880E80E00002004B0704757
:103AA400B0F840309BB243F43F43A0F840300020CC
:103AB4007047B0F8403023F47C535B045B0CA0F8EF
:103AC4004030002070470020704784B038B505AC02
:103AD40084E80E000123A0F840300024A0F8404000
:103AE400A0F84440A0F85040FFF7DAFF2046BDE8B4
:103AF400384004B0704730B403460C7830F82420C2
:103B040092B222F4EC4222F0700292B2C8780328F6
:103B14005CD8DFE800F04F570253002048F28005DC
:103B24002A4323F824200C7833F8242092B222F478
:103B3400E04222F0700222432A4323F824200A7B25
:103B4400002A40F0B9804A78002A50D0B3F85020B7
:103B540092B21A440C7802EB0412CC8824F00104CB
:103B6400A4B2A2F800440C7833F8242012F0400FD9
:103B74000CD033F8242092B222F4E04222F07002F6
:103B840042F4004242F0C00223F82420CA78012AF9
:103B94001ED0097833F8212092B222F4E04222F0B8
:103BA400400282F0200242F4004242F0800223F8F4
:103BB400212066E042F400720020AFE742F4C062C4
:103BC4000020ABE742F480620020A7E70120A5E7CC
:103BD400097833F8212092B222F4E04222F0400224
:103BE40042F4004242F0800223F8212049E0B3F875
:103BF400502092B21A440C7802EB0412CC8824F0C0
:103C04000104A4B2A2F80844B3F8502092B21A44B2
:103C14000C7802EB04120C69ACBBB2F80C44A4B2ED
:103C240024F4F844A4B2A2F80C44B2F80C446FEAA9
:103C340044446FEA5444A4B2A2F80C440C7833F818
:103C4400242012F4804F0CD033F8242092B222F4B2
:103C5400E04222F0700242F4404242F0800223F833
:103C64002420097833F8212092B222F4804222F0F1
:103C7400700282F4405242F4004242F0800223F87F
:103C8400212030BC70473E2C09D8650814F0010F80
:103C940000D00135AD02ADB2A2F80C54CEE76509EF
:103CA40014F01F0F00D1013D6FEAC5646FEA54445C
:103CB400A4B2A2F80C44C1E70C7833F8242092B2E1
:103CC40022F4E04222F0700242F4014242F0800207
:103CD40023F82420B3F8502092B21A440C7802EB53
:103CE40004120C8924F00104A4B2A2F80044B3F82D
:103CF400502092B21A440C7802EB04124C8924F03E
:103D04000104A4B2A2F808444A78002A4ED10C78DF
:103D140033F8242012F4804F0CD033F8242092B2CC
:103D240022F4E04222F0700242F4404242F0800267
:103D340023F824200C7833F8242012F0400F0CD000
:103D440033F8242092B222F4E04222F0700242F4CA
:103D5400004242F0C00223F824200C7833F82420D7
:103D640092B222F4E04222F0700242F4004242F0A5
:103D7400C00223F824200D7833F8252092B222F4CF
:103D8400804222F0700282F4405248F280042243BE
:103D940023F82520097833F8212092B222F4E04256
:103DA40022F04002224323F821206AE70C7833F8FA
:103DB400242012F4804F0CD033F8242092B222F441
:103DC400E04222F0700242F4404242F0800223F8C2
:103DD40024200C7833F8242012F0400F0CD033F850
:103DE400242092B222F4E04222F0700242F4004213
:103DF40042F0C00223F824200C7833F8242092B235
:103E040022F4E04222F0700242F4404242F0800286
:103E140023F82420CA78012A1ED00C7833F82420F1
:103E240092B222F4E04222F0400282F0200242F4F4
:103E3400004242F0800223F82420097833F821203C
:103E440092B222F4804222F0700242F4004242F024
:103E5400800223F8212014E70C7833F8242092B24E
:103E640022F4E04222F0400242F4004242F0800296
:103E740023F82420E1E70B7B002B46D14B7813B3C6
:103E84000A7830F8223013F0400F0CD030F822308A
:103E94009BB223F4E04323F0700343F4004343F064
:103EA400C00320F822300A7830F822309BB223F481
:103EB400E04323F0400343F4004343F0800320F83D
:103EC4002230002070470A7830F8223013F4804FF3
:103ED4000CD030F822309BB223F4E04323F070037B
:103EE40043F4404343F0800320F822300A7830F84A
:103EF40022309BB223F4804323F0700343F4004345
:103F040043F0800320F82230DBE710B44B78002B19
:103F14004ED10A7830F8223013F4804F0CD030F8A8
:103F240022309BB223F4E04323F0700343F4404374
:103F340043F0800320F822300A7830F8223013F05E
:103F4400400F0CD030F822309BB223F4E04323F02E
:103F5400700343F4004343F0C00320F822300A788E
:103F640030F822309BB223F4E04323F0700343F48F
:103F7400004343F0C00320F822300B7830F82320AC
:103F840092B222F4804222F0700248F2800422436A
:103F940020F823200A7830F822309BB223F4E0433F
:103FA40023F04003234320F82230002010BC704744
:103FB4000A7830F8223013F4804F0CD030F82230D5
:103FC4009BB223F4E04323F0700343F4404343F0F3
:103FD400800320F822300A7830F8223013F0400FA2
:103FE4000CD030F822309BB223F4E04323F070036A
:103FF40043F4004343F0C00320F822300A7830F839
:1040040022309BB223F4E04323F0700343F4404393
:1040140043F0800320F822300B7830F8232092B24A
:1040240022F4E04222F0400248F28004224320F8C5
:1040340023200A7830F822309BB223F4804323F003
:104044007003234320F82230AFE74B788BB90A780A
:1040540030F822309BB223F4804323F0700383F4BE
:10406400805343F4004343F0800320F822300020BF
:1040740070470A7830F822309BB223F4E04323F0EF
:10408400400383F0100343F4004343F0800320F81B
:104094002230ECE70B7B002B4BD14B7833B30A78FF
:1040A40030F8223013F0400F0CD030F822309BB29D
:1040B40023F4E04323F0700343F4004343F0C003CC
:1040C40020F82230CB78012B33D00A7830F8223014
:1040D4009BB223F4E04323F0400383F0200343F432
:1040E400004343F0800320F8223022E00A7830F8BD
:1040F400223013F4804F0CD030F822309BB223F4DA
:10410400E04323F0700343F4404343F0800320F87A
:1041140022300A7830F822309BB223F4804323F013
:10412400700383F4405343F4004343F0800320F8C6
:1041340022300020704711B98023A0F84C300020B1
:1041440070470020704700207047B0F8440080B2E8
:1041540070470020704701335B0800EB420202F510
:10416400806263B110B40C78487844EA002422F8E1
:10417400044B0231013B002BF5D110BC7047704752
:1041840070B54C78012C37D08A690B699A4240F299
:104194000B81D21A8A610A7B002A40F02281B0F88E
:1041A400502092B202440C7802EB0412002B40F02F
:1041B400FF80B2F80C349BB223F4F8439BB2A2F80C
:1041C4000C34B2F80C346FEA43436FEA53439BB2A6
:1041D400A2F80C340A7830F822309BB223F48043DE
:1041E40023F0700383F4405343F4004343F080030B
:1041F40020F82230002070BD8A690B699A4226D9C2
:10420400D21A8A610E4605460A7B22B30A7830F830
:10421400221011F0400F78D0002C45D1B0F8501086
:1042240089B2014401EB02122BBBB2F80C1489B21F
:1042340021F4F84189B2A2F80C14B2F80C146FEA14
:1042440041416FEA514189B2A2F80C1435E00023D0
:104254008B611346D6E79CB22346CA884969FFF7A7
:104264007AFFB5F850309BB22B44327803EB02133B
:10427400A3F8044438E03E2B09D8590813F0010F81
:1042840000D00131890289B2A2F80C1415E0590951
:1042940013F01F0F00D101396FEAC1616FEA514178
:1042A40089B2A2F80C1408E0B0F8501089B20144A5
:1042B40001EB021299B2A2F80C1472899BB27169D3
:1042C4002846FFF748FF7378002B5CD1327835F825
:1042D40022309BB223F4E04323F0700343F4004301
:1042E40043F0C00325F82230327835F822309BB2EF
:1042F40023F4E04323F0400383F0300343F400430A
:1043040043F0800325F8223074E78CBBB0F85010DA
:1043140089B2014401EB02128BB9B2F8041489B2D8
:1043240021F4F84189B2A2F80414B2F804146FEA33
:1043340041416FEA514189B2A2F8041421E03E2BB5
:1043440009D8590813F0010F00D00131890289B24C
:10435400A2F8041415E0590913F01F0F00D1013914
:104364006FEAC1616FEA514189B2A2F8041408E00E
:10437400B0F8501089B2014401EB021299B2A2F8CC
:10438400041432899AE7012BAED1327835F8223001
:104394009BB223F4E04323F0700343F4404343F01F
:1043A400800325F822309FE700238B611346F2E651
:1043B4003E2B09D85C0813F0010F00D00134A4028D
:1043C400A4B2A2F80C4405E75C0913F01F0F00D156
:1043D400013C6FEAC4646FEA5444A4B2A2F80C44EA
:1043E400F8E6C4B9B0F8502092B202440C7802EB5B
:1043F40004126BBBB2F80444A4B224F4F844A4B28B
:10440400A2F80444B2F804446FEA44446FEA544402
:10441400A4B2A2F804444A78002A4BD1B0F8502040
:1044240092B202440C7802EB041253BBB2F80C347F
:104434009BB223F4F8439BB2A2F80C34B2F80C34C8
:104444006FEA43436FEA53439BB2A2F80C34C1E6CC
:104454003E2B09D85C0813F0010F00D00134A402EC
:10446400A4B2A2F80444D6E75C0913F01F0F00D1EC
:10447400013C6FEAC4646FEA5444A4B2A2F8044451
:10448400C9E73E2B09D85C0813F0010F00D00134B2
:10449400A402A4B2A2F80C449CE65C0913F01F0F1A
:1044A40000D1013C6FEAC4636FEA53439BB2A2F8A4
:1044B4000C348FE6012A7FF48DAEB0F8502092B20E
:1044C40002440C7802EB04129BB2A2F80C3481E68D
:1044D40030B45D0800EB420202F5806207E032F876
:1044E400044BA4B20C70240A4C700231013D002D1F
:1044F400F5D113F0010F01D013880B7030BC704755
:1045040010B5D0F8B842D0F8BC325BB194F80002D0
:10451400FF2807D09B6894F8012221469847FF237F
:1045240084F80032002010BD432303800048704704
:10453400400000204323038000487047840000208B
:104544004323038000487047D40000200A230380DB
:1045540000487047C800002038B50446D0F8B85267
:1045640004F080FBC5F80C02D4F8B8324BB1D4F88F
:10457400BC32DB6805F50371D5F8040298470020C6
:1045840038BD022038BD38B5D0F8B822D0F8C052B2
:10459400EAB101EB8104A3000344DB693BB105EB01
:1045A4004115AD6BB3FBF5F405FB14331BB10020CF
:1045B400C2F8140238BD01EB8102930003440024C5
:1045C400DC612346224604F03DFB204638BD022030
:1045D40038BD70B582B005460C46D0F8B8620023E9
:1045E4008DF80730ADF804300B7813F0600227D053
:1045F400202A54D1CA88DAB113F0800F0BD14B783A
:1046040086F800328B7986F80132CA88314600F088
:10461400EEFD002046E0D0F8BC329B68314660785D
:104624009847E2883146284600F0CCFD002039E066
:10463400D0F8BC329B68002248789847002031E0CB
:104644004B780A2B14D00B2B21D01BB100F079FA34
:10465400022027E090F89C32032B03D000F071FA7B
:1046640002201FE0022201A900F0ACFD002019E0A5
:1046740090F89C32032B03D000F063FA022011E07F
:1046840001220DF1070100F09DFD00200AE090F8E1
:104694009C32032B08D000F054FA022002E000F010
:1046A40050FA022002B070BD0020FBE738B5044682
:1046B400812104F094FA0025E5620121204604F0EA
:1046C4008EFAC4F86C518221204604F088FA2564DD
:1046D400D4F8B8324BB1D4F8BC325B689847D4F8FC
:1046E400B80204F0C9FAC4F8B852002038BD38B58D
:1046F4000446037CA3BB4FF400730222812104F01F
:1047040063FA0125E5624FF400730222294620462C
:1047140004F05AFAC4F86C5108230322822120467B
:1047240004F052FA012323644FF4077004F0A0FA52
:104734000546C4F8B80268B3D4F8BC321B6898477D
:104744000023C5F81432C5F81832237CC3B14023C2
:10475400D5F804220121204604F07CFA002038BD5B
:1047640040230222812104F02FFA0125E56240232F
:1047740002222946204604F027FAC4F86C51CBE7FC
:104784004FF40073D5F804220121204604F062FAA4
:10479400002038BD012038BD19B1C0F8BC1200207A
:1047A400704702207047D0F8B832C3F80812C3F833
:1047B400102200207047D0F8B832C3F80412002049
:1047C4007047D0F8B822A2B108B5D2F814320BB1B0
:1047D400012008BD0123C2F81432D2F81032036359
:1047E400B2F81032D2F80822812104F02BFA00200A
:1047F40008BD02207047D0F8B8229AB108B5037CEE
:104804003BB14023D2F80422012104F023FA002012
:1048140008BD4FF40073D2F80422012104F01AFAFF
:10482400002008BD0220704798B108B50346D0F8AF
:10483400B40210B10020C3F8B40209B1C3F8B01235
:104844001846012380F89C32027004F073F90020AA
:1048540008BD0220704719B1C0F8B4120020704797
:104864000220704708B504F0A7F9002008BD08B578
:10487400D0F8B43223B11B68984718B1022008BDA0
:10488400022008BD002008BD08B5D0F8B4325B682A
:104894009847002008BD38B5044600F52A75284617
:1048A40000F03BF90123C4F89432B4F8AE32C4F8F2
:1048B400983294F8A81201F01F03012B0ED03BB1DB
:1048C400022B10D001F08001204604F090F903E09F
:1048D4002946204600F0EFFA002038BD294620463C
:1048E40000F01DFBF8E72946204600F048FBF3E7FB
:1048F40038B50446A9BB1046D4F89432032B03D030
:10490400052B25D0002038BDD4F86031D4F86421BB
:1049140093420DD99B1AC4F860319A4206D99AB2CF
:104924000146204600F072FC002038BD92B2F7E741
:10493400D4F8B4321B691BB194F89C22032A04D026
:10494400204600F06BFC002038BD20469847F7E76E
:104954000025C4F894522946204604F048F9284614
:1049640038BD0A46D0F8B4329B694BB190F89C121A
:10497400032901D0022038BD11469847002038BDD4
:10498400022038BD10B50446002954D11046D4F88D
:104994009432022B0CD0042B00D01BB9802120466A
:1049A40004F025F994F8A032012B40D0002010BD6A
:1049B400236A626A93421BD8E169B1FBF2F302FBFA
:1049C40013132BB98A4203D8D4F8983299421DD3D1
:1049D400D4F8B432DB681BB194F89C22032A23D0A8
:1049E4008021204604F003F9204600F022FCD9E798
:1049F4009A1A226292B20146204600F0F0FB00238C
:104A04001A461946204604F025F9CBE70022114640
:104A1400204600F0E4FB0021C4F898120B460A4635
:104A2400204604F017F9BDE720469847D8E7002050
:104A340084F8A00210BD0A46D0F8B4325B694BB1C9
:104A440090F89C12032901D0022010BD114698470A
:104A5400002010BD022010BD70B504464023002282
:104A6400114604F0B1F80125C4F858514026C4F8A1
:104A74006461334600228021204604F0A5F8A56134
:104A8400666284F89C520023C4F894326360C4F8CC
:104A9400A432D4F8B8322BB1D4F8B4325B68002114
:104AA40020469847002070BD01740020704790F89C
:104AB4009C3280F89D32042380F89C320020704799
:104AC40090F89C32042B01D00020704790F89D325E
:104AD40080F89C32F8E708B590F89C32032B01D09B
:104AE400002008BDD0F8B432DB69002BF8D0984719
:104AF400F6E7002302E00133DBB201300278002A3A
:104B0400F9D11846704708B54B88012B00D008BD71
:104B1400C0F8A43200F082FBF9E70B7803704B78FD
:104B240043708B78CA7803EB022343800B794A796C
:104B340003EB022383808B79CA7903EB0223C380BE
:104B4400704710B50446802104F051F80021204636
:104B540004F04DF810BD30B583B005460C46002373
:104B6400ADF806304A88130A013B062B00F2C280D6
:104B7400DFE803F0041A30C0C09EAE00D0F8B032B3
:104B84001B680DF10601007C9847002353B9BDF85A
:104B940006201AB1E388002B40F0B280E388002B92
:104BA40000F0B88003B030BD037C4BB9D0F8B43208
:104BB4009B6A0DF106009847022343700023E5E742
:104BC400D0F8B432DB6A0DF1060098470223437033
:104BD4000023DBE7D2B2052A64D8DFE802F003132E
:104BE40023334353D0F8B0325B682BB10DF1060187
:104BF400007C98470023C9E72146FFF7A2FF012361
:104C04000020C3E7D0F8B0329B682BB10DF1060148
:104C1400007C98470023B9E72146FFF792FF012360
:104C24000020B3E7D0F8B032DB682BB10DF10601F8
:104C3400007C98470023A9E72146FFF782FF012360
:104C44000020A3E7D0F8B0321B692BB10DF10601A7
:104C5400007C9847002399E72146FFF772FF012360
:104C6400002093E7D0F8B0325B692BB10DF1060157
:104C7400007C9847002389E72146FFF762FF012360
:104C8400002083E7D0F8B0329B692BB10DF1060107
:104C9400007C9847002379E72146FFF752FF012360
:104CA400002073E72146FFF74CFF012300206DE746
:104CB400037C3BB9D0F8B4325B6B0DF10600984726
:104CC400002363E72146FFF73CFF012300205DE753
:104CD400037C4BB9D0F8B4321B6B0DF10600984736
:104CE40007234370002351E72146FFF72AFF0123DE
:104CF40000204BE72146FFF724FF0123002045E76E
:104D04009A4228BF1A46ADF806200146284600F00C
:104D140059FA43E7284600F081FA43E738B50446D8
:104D24008B88F3B9CB88E3B94B887F2B19D803F070
:104D34007F0590F89C32032B0CD080F89E522946B4
:104D440003F078FF204600F069FA35B1022384F8B5
:104D54009C3238BDFFF7F5FE38BD012384F89C3240
:104D640038BD2046FFF7EDFE38BD000038B50446D7
:104D74000D468978284B197001290ED890F89C3279
:104D8400022B0ED0032B21D02946FFF7DAFE224B4B
:104D940019782046FFF778FD38BD2946FFF7D1FE84
:104DA40038BD81B14160032380F89C32FFF75FFD79
:104DB400022803D0204600F031FA38BD29462046A7
:104DC400FFF7BFFE38BD00F029FA38BD89B143684A
:104DD40099421DD0D9B2FFF757FD0F4B1978616086
:104DE4002046FFF744FD02280DD0204600F016FAB5
:104DF40038BD022380F89C324160FFF745FD204610
:104E040000F00CFA38BD29462046FFF79AFE38BD5B
:104E140000F004FA38BD00BF0802002008B5CB88B2
:104E2400012B0BD190F89C329BB1022B09D9032B97
:104E34000FD10122011D00F0C5F908BDFFF781FE65
:104E440008BD0146002341F8083F012200F0BAF9E9
:104E540008BDFFF776FE08BD08B590F89C32013B0B
:104E6400022B12D8CB88022B0CD10123C360D0F8BB
:104E7400A4320BB10323C360022200F10C0100F041
:104E8400A1F908BDFFF75DFE08BDFFF75AFE08BD96
:104E940008B590F89C32013B022B09D84B88012BB2
:104EA40000D008BD0023C0F8A43200F0B7F908BD53
:104EB400FFF747FEF5E708B50B7803F06003202BF6
:104EC40005D0402B03D043B1FFF73BFE03E0D0F8FD
:104ED400B4329B689847002008BD4B78092B1BD837
:104EE400DFE803F011171A141A08051A0E0BFFF75E
:104EF40032FEF0E7FFF712FFEDE7FFF737FFEAE7CF
:104F0400FFF78CFFE7E7FFF7A7FFE4E7FFF7FBFDF9
:104F1400E1E7FFF7BDFFDEE7FFF713FEDBE738B598
:104F240005460C460B7803F06003202B05D0402B7C
:104F340003D013B1FFF705FE0BE095F89C32013B5B
:104F4400022B17D82379012B05D921462846FFF7D0
:104F5400F8FD002038BDD5F8B4329B6821462846B8
:104F64009847E388002BF4D10028F2D1284600F0BA
:104F740055F9EEE721462846FFF7E3FDE9E738B5A2
:104F840004468A880B7803F06003202B08D0D0B243
:104F9400402B05D05BB12046FFF7D3FD002038BD80
:104FA400D4F8B4329B6820469847002038BD202BA3
:104FB40012D04B78012B38D0002B64D0032B40F057
:104FC400DE8094F89C32022B0CD0032B1CD020469C
:104FD400FFF7B7FD002038BDD4F8B4329B682046F3
:104FE400984738BD58B1802809D00146204603F0BF
:104FF400FEFD8021204603F0FAFD002038BD204646
:10500400FFF79FFD002038BD4B8823B918B18028D5
:1050140001D0CB8823B1204600F000F9002038BD30
:105024000146204603F0E3FDF5E794F89C32022B99
:1050340006D0032B16D02046FFF783FD002038BD91
:1050440058B1802809D00146204603F0D0FD8021C4
:10505400204603F0CCFD002038BD2046FFF771FD4B
:10506400002038BD4B88002B40F08E8010F07F0F5D
:1050740004D1204600F0D2F8002038BD0146204675
:1050840003F0BDFDF5E794F89C32022B06D0032B08
:105094002AD02046FFF755FD002038BD08B18028EE
:1050A40013D112F0800F15D100F07F0000EB8000C7
:1050B400830003F5A8712144043100250D60022208
:1050C400204600F07FF8284638BD2046FFF739FD1A
:1050D400002038BD00F07F0000EB8000830003F166
:1050E400100121440431E8E752B2002A1EDB00F02B
:1050F4000F0303EB83039D002544D5F858311BB3FC
:10510400002A26DB00F07F0202EB8202930003F503
:10511400A8752544043530B3802824D001462046A0
:1051240003F075FD40B301232B601EE000F00F0374
:1051340003EB83039D002544AB69002BE0D120469B
:10514400FFF7FFFC002038BD2046FFF7FAFC0020E3
:1051540038BD00F07F0202EB8202930003F11005D8
:1051640025440435D7E700232B6002222946204634
:1051740000F028F8002038BD00232B60F5E7204616
:10518400FFF7DFFC002038BD002038BDC8B170B582
:105194000D4616460446FFF7ACFC01304000308053
:1051A400287003236B70022307E05A1CD2B2013427
:1051B400E9540233DBB20021A95421780029F4D147
:1051C40070BD704710B513460222C0F89422C36123
:1051D40003620A46002103F035FD002010BD08B526
:1051E40013460A46002103F02DFD002008BD10B52A
:1051F40013460322C0F89422C0F85C31C0F8603131
:105204000A46002103F026FD002010BD08B5134610
:105214000A46002103F01EFD002008BD08B5042342
:10522400C0F8943200231A46194603F00BFD0020FF
:1052340008BD08B50523C0F8943200231A46194660
:1052440003F008FD002008BD08B5044B03EB800201
:10525400526852680344187A904708BD2C04002011
:1052640008B5084B1B5C0BB1002008BD054B01229F
:105274001A5403EB8002526812681844007A90476B
:1052840008BD00BF2C04002038B5044C04EB800595
:105294006D68AD680444207AA84738BD2C0400200A
:1052A40038B5044C04EB80056D68ED680444207A3D
:1052B400A84738BD2C04002010B5044B03EB800430
:1052C400646824690344187AA04710BD2C040020A4
:1052D40008B50122064B1A7002F0B4F920B9044A49
:1052E400137803F0FE031370014B187808BD00BF58
:1052F4001701002008B50122064B1A7002F088F944
:1053040020B9044A137803F0FE031370014B187894
:1053140008BD00BF1701002010B5084611461A4603
:10532400084B02F055F938B9074C02F071F928B16D
:10533400631E24B11C46F8E7012010BD10BD0120F6
:1053440010BD00BF00E1F505A086010010B50846B8
:1053540011461A46084B02F04BF938B9074C02F0D3
:1053640057F928B1631E24B11C46F8E7012010BD8B
:1053740010BD012010BD00BF00E1F505A0860100AD
:10538400144B1B7813F0010F01D00320704710B5A4
:1053940088B0144603291BD8DFE801F002050C137A
:1053A400002008B010BD684602F03CF9069B23605B
:1053B4000020F6E7684602F035F9079B23800020B9
:1053C400EFE7684602F02EF9079B23600020E8E728
:1053D4000420E6E71701002004E00A780270013196
:1053E40001301A46531E002AF7D1704702E00170BB
:1053F40001301A46531E002AF9D1704770B403468F
:10540400002001E029463346541E32B15E1C187850
:105414004D1C0B782246C01AF4D070BC704700E0D3
:10542400013003780BB18B42FAD118467047000063
:1054340030B400252B4601E001250133012B21D88E
:1054440003EB4304A2001D4CA258002AF4D000F53B
:1054540080542468A242F0D103EB43029400174A1B
:105464002244546841F2080282589442E5D103EB85
:1054740043029400114A2244148941F20602825ADA
:105484009442DAD1022B03D049B1102030BC7047CA
:1054940095B9022901D01220F8E70020F6E703EBC2
:1054A40043039A00054B13445B89B3F5807F01D015
:1054B4000020EBE71020E9E70020E7E710020020D6
:1054C400002000E00130012806D800EB40029300E0
:1054D400034AD358002BF5D1023818BF0120704776
:1054E4001002002070B4002300E00133012B1FD808
:1054F40003EB4304A200324CA45800F58052126816
:105504009442F2D103EB430294002D4A224454689E
:1055140041F2080282589442E7D103EB430294001B
:10552400274A2244148941F20602825A9442DCD169
:10553400022B3BD039B103EB43029000204A0244D2
:105544005289002A39D1002932D103EB4302910058
:105554001B4A0A445189013189B203EB430290008A
:10556400174A02445181581C70BC70470133012B07
:1055740006D803EB4304A200114CA258002AF5D12B
:10558400022B18D000F5805216680D4D5A001A44AB
:1055940094002A192E5141F208040459546041F22E
:1055A4000604005B108100205081C3E70023DEE77E
:1055B4004FF48071D1E70020D6E70020D4E700BF84
:1055C400100200200138012801D90220704700EBA5
:1055D40040039A000B4B13445B89B3F5807F0DD0D5
:1055E4000BB1013B9BB200EB40029100054A0A4417
:1055F40053812BB90020034A505070470023EFE732
:1056040000207047100200200023012B13D810B48F
:1056140003EB43018A0008498A58824204D00133CB
:10562400012BF5D910BC704703EB43018A00002419
:1056340001498C50F3E770471002002041F2240323
:10564400C258043200F58050006841F20A03C35A7C
:10565400B1FBF3F141F20203C35CB1FBF3F1106857
:1056640030B1814202D3091A0832F8E7506808447D
:105674007047CA7E8B7E43EA022300F5805002788D
:10568400032A01D018467047487D0A7D42EA002269
:1056940043EA0243F6E78176C1F30723C376090C94
:1056A4000175090A41757047F0B40D7805F03F059E
:1056B400013D05EB450305EB83050127002206E0C8
:1056C4004FF6FF74A3421FD101320C2A0FD8124B9C
:1056D4009C5C631CCE5C0B5D43EA0623002FEFD079
:1056E400FE2D0FD820F815301F460135ECE70B7856
:1056F40013F0400F0AD0FE2D0BD8002320F81530EC
:10570400012004E0002002E0002000E00120F0BCC1
:1057140070470020FBE700BF689F0008F0B44B739C
:105724000F23CB7200250D738D76CD76561E06EBB6
:10573400460306EB83062B4602E001350C2D11D8F7
:105744004FF6FF74A34202D030F8163001360B4CEA
:10575400645D0B5501341F0A0F55002BEDD14FF634
:10576400FF73EAE74FF6FF74A34202D030F8163015
:105774000BB942F040020A70F0BC7047689F000801
:1057840070B582B0054616461C460B22FFF724FE70
:10579400052C11D807231FE001310F290DD802F081
:1057A400010000EB4303520813F4803FF4D083F468
:1057B400883383F02103EFE72346328812B102369F
:1057C4000021EAE71C46E5E75A1E02A8034403F851
:1057D400081C240909D0134604F00F0202F1300119
:1057E4003929F1D902F13701EEE77E21034613444A
:1057F40003F8081C00E00134944208D22B5D202BEE
:10580400F9D104E0202018700C46072909D8611C3E
:105814002B19072AF6D802A8104410F8080C0132F4
:10582400F1E702B070BD01460B220020C30143EA38
:105834005003DBB208780344D8B20131013AF5D100
:105844007047016809B10A4603E04FF0FF3308E0EE
:10585400013213781F2B01D93A2BF9D13A2B02D0FC
:1058640000231846704710B44C1C0B78303B092BAE
:1058740007D8A24208D153B901320260184610BCBD
:1058840070474FF0FF33F9E74FF0FF33F6E74FF07F
:10589400FF33F3E7F8B541F20403C35C0BB900200E
:1058A400F8BD044641F22C03C6580746012332468C
:1058B400014641F20100205CFFF7F2FC08BB002224
:1058C40041F20403E25404F581531B68F31A41F2D4
:1058D4001802A258934216D241F20303E55C0CE08D
:1058E40041F21803E3581E4401233246394641F27B
:1058F4000100205CFFF7D4FC013D012DF0D800200D
:10590400F8BD0120F8BD0020F8BD70B541F22C03AC
:10591400C3588B4217D004460D46FFF7BBFF06461B
:1059240008B1304670BD01232A46214641F20100E8
:10593400205CFFF7A9FC10B101264FF0FF3541F2BE
:105944002C03E550EDE70026EBE7000010B5044614
:10595400002241F20403C2544FF0FF3241F22C03FF
:10596400C250FFF7D2FF08B1032010BD94F8FF2105
:1059740094F8FE3143EA02231BB2184A934201D041
:10598400022010BD94F8392094F838301B0443EAFF
:10599400026394F8372043EA022394F83620134331
:1059A40023F07F430E4A934215D094F8552094F87F
:1059B40054301B0443EA026394F8532043EA02235D
:1059C40094F85220134323F07F43054A934201D0B5
:1059D400012010BD10BD002010BD00BF55AAFFFF5F
:1059E4004641540008B308B5024600F580531B68CD
:1059F400EBB103F58051097809B9092008BD41F2DA
:105A04000601595A41F20400125A914201D0092068
:105A140008BD41F20102985CFFF716FC10F0010F7B
:105A240001D0092008BD002008BD092070470920C5
:105A340008BD00002DE9F04184B006461746002356
:105A440003600846FFF7FDFE051EC0F2CA815E4BE7
:105A540053F82540002C00F0C881346004F58053CD
:105A64001B788BB141F20103E05CFFF7EDFB10F012
:105A7400010F09D1002F00F0BA8110F0040F01D0FA
:105A84000A20AFE10020ADE104F5805300221A7032
:105A9400E8B241F20103E054FFF7E2FB10F0010F1A
:105AA40001D003209EE127B110F0040F01D00A2099
:105AB40098E104F580520A32022141F20103E05CCC
:105AC400FFF7FAFB002840F0948141F20A03E35AFD
