:020000040800F2
:100000000080012025020008CD060008CF06000868
:10001000D1060008D3060008D5060008000000003D
:10002000000000000000000000000000D7060008EB
:10003000D906000800000000DB060008DD06000805
:100040006D0200086D0200086D0200086D020008D4
:100050006D0200086D0200086D0200086D020008C4
:100060006D0200086D0200086D0200086D020008B4
:100070006D0200086D0200086D0200086D020008A4
:100080006D0200086D0200086D0200086D02000894
:10009000E10600086D0200086D0200086D0200080C
:1000A0006D0200086D0200086D0200086D02000874
:1000B0006D0200086D0200086D0200086D02000864
:1000C0006D0200086D0200086D0200086D02000854
:1000D0006D0200086D0200086D0200086D02000844
:1000E0006D0200086D0200086D0200086D02000834
:1000F0006D0200086D0200086D0200086D02000824
:100100006D0200086D0200086D0200086D02000813
:100110006D0200086D0200086D0200086D02000803
:100120006D0200086D0200086D0200086D020008F3
:1001300000000000000000000000000000000000BF
:1001400000000000000000000000000000000000AF
:10015000000000000000000000000000000000009F
:10016000000000000000000000000000000000008F
:10017000000000000000000000000000000000007F
:10018000000000000000000000000000000000006F
:10019000000000000000000000000000000000005F
:1001A000000000000000000000000000000000004F
:1001B000000000000000000000000000000000003F
:1001C000000000000000000000000000000000002F
:1001D000000000000000000000000000000000001F
:0401E0005FF8E0F1F3
:1001E40010B5054C237833B9044B13B10448AFF36D
:1001F40000800123237010BD800100200000000056
:10020400B441000808B5034B1BB103490348AFF3DD
:10021400008008BD0000000084010020B4410008F3
:10022400002103E00B4B5B58435004310A480B4B4D
:1002340042189A42F6D30A4A02E0002342F8043BE9
:10024400084B9A42F9D300F03FFC03F085FF00F01D
:100254009BF87047584200080000002080010020ED
:100264008001002094330020FEE7000007B5012040
:100274008DF807009DF8073083420BD1074802F040
:100284007DF938B94FF40061044802F0A5F9003053
:1002940018BF012003B05DF804FB00BF84240020D4
:1002A40007B5009313460A460146044801F0CEFD03
:1002B400003018BF012003B05DF804FB8424002043
:1002C40007B5009313460A460146044801F0D0FEE0
:1002D400003018BF012003B05DF804FB8424002023
:1002E40008B5034802F0FEF9043818BF012008BD20
:1002F400842400200146014802F05BB984240020D4
:1003040008B50349034803F0B5F9034B187008BD59
:10031400CD0300203C420008CC03002030B597B048
:10032400282200210CA803F03BFF1422002101A87D
:1003340003F036FF182200210DEB020003F030FF1A
:100344004FF48033012202250D9314934FF4E013EC
:100354000CA80C9210921593139501F011FA0F2327
:10036400002401934FF48063294601A80493029565
:100374000394059401F0DEFB102306A806930B9466
:1003840001F086FC17B030BD80B5102788B000F0AE
:10039400E5FBFFF7C3FF3A4600210DEB070003F02E
:1003A400FFFE4F4BFF219A694E4842F020029A61AA
:1003B4009A69002402F020020092009A9A690225A8
:1003C4003A439A619A6901263A400192019A9A69DC
:1003D40042F004029A619A6902F004020292029ABB
:1003E4009A6942F008029A619B69002203F00803AB
:1003F4000393039B00F03EFD002248F2FF713A484C
:1004040000F038FD00224BF24701384800F032FD7D
:10041400FF230DEB070133480493069407950596D3
:1004240000F03CFC48F2FF730DEB07012E480493E7
:1004340006940795059600F031FC4BF247030DEB4B
:1004440007012A4804930694079505964FF48045BE
:1004540000F024FC03230DEB0701244805930495C5
:1004640000F01CFC2248234A234B846080E80C00E3
:10047400C46044618461C4610462056100F006FDE6
:100484001E4B1F4A9C6083E81400DC601C615C61A5
:100494009C614FF482731B481B49846080E80A0006
:1004A4004FF4007383610A23C460C362046144612E
:1004B400046244628462C76102F028F9FFF720FFF6
:1004C40000F012F904F1804404F5843420464FF41A
:1004D400007100F0D4FC4FF4FA7000F063FBF5E710
:1004E400001002400010014000080140000C0140CF
:1004F4003024002000580040801A06008424002084
:1005040000800140082500200030014070470000B1
:100514000E4B82B09A6942F001029A619A6902F024
:1005240001020092009ADA6942F08052DA61DB69D2
:10053400074A03F080530193019B536823F0E0635F
:1005440043F00073536002B0704700BF00100240D4
:100554000000014010B5044686B01022002102A814
:1005640003F01EFE2268114B9A421DD1104C02A9C1
:10057400A369104843F00803A361A36903F00803C7
:100584000093009B4FF440630293122303930323CD
:10059400059300F083FBE36943F48003E361E369BB
:1005A40003F480030193019B06B010BD0058004082
:1005B40000100240000C0140102230B5044689B0FE
:1005C4000DEB0200002103F0EBFD22681A4B9A4266
:1005D4002FD103F510435A69022542F480625A610F
:1005E4005A69032402F480620192019A9A6904A967
:1005F40042F010029A619A69104802F010020292C5
:10060400029A9A6942F020029A619B69059503F067
:1006140020030393039B4FF4F8530794049300F0CF
:100624003DFB042304A9064804930595079400F0B0
:1006340035FB09B030BD00BF00800140001001400F
:100644000014014030B51024054687B0224600212D
:1006540002A803F0A5FD2A68184B9A422CD103F591
:1006640060439A6902A942F480529A619A691448D3
:1006740002F480520092009A9A6942F008029A6148
:100684009B6903F008030193019B2823029302232F
:1006940003930323059300F001FB002302A90848F8
:1006A40003930493029400F0F9FA064A536843F062
:1006B400E06343F00103536007B030BD00300140F4
:1006C400000C0140000001407047FEE7FEE7FEE732
:1006D400FEE770477047704700F052BA014800F0D7
:1006E400ABBD00BF2430002008B500220E490F48DE
:1006F40003F099F908B1FFF709FF0D490B4803F01E
:10070400A7F908B1FFF702FF0A49084803F063F9A3
:1007140008B1FFF7FBFE054803F0A1F918B1BDE8E5
:100724000840FFF7F3BE08BD10000020602500203C
:100734007000002000000020002070470020704757
:1007440010B5054C0146204603F054F9204603F049
:1007540057F9002010BD00BF6025002010B5064CDD
:1007640000220649204603F03DF90549204603F0DE
:1007740041F9002010BD00BF60250020242C00207A
:100784002428002007B50D4B02689A4212D103F5C4
:10079400DA33DA69142042F40002DA610022DB69F8
:1007A400114603F400030193019B00F01FFA142087
:1007B40000F050FA03B05DF804FB00BF005C004099
:1007C40000F50C71D0F8680203F060B900EB411336
:1007D400D3F83C21D0F8680203F085B900EB41134B
:1007E400DA6BD0F8680203F0B8B9D0F8680203F005
:1007F4004CBA836810B5022B044601D0FFF786FE7D
:10080400D4F86802012103F02AFAD4F86802BDE89A
:10081400104003F0FDB9000010B50446D0F868029A
:1008240003F020FAA36923B1024A136943F00603D3
:10083400136110BD00ED00E0D0F8680203F01BBAAC
:100844000223082210B51C4904461C4880E80E0007
:100854000023C4F8C002C0F868428361C361036224
:1008640000F0B8FB08B1FFF751FE0022182311462F
:10087400D4F8C00200F06CFF582300228021D4F881
:10088400C00200F065FFC02300228121D4F8C00219
:1008940000F05EFF4FF4887300220121D4F8C002F7
:1008A40000F056FF4FF4807300228221D4F8C00276
:1008B40000F04EFF002010BD005C004024300020FA
:1008C40008B5D0F8C00200F0FAFB03289ABF024B27
:1008D400185C022008BD00BFDC41000810B51C46AE
:1008E400D0F8C0021346224600F014FC03289ABF35
:1008F400014B185C022010BDDC41000808B5D0F89B
:10090400C00200F03AFC03289ABF024B185C022094
:1009140008BD00BFDC41000808B5D0F8C00200F0F3
:10092400B1FE03289ABF024B185C022008BD00BF29
:10093400DC41000808B5D0F8C00200F0D7FE032857
:100944009ABF024B185C022008BD00BFDC410008BE
:100954000A06D0F8C03245BF01F07F0103EB411312
:1009640003EB411393F82A0058BF93F82A01704708
:1009740008B5D0F8C00200F0B9FB03289ABF024BB7
:10098400185C022008BD00BFDC41000808B5D0F89F
:10099400C00200F03AFC03289ABF024B185C022004
:1009A40008BD00BFDC41000808B5D0F8C00200F063
:1009B4000DFC03289ABF024B185C022008BD00BF3F
:1009C400DC410008D0F8C00200F018BC00487047B1
:1009D4009C01002070477047122301480B80704728
:1009E4002C000020042301480B80704740000020A5
:1009F400002330B51D46DCB2A24200D830BD040F3E
:100A0400092C94BF3034373401F8134001EB43040C
:100A1400000165700133EEE71A2310B50B80094B12
:100A2400186808331B68C0180AD0074B08221C68D2
:100A34000649FFF7DDFF042205492046FFF7D8FFEA
:100A4400044810BDE8F7FF1FECF7FF1F4600002025
:100A5400560000204400002010B5044C0A46044807
:100A6400214603F01AFB204610BD00BF903200203F
:100A7400F941000810B5044C0A460448214603F025
:100A84000CFB204610BD00BF903200200C42000831
:100A940010B5044C0A460448214603F0FEFA2046E9
:100AA40010BD00BF90320020E041000810B5044C96
:100AB4000A460448214603F0F0FA204610BD00BF60
:100AC40090320020EB4100080F4B1A6842F00102FB
:100AD4001A6059680D4A0A405A601A6822F08472F2
:100AE40022F480321A601A6822F480221A605A684A
:100AF40022F4FE025A604FF41F029A604FF0006223
:100B0400034B9A60704700BF001002400000FFF8DA
:100B140000ED00E038B50E4B054618784FF47A73B3
:100B2400B3FBF0F30B4A1068B0FBF3F000F0A0F84D
:100B3400044658B90F2D09D8024629464FF0FF3014
:100B440000F054F8044B20461D6038BD012038BD28
:100B5400640000206000002068000020074A08B5F7
:100B64001368032043F01003136000F02DF80020F5
:100B7400FFF7D0FFFFF7CCFC002008BD00200240A7
:100B8400034A044B11681B780B441360704700BF81
:100B94009033002064000020014B1868704700BFA8
:100BA4009033002038B50446FFF7F6FF0546631C72
:100BB4001EBF044B1B78E418FFF7EEFF401B844272
:100BC400FAD838BD64000020074A0002D36800F454
:100BD400E06023F4E0631B041B0C43F0BF6343F4A5
:100BE40000330343D360704700ED00E0174B30B58A
:100BF400DC68C4F30224C4F10703251D042B28BFB9
:100C04000423062D4FF0010598BF002405FA03F3D1
:100C140003F1FF3388BF033C1940A14005FA04F4F3
:100C2400013C2240002842EA01024FEA0212A9BF15
:100C340000F16040064BD2B200F56140BBBF00F04A
:100C44000F00D2B280F800231A5430BD00ED00E04A
:100C540014ED00E0002808DB0123420900F01F0026
:100C640003FA00F0014B43F82200704700E100E072
:100C74000138B0F1807F0AD2F021064B064A586051
:100C840082F823100020072298601A607047012020
:100C9400704700BF10E000E000ED00E02DE9F74FE1
:100CA400002426466C4F6D4BDFF8B8E1DFF8B8C17D
:100CB4000A6832FA06F502D103B0BDE8F08F4FF0AE
:100CC400010808FA06F802EA0802904540F0848018
:100CD4004D68122D00F0B18000F28780022D00F0E3
:100CE400A9807BD8002D00F08C80012D00F0A0801D
:100CF4004FF00F09FF2A93BF824606F18045083D55
:100D0400D0F800B092BFB500D0F804B0AD0009FA35
:100D140005F82BEA080804FA05F588BF00F1040A6F
:100D240048EA0505CAF80050D1F804A01AF0805F1B
:100D340052D0BD6926F0030845F00105BD61BD69C7
:100D440008F1804805F00105019508F5803806F0A2
:100D5400030B019D4FEA8B0BD8F8085009FA0BF9E5
:100D640025EA09093E4DA8426CD005F58065A842E4
:100D74006AD005F58065A84268D005F58065A8426B
:100D840066D005F58065A84264D070450CBF052582
:100D9400062505FA0BF545EA0905C8F808501D684B
:100DA4001AF4803F14BF154395431D605D681AF41F
:100DB400003F14BF154395435D609D681AF4801F7E
:100DC40014BF154395439D60DD681AF4001F14BFDA
:100DD4002A4325EA0202DA60013669E7032D25D0A9
:100DE400112D85D1CC68043482E7654509D012D829
:100DF400DFF878904D4504D009F580394D457FF4EE
:100E040077AF8C68E4B1012C0CBFC0F81080C0F837
:100E1400148008246CE7DFF858904D45F1D009F5AB
:100E240080394D45EDD0A9F58019E7E700245FE747
:100E3400CC685DE7CC6808345AE7CC680C3457E7D3
:100E4400042455E70025A4E70125A2E70225A0E72D
:100E540003259EE704259CE700100240000401409E
:100E640000080140001C0140000021100000111086
:100E7400000031100AB1016170470904FBE7C3683F
:100E84000B4214BF416101617047000070B5044614
:100E940008B9012070BD90F83D3003F0FF021BB982
:100EA40080F83C20FFF756FB2423226884F83D3069
:100EB400136823F00103136000F0DAFE6568414B08
:100EC4009D424DD8404B9842E3D940492268B0FB3B
:100ED400F1F1536823F03F030B435360136A23F08B
:100EE4003F03013119431162D169364B21F44F415B
:100EF4009D4221F0FF0100F1FF3048D86D00B0FBA6
:100F0400F5F00130C0F30B03042B38BF04230B436B
:100F1400D3611168206AE36921F0C00103430B43E4
:100F240013609168E068236921F40341034321F0CD
:100F3400FF010B439360D168A069636921F0FF014D
:100F440003430B43D3601368002043F00103136091
:100F54002023206484F83D30206384F83E0070BD73
:100F64001B4B984295D9194E4FF49671B0FBF6F687
:100F740022687143536823F03F0333434FF47A7676
:100F84005360136AB1FBF6F123F03F03A9E7A368AA
:100F940053B905EB4503B0FBF3F0431CC3F30B0358
:100FA4006BB143F40043B2E719236B43B0FBF3F096
:100FB400431CC3F30B0313B143F44043A7E70123DA
:100FC400A5E700BFA08601007F841E0040420F00F9
:100FD400FF083D00F0B5044687B010B390F82932FD
:100FE40003F0FF021BB980F82822FFF7CBFB25464C
:100FF40003236E4655F8100B84F8293201F00AFFDA
:101004000FCD0FC62B6825463360271D97E80E00C9
:1010140055F8100B01F0EEFE064620B1022384F8C9
:101024002932012548E00146206801F0FDFE3046E2
:101034004FF0010E6168C3B2994200F1010017D864
:1010440000221046D3B2994202F101021DD86E4625
:101054000FCD0FC62B68336097E80E00206801F0AF
:10106400E5FE0123054600B3022284F82922D8E7CD
:1010740004EB431282F829E082F82830D38682F800
:101084002B609663D6631664D5E704EB431686F8A3
:1010940028310A335B0186F8290186F82B01C6F84A
:1010A4003801C6F83C01E050CCE784F8240084F809
:1010B4002932206802F0A0F9284607B0F0BD90F864
:1010C400283210B5012B04460ED0012180F82812D5
:1010D400FFF781FC206802F08DF9206801F091FE91
:1010E400002084F8280210BD022010BD90F82822A8
:1010F40010B5012A04460BD0012280F8282284F876
:101104002410006802F070F9002084F8280210BD51
:10111400022010BD70B511F0800F044601F00700E5
:101124004FEA40151FD0012605F12801254421442A
:1011340085F829600A614A78C0B20870CB7002B1A0
:10114400C881022B04BF00230B7194F82832012BB1
:1011540011D00123206884F8283201F083FE002096
:1011640084F8280270BD002605F5947125442144B5
:1011740085F82961DEE7022070BD01F0070311F054
:10118400800F10B54FEA4312044615D002F128012E
:1011940001440244012082F829000B7094F828329B
:1011A400012B11D00123206884F8283201F0D2FFEA
:1011B400002084F8280210BD02F594710144024411
:1011C400002082F82901E8E7022010BD70B500264E
:1011D40001F007014D01441984F8281105F59471B3
:1011E4000144C4F83C21C4F84031C4F8446184F893
:1011F4002961006802F018F9304670BD01F007015A
:1012040000EB4111D1F84401704701F0070170B5BA
:101214004D01441923640026012384F8281005F1A4
:1012240028010144E263666484F82930006802F00E
:10123400FBF8304670BD00002DE9F84F0446006805
:1012440002F0DCF8020400F11082206802F0D6F803
:1012540043050FD522682046B2F8443023F4806356
:101264001B041B0CA2F84430FFF7C3FA00212046EC
:10127400FFF73CFF206802F0C1F8470408D5226854
:10128400B2F8443023F480431B041B0CA2F844300E
:10129400206802F0B3F8860408D52268B2F8443016
:1012A40023F400531B041B0CA2F84430206802F002
:1012B400A5F8C5041CD522682046B2F8403023F0B6
:1012C40004031B041B0CA2F84030B2F8403023F096
:1012D40008031B041B0CA2F84030FFF7ADFA226888
:1012E400B2F8443023F480531B041B0CA2F844309E
:1012F400206802F083F8000526D52068B0F8403055
:101304009BB243F00803A0F84030B0F8443023F413
:1013140000631B041B0CA0F84430B0F840309BB2AF
:1013240043F00403A0F8403002F068F8C10408D583
:101334002268B2F8443023F480531B041B0CA2F837
:1013440044302046FFF768FA206802F057F8820517
:101354000BD522682046B2F8443023F400731B04F2
:101364001B0CA2F84430FFF740FA206802F046F85C
:10137400C30508D52268B2F8443023F480731B04F3
:101384001B0CA2F84430BDE8F88FB0F8441089B2C1
:1013940011F00F0640F0B780038811F010019BB2E2
:1013A4002CD103EA090343F400430380B0F850301E
:1013B40094F828209BB203EBC20300EB4300B0F87F
:1013C4000434E26BC3F3090363641344E363204608
:1013D400FFF704FA94F8243053B1226C42B994F81C
:1013E4002430216843F08003A1F84C3084F8242091
:1013F4002068B0F844301B04C7D426E713F4006512
:1014040021D0B0F8503094F828219BB203EBC203EA
:1014140000EB4303B3F80C34B4F82E21C3F30903EF
:10142400C4F8443104F50C7102F0E6F82268204651
:10143400138823F070031B051B0D43F080031380F6
:10144400FFF7BEF9D4E71F04D2D5038823F0700355
:101454001B051B0D43F080030380B0F8503094F853
:1014640028219BB203EBC20300EB4303B3F80C3413
:10147400C3F30903C4F844318BB1D4F83C1171B1FE
:10148400B4F82E2102F0B8F8D4F83C31D4F8442151
:1014940029461344C4F83C312046FFF797F92168E4
:1014A400D4F83851B1F8503001F20C409BB2CDB9A8
:1014B400C25A22F4F8421204120CC252C25A92B214
:1014C40042F40042C2520B8823F4804323F0700399
:1014D4001B041B0C83F4405343F4004343F0800388
:1014E4000B8085E73E2D06D86A08EE0748BF013217
:1014F400920292B2E6E76A09ED0608BF02F1FF32F2
:101504004AEA8222F5E730F826801FFA88F818F4B0
:10151400004F3DD030F82630770123F070031B05CF
:101524001B0D43F0800320F82630E11991F8343183
:10153400002B58D1B0F8503091F828219BB20633D3
:1015440003EBC20300EB4303B3F80054C5F30905EE
:1015540035B1B1F82E212B46D1F83C1102F04CF8EC
:10156400E119D1F84431D1F83C212B44C1F844317C
:10157400D1F840312A44C1F83C211BB1D1F83801DB
:10158400854269D2274497F828112046FFF71EF9AF
:1015940018F0800F3FF42CAF2168204631F8262044
:1015A40092B202EA090242F4004221F82620B1F87C
:1015B400503004EB461696F828209BB2023303EB16
:1015C400C20301EB4303B3F80024F36BC2F3090233
:1015D40072641A44336CF26396F82810002B41D1DC
:1015E400FFF7FCF804E791F8283130F82320DB00FA
:1015F40012F4804FB0F8502092B21FD0023213443C
:1016040000EB4303B3F80054C5F3090535B12B4689
:10161400B1F83021D1F83C1101F0EEFFE31993F851
:101624002811226832F821309BB203EA0B0343F4F9
:10163400004343F0C00322F8213091E706321344FB
:1016440000EB4303B3F80054C5F30905002DE5D0BE
:101654002B46B1F83221DDE791F828112046FFF737
:10166400B5FD95E7FFF7D1FDC2E6DFF80C90DFF892
:101674000CA0DFF80CB0BBE60F8FFFFF0080FFFF6C
:101684008F8FFFFF38B5436801F007059D4204467C
:1016940028D80B061DD501226B0103F12801034450
:1016A400014483F8292001230D708B7094F82822BB
:1016B4009A4219D084F82832206801F02AFE25B90C
:1016C40004F50C71206801F09DFE002084F82802C6
:1016D40038BD00224B0103F594710344014483F89F
:1016E4002921E0E7012038BD022038BD38B5436820
:1016F40001F00F029A42044626D801F0070311F0C4
:10170400800F4FEA431217D002F12801014402442A
:10171400012082F8290000250B708D7094F828327E
:10172400012B13D00123206884F8283201F011FE24
:1017340084F82852284638BD02F5947101440244C5
:10174400002082F82901E6E7012038BD022038BDD7
:1017540011F0800F1BBF01F0070100EB411000EBFB
:101764004110283008BF00F594701AB90273C38081
:1017740000207047012203811B0C02734381F7E7A9
:101784002DE9F341054608B901203CE00368DB0775
:1017940010D42B689F075DD42B68190700F194803F
:1017A4002B685A0700F1BE80E869002840F02C81BC
:1017B400002028E08F4C636803F00C03042B07D04F
:1017C400636803F00C03082B09D16368DE0306D5B4
:1017D40023689C03DDD56B68002BDAD1D4E76B68F2
:1017E400B3F5803F12D1236843F480332360FFF7BD
:1017F400D3F9064623689803CBD4FFF7CDF9801BB1
:101804006428F7D9032002B0BDE8F0819BB92368AE
:1018140023F480332360236823F480232360FFF7B9
:10182400BBF9064623689903B3D5FFF7B5F9801BC6
:101834006428F7D9E6E7B3F5A02F236803D143F46E
:1018440080232360CFE723F480332360236823F4C9
:101854008023CBE7674C636813F00C0F07D06368F1
:1018640003F00C03082B10D16368DA030DD423684A
:101874009B0702D52B69012B86D123686A6923F063
:10188400F80343EAC203236086E72A695A4B6AB124
:1018940001221A60FFF780F9064623689F07ECD4FB
:1018A400FFF77AF9801B0228F7D9ABE71A60FFF734
:1018B40073F90646236898077FF56EAFFFF76CF956
:1018C400801B0228F6D99DE7AA694A4C4B4BDAB132
:1018D40001221A60FFF760F90646636A9B070DD57B
:1018E4004FF4FA52464B1B68B3FBF2F3019300BF6B
:1018F400019B5A1E0192002BF9D151E7FFF74CF9D5
:10190400801B0228E9D97DE71A60FFF745F90646EE
:10191400636A9F077FF544AFFFF73EF9801B0228F7
:10192400F6D96FE7334CE369D80024D40127E3697F
:1019340043F08053E361E36903F080530093009B19
:10194400304E3368D90518D5EB68012B26D1236AAC
:1019540043F001032362FFF71FF941F28836804602
:10196400236A9B073FD5002F3FF41EAFE36923F0A2
:101974008053E36118E70027E2E7336843F4807398
:101984003360FFF709F980463368DA05DCD4FFF7E2
:1019940003F9A0EB08006428F6D933E7ABB9236A4E
:1019A40041F2883823F001032362236A23F00403FD
:1019B4002362FFF7F1F80646236A9807D3D5FFF7A9
:1019C400EBF8801B4045F7D91CE7052B236A03D1AC
:1019D40043F004032362BAE723F001032362236A7A
:1019E40023F00403B6E7FFF7D7F8A0EB0800B042F2
:1019F400B6D907E700100240000042428004424288
:101A040060000020007000402A4B5A681C4602F017
:101A14000C02082A3DD00023274E022833602BD124
:101A2400FFF7BAF80746236899011FD42B6AB3F568
:101A3400803F05D16268A96822F400320A436260DB
:101A4400696A62680B4322F47412134363600123CE
:101A54003360FFF7A1F8054623689A013FF5A8AE65
:101A6400FFF79AF8401B0228F6D9CBE6FFF794F863
:101A7400C01B0228D7D9C5E6FFF78EF805462368B0
:101A84009B017FF595AEFFF787F8401B0228F6D936
:101A9400B8E601283FF4B7AE58682B6A00F48032E8
:101AA4009A427FF471AE6B6A00F47010C01A18BFCA
:101AB4000120A8E6001002406000424230B5194BF4
:101AC40087B002AC03F11005224618685968083340
:101AD40003C2AB421446F7D101238DF8043002232C
:101AE40011498DF805304B6803F00C02082A17D110
:101AF400C3F3834206A80244DB0312F8102C0CD56E
:101B04004B680A48C3F34043504306AA134413F8EE
:101B1400143CB0FBF3F007B030BD05485043FAE77E
:101B24000248F8E7CC4100080010024000127A0095
:101B340000093D002DE9F0410D46044610B901208D
:101B4400BDE8F081454A136803F007038B4229D3AB
:101B540021688E0731D4CA0744D4404A136803F07D
:101B640007039D4267D322683D4D12F0040F6ED1E6
:101B7400130706D56B68226923F4605343EAC20352
:101B84006B60FFF79BFF6B68364AC3F30313D35CA8
:101B9400D840354B1860354B1868FEF7BBFF002062
:101BA400BDE8F081136823F007030B431360136847
:101BB40003F007039942C2D1CAE7294B11F0040F7D
:101BC4001EBF5A6842F4E0625A60080742BF5A686E
:101BD40042F460525A605A68A06822F0F00202434C
:101BE4005A60B8E762681E4E012A33681BD113F4A9
:101BF400003FA4D0736841F2883823F003031343F1
:101C04007360FEF7C9FF07467368626803F00C034C
:101C1400B3EB820FA1D0FEF7BFFFC01B4045F3D941
:101C24000320BDE8F081022A02D113F0007FE0E72F
:101C340013F0020FDDE7136823F007032B4313604F
:101C4400136803F007039D427FF479AF8BE76B6859
:101C5400E16823F4E0630B436B6089E700200240F2
:101C640000100240224200086000002068000020AA
:101C7400044B054A5B68C3F30223D35C034A106830
:101C8400D840704700100240324200086000002033
:101C940003682DE9F341D907054620D5354CE3699E
:101CA400DA0032D40127E36943F08053E361E36946
:101CB40003F080530193019B2F4E3368DB0526D537
:101CC400236A13F4407336D1236A6A6823F4407399
:101CD400134323621FB1E36923F08053E36128684F
:101CE400830706D5234AA968536823F440430B436A
:101CF400536010F010001BD01E4A6969536800201D
:101D040023F480030B43536012E00027D4E73368C5
:101D140043F480733360FEF73FFF80463368D80591
:101D2400CED4FEF739FFA0EB08006428F6D90320CF
:101D340002B0BDE8F0816A6802F440729342C3D0F5
:101D440001200E4A236A1060002023F440711060C1
:101D54002162D907B8D5FEF71FFF41F2883806463D
:101D6400236A9A07B0D4FEF717FF801B4045F7D9C2
:101D7400DDE700BF00100240007000404004424212
:101D84002DE9F04389B005460E46FEF705FF002312
:101D94008146082128680093019300F024FE04463C
:101DA40040BB296D2868090400F02EFF044608BBD7
:101DB4004FF0FF3302930823039330230493022349
:101DC40005930123069002A92868079300F0F8FD03
:101DD400286800F04AFF044660B9074640F22A48E2
:101DE4002868436B13EA080F436B07D0190718D50B
:101DF40008248463204609B0BDE8F0839B0207D51C
:101E040000F0B4FD08AB03EB870343F8200C013763
:101E1400FEF7C2FEA0EB09000130E1D14FF000440F
:101E2400E8E7436B9A0701D50224E2E7436B9B067C
:101E340001D52024DDE740F23A538363019B1BBAAA
:101E44003360009B1BBA7360D4E700002DE9F04FA8
:101E540087B004460D4616469946FEF79DFE074692
:101E64002DB9A36B43F00063A363012010E094F841
:101E74003400C0B2012840F0F5800021E26D06EB89
:101E840009039342A16306D9A36B43F00073A363D0
:101E940007B0BDE8F08F0323206884F83430636C06
:101EA400C162012B4FF4007118BF760200F09BFD54
:101EB40048B123686D4A9A63A36B1843A063012059
:101EC40084F83400E4E74FF0FF3300934FEA4923EA
:101ED40001934FF0010A90234FF0020B04906946DE
:101EE40020680293CDF80CB0CDF814A000F068FD82
:101EF400D14512D9C4F830B03146206800F0A3FDB2
:101F040090B12368594A9A63A36B1843A0630120D4
:101F1400002384F834002363BAE7C4F830A03146C0
:101F2400206800F078FDEBE740F22A3BDDF804A0DE
:101F34002068436B13EA0B0F436B17D0DE0509D5FA
:101F4400B9F1010F06D9636C032B03D000F0C4FD73
:101F54000028D6D12368596B11F0080136D0434AC2
:101F64009A63A36B43F00803A363D0E71B0419D55A
:101F7400BAF1000F16D02E1D05F12408206800F0D8
:101F8400F5FC020A06F8040C06F8032C020C000EF9
:101F940006F8022C06F8010C04364645EED120352D
:101FA400AAF1200AFEF7F8FD109BC01B9842BFD38C
:101FB40023682E4A03209A63A36B43F00043A36370
:101FC400012384F834300023236361E75A6B12F051
:101FD40002020AD00120254A9A63A36B43F002034C
:101FE400A36384F83400216352E7596B89060AD548
:101FF40001201E499963A36B43F02003A36384F873
:102004003400226344E72E1D0AF1040A2068436B5E
:102014009B0207D440F23A5383630123002084F8DF
:10202400343035E7AAEB0603DD42F3D000F09EFC22
:10203400030A06F8040C06F8033C030C000E06F829
:10204400023C06F8010CFEF7A7FD109BC01B83425F
:1020540006F10406DAD82368044A9A63A36B43F0B2
:10206400004381E7A36B43F00053FDE6FF05400006
:102074002DE9F04F89B004460E4691461F46FEF7FF
:102084008BFD80462EB9A36B43F00063A36301204C
:1020940010E094F83400C0B2012840F0B980002167
:1020A400E26D09EB07039342A16306D9A36B43F0E6
:1020B4000073A36309B0BDE8F08F0323206884F89C
:1020C4003430636CC162012B4FF4007118BF4FEAC6
:1020D400492900F088FC48B123684F4A9A63A36BEE
:1020E4001843A063012084F83400E3E74FF0FF3382
:1020F40002937B020393902304930123059006909B
:1021040002A92068079300F05BFC012F12D9202359
:1021140049462363206800F0C6FC90B123683E4A18
:102124009A63A36B1843A0630120002384F834004E
:102134002363BFE7102349462363206800F09BFC18
:10214400EBE740F21A3A039D2068436B13EA0A0F47
:10215400436B16D0DB0508D5012F06D9636C032B1E
:1021640003D000F0B9FC0028D8D12368596B11F0D2
:10217400080128D0284A9A63A36B43F00803A36399
:10218400D2E75A040CD55DB106F1200B56F8043B96
:1021940001A92068019300F0ECFBB345F6D1203D82
:1021A400FEF7FAFC129BA0EB08009842CCD32368FC
:1021B400194A03209A63A36BA363012384F8343080
:1021C4000023236376E75A6B12F002020AD001203F
:1021D400114A9A63A36B43F00203A36384F83400A7
:1021E400216367E7586B10F010000AD001200A49F8
:1021F4009963A36B43F01003A36384F83400226350
:1022040058E740F23A529A63012384F8343051E794
:10221400A36B43F0005339E7FF054000436E10B54C
:102224009A0F0A70C3F383624A70C3F301628A701F
:10223400C3F30742CA70C3F30722DBB20A714B71BE
:10224400836E1A0DCA80C3F303420A72C3F3C03209
:102254004A72C3F380328A72C3F34032CA72C3F340
:1022640000320A7300224A73426C002A6BD140F692
:10227400FC74C26E04EA830343EA92730B61C2F3F3
:10228400C2630B75C2F302634B75C2F342538B7581
:10229400C2F38243C2F3C232CB750A760B690A7E5B
:1022A400013302F007020232934043650A7A02F0D6
:1022B4000F040122A2408265520A5343C3654FF4BE
:1022C40000730366C36EC3F380324A76C3F3C61247
:1022D40003F07F038A76CB76036F0020DA0F0A7748
:1022E400C3F341724A77C3F382628A77C3F383529A
:1022F400CA77C3F3405281F82020C3F3004281F827
:10230400210081F82220C3F3C03281F82320C3F3D3
:10231400803281F82420C3F3403281F82520C3F3AE
:10232400003281F82620C3F3812281F82720C3F3E9
:102334000122C3F3460381F8282081F829300123C0
:1023440081F82A3010BD012A0FD1B0F86E201B0489
:1023540003F47C1313430B610B6901339B02436544
:10236400C3654FF400738365ABE70368054A9A635A
:10237400836B43F080538363012380F83430184621
:1023840010BD00BFFF05400000232DE9F04198B0C7
:102394000793089309930A930B93762304460C93AB
:1023A4000AAB93E807008DE8070007AB0ECB206863
:1023B40000F0C0FA0546002840F08D8001266D4FDC
:1023C4003860206800F0DAFA3E602068069500F074
:1023D400B5FB0546002878D1206800F0D7FB30B162
:1023E400A564206800F0AAFB10B105466DE0A66460
:1023F400A36C012B61D04FF6FE7600213746DFF83F
:102404007881069BB34268D9069BBB4200F2A9803F
:10241400012315F0804518BF1D4620686564ADF89A
:10242400163000F0B3FA002800F09E80636C032B92
:1024340019D0206800F031FC00286DD101462068D5
:1024440000F0BBFA04216067206800F0B6FA0821A6
:10245400A067206800F0B1FA0C21E067206800F062
:10246400ACFAC4F88000636C032B4ED1636C032B6D
:1024740059D10421206800F0A0FA000DE0640DA9F0
:102484002046FFF7CBFE0546002870D1226D034697
:102494001204206800F03AFB00283DD104F1100337
:1024A40093E807008DE80700231D0ECB206800F099
:1024B40041FA284618B0BDE8F0810021206800F0F8
:1024C400A3FB002897D04FF08055012384F83430C3
:1024D400A26B1543A5630125EBE7002994D120687D
:1024E40000F092FB05460028EFD14146206800F039
:1024F400A3FB0028E7D12946206800F05EFA069B7A
:10250400054601330693C10F7BE70DF116012068E0
:1025140000F0EEFB0028A9D0012584F83450A16B0B
:102524000843A063C5E7BDF81610206821650904B7
:1025340000F0C8FB0028EFD10146206800F03DFA06
:1025440004216066206800F038FA0821A06620683B
:1025540000F033FA0C21E066206800F02EFA2067C0
:1025640087E74FF08075B0E74FF08060D4E74FF015
:102574008050D1E7A0003042000010C110B50446DD
:1025840008B9012010BD90F8343003F0FF0213B9EC
:102594000277FEF711F80323204684F83430FFF75E
:1025A400F3FE0028EDD10123A063206384F83430C6
:1025B40010BD436C0B60836C4B60C36C8B60036D0C
:1025C400CB60436D0B61836D4B61C36D8B61036E97
:1025D4000020CB6170470000032370B580F83430CD
:1025E400436C8AB0032B04460E4602D0B1F5805FDB
:1025F40003D1A36B43F0805355E0B1F5006F2CD1A8
:10260400002100680491059100F0D7F980011FD4DE
:1026140004A92046FFF7B4FB60B9059B590319D5FB
:10262400216D2068090400F0EFFA18B9022120682E
:1026340000F0DEFBA36B1843A063A56B002D34D020
:1026440001202368264A9A6384F834000AB070BDD6
:102654003046EFE74FF08060ECE709BB0068049177
:10266400059100F0AAF9820114D404A92046FFF7C9
:1026740087FB60B9059BDB030FD5216D2068090436
:1026840000F0C2FA18B90146206800F0B1FBA16B52
:102694000843D1E74FF40060F9E74FF08060F6E7B4
:1026A400836B43F00063A363C7E7636807960493EF
:1026B400A3680593E368069363690893A369099380
:1026C4000AAB13E907008DE8070004AB0ECB2068C2
:1026D40000F030F90123284684F83430B6E700BF0F
:1026E400FF054000016D10B509040446006800F0C0
:1026F4004FFB014628B9206800F05FF9C0F343207E
:1027040010BDA36B00201943A163F7E710B504467D
:10271400002834D00023836290F8513003F0FF0284
:102724001BB980F85020FDF78DFF0223226884F83E
:1027340051301368A06823F0400313606368A169F3
:102744000343E06803432069034360690343E0698A
:102754000343206A0343A06A034301F40070090C95
:10276400034301F0040113605160D369002023F492
:102774000063D3610123606584F8513010BD0120EA
:1027840010BD00004FF4FA52114B1B68B3FBF2F278
:1027940041F28833534313F1FF3315D3426B12F0E4
:1027A400450FF8D01205F6D4436B5B0703D5042319
:1027B400836318467047436B13F0010301D0012370
:1027C400F6E7C5228263F4E74FF00043F1E700BF68
:1027D400600000204FF4FA520E4B1B68B3FBF2F278
:1027E40041F28833534313F1FF330FD3426B12F09A
:1027F400450FF8D01205F6D4436B13F0040315BF4C
:102804000423C52283638263184670474FF0004057
:10281400704700BF6000002010B54FF4FA54434BDA
:102824001B68B3FBF4F35A43002A4AD0436B13F0FA
:10283400450F08D01C0506D4436B5B0705D504235C
:102844008363184610BD013AEEE7436BDC0703D5FA
:1028540001238363012010BDC52383630369DBB2B5
:102864009942F7D143693248184000285CD0002BC4
:102874002ADB5A002BD49C002BD4D9002BD41A0168
:102884002CD45C012DD4D9012ED41A022FD45C028D
:1028940030D4990231D4DA0232D45C0333D49903AC
:1028A40034D4DA0335D41C0436D4590437D49A0406
:1028B40038D413F0080F0CBF4FF480304FF40000ED
:1028C40010BD4FF0004010BD4FF0007010BD40200F
:1028D40010BD802010BD4FF4807010BD4FF4007007
:1028E40010BD4FF4806010BD4FF4006010BD4FF474
:1028F400805010BD4FF4005010BD4FF4804010BD07
:102904004FF4004010BD4FF4003010BD4FF4802050
:1029140010BD4FF4002010BD4FF4801010BD4FF4D3
:10292400001010BD4FF4800010BD00BF60000020F7
:1029340008E0FFFD84B010B503AC84E80E000499F0
:10294400039B42680B43059922F4FD420B4306990D
:1029540022F07F020B4307990B430899BDE810400E
:102964000B431343436004B000207047D0F8800049
:1029740070470B68C0F880300020704708B5032307
:1029840003600220FEF70EF9002008BD006800F085
:10299400030070470B6810B583608C684B68C2688D
:1029A4002343CC680969234322F47F620B4322F05A
:1029B4000F021343C360002010BD14304058704709
:1029C4000B6810B543624B68CC6883628B68C26A3B
:1029D40023430C69496923430B4322F0F702134351
:1029E400C362002010BD402330B587B00393002399
:1029F4000546102404934FF48063019101A90593C3
:102A04000294FFF7C7FF41F2883221462846FFF7B8
:102A140003FF07B030BD402330B587B003930023D4
:102A24000546112404934FF48063019101A9059391
:102A34000294FFF7AFFF41F2883221462846FFF7A0
:102A4400EBFE07B030BD402330B587B003930023BD
:102A54000546122404934FF48063019101A9059360
:102A64000294FFF797FF41F2883221462846FFF788
:102A7400D3FE07B030BD402330B587B003930023A5
:102A84000546182404934FF48063019101A905932A
:102A94000294FFF77FFF41F2883221462846FFF770
:102AA400BBFE07B030BD402330B587B0039300238D
:102AB4000546192404934FF48063019101A90593F9
:102AC4000294FFF767FF41F2883221462846FFF758
:102AD400A3FE07B030BD0000002330B587B0054623
:102AE40001930C24402204934FF4806301A90392C0
:102AF40005930294FFF74EFF034A21462846FFF749
:102B04008BFE07B030BD00BF00E1F505402330B5B2
:102B140087B0039300230546072404934FF480638E
:102B240001A9019205930294FFF734FF41F2883220
:102B340021462846FFF770FE07B030BD002310B5CC
:102B440086B001930293039304934FF4806301A925
:102B540005930446FFF71EFF4FF4FA520A4B1B6815
:102B6400B3FBF2F241F28833534313F1FF3307D33B
:102B7400626B1206F9D5C5230020A36306B010BD0D
:102B84004FF00040FAE700BF600000204FF4D57317
:102B940010B586B0019308230293402303930023C6
:102BA40004934FF4806301A905930446FFF7F2FEF2
:102BB4004FF4FA52134B1B68B3FBF2F241F2883321
:102BC400534313F1FF331AD3626B12F0450FF8D05D
:102BD4001205F6D4636B5B0703D50420A06306B02B
:102BE40010BD626B12F0010201D00120F6E7606BA8
:102BF40010F04000F3D040231046A363EFE74FF0FA
:102C04000040ECE760000020402330B587B0039318
:102C140000230546372404934FF48063019101A9EE
:102C240005930294FFF7B6FE41F288322146284606
:102C3400FFF7F2FD07B030BD292310B586B002932B
:102C4400402303930023044604934FF4806341F02C
:102C5400004141F48011019101A90593FFF79AFE07
:102C64002046FFF7B7FD06B010BD002330B587B08E
:102C7400054601933324402204934FF4806301A951
:102C8400039205930294FFF785FE41F288322146B0
:102C94002846FFF7C1FD07B030BD0023022210B55E
:102CA40086B00446019302920493C0224FF48063D9
:102CB40001A903920593FFF76DFE2046FFF762FD1D
:102CC40006B010BD092310B586B00293C023039348
:102CD4000023044604934FF48063019101A90593F2
:102CE400FFF758FE2046FFF74DFD06B010BD00006B
:102CF4000023032230B587B001930292049340224B
:102D04004FF480630D4601A9039205930446FFF72F
:102D140041FE4FF4FA521D4B1B68B3FBF2F241F231
:102D24008833534313F1FF3328D3626B12F0450FFA
:102D3400F8D01205F6D4636B580703D50420A063BA
:102D440007B030BD636BD90701D50120F7E72369CC
:102D5400DBB2032B15D1C523A363636913F460406D
:102D640002D11B0C2B80EBE75A040CD413F4004F54
:102D74000CBF4FF480304FF48050E1E74FF0004037
:102D8400DEE70120DCE74FF40050D9E760000020C3
:102D9400402330B587B00393002305460D240493E4
:102DA4004FF48063019101A905930294FFF7F2FDAA
:102DB40041F2883221462846FFF72EFD07B030BD88
:102DC400402330B587B003930023054606240493BB
:102DD4004FF48063019101A905930294FFF7DAFD92
:102DE40041F2883221462846FFF716FD07B030BD70
:102DF400FFF7E6BF84B001A880E80E0004B000200D
:102E04007047B0F840309BB243F43F43A0F84030E1
:102E140000207047B0F8403023F47C535B045B0C13
:102E2400A0F84030002070470020704784B010B5EF
:102E340003AC84E80E00BDE8104000220123A0F892
:102E44004030A0F84020A0F84420A0F85020B0F86A
:102E5400403004B09BB243F43F43A0F840301046E6
:102E640070470000F0B50D78034630F82520C87887
:102E740022F4EC4222F070021204120C03284ED801
:102E8400DFE800F0024A044742F40072002048F2EE
:102E94008004224323F825200E78AB4D33F82620F6
:102EA400344392B22A40224323F826200C7B0A782A
:102EB400002C40F088804E78CC8896B3B3F85060EC
:102EC40003EB021224F00104B6B202F58062A4B24C
:102ED40094530C7833F82420560609D533F824206B
:102EE40092B22A4042F4004242F0C00223F8242065
:102EF400CA780978012A33F82120944C92B202EA64
:102F0400040201D082F0200242F4004242F0800226
:102F1400CBE042F4C062B9E742F48062B6E7012034
:102F2400B5E7B3F8505003EB021224F00104ADB23C
:102F340002F58162A4B254530A78B3F850600D6963
:102F440003EB0212B6B202F20C425DBB945B24F4B2
:102F5400F8442404240C9453945B6FEA44446FEAC9
:102F64005444A4B294530C7833F8242055040DD55A
:102F740033F8242022F4E04222F070021204120CEE
:102F840042F4404242F0800223F82420097833F8C6
:102F9400212022F4804222F070021204120C82F4E6
:102FA4004052B1E73E2D05D86C08ED0748BF013407
:102FB400A402D6E76F09EC06654C08BF07F1FF379A
:102FC40044EA8724CDE733F82240A4B22C4044F4E9
:102FD400014444F0800423F822400A780C89B3F8B1
:102FE400506003EB021224F00104B6B202F58062D1
:102FF400A4B294530A784C89B3F8506003EB0212DC
:1030040024F0010402F58162A4B2B6B294534A7862
:103014000C78002A4CD133F82420520409D533F813
:10302400242092B22A4042F4404242F0800223F823
:1030340024200C7833F8242057060DD533F82420A7
:1030440022F4E04222F070021204120C42F4004214
:1030540042F0C00223F824200C7833F8242022F410
:10306400E04222F070021204120C42F4004242F0D8
:10307400C00223F8242048F280040D7833F8252078
:1030840022F4804222F070021204120C82F44052A4
:10309400224323F82520097833F8212022F4E04242
:1030A40022F040021204120C224323F82120F0BD26
:1030B40033F82420560409D533F8242092B22A4048
:1030C40042F4404242F0800223F824200C7833F882
:1030D400242052060DD533F8242022F4E04222F0B5
:1030E40070021204120C42F4004242F0C00223F8AF
:1030F40024200C78154D33F8242022F4E04222F0E9
:1031040070021204120C42F4404242F0800223F88E
:103114002420CA780C78012A33F8242092B202EAD7
:10312400050218BF82F0200242F4004242F08002FD
:1031340023F82420097833F8212022F4804222F055
:1031440070021204120CDFE68F8FFFFFBF8FFFFFA8
:103154000080FFFF10B50C7B4B780A78002C3DD122
:1031640013B330F822305C060DD530F8223023F446
:10317400E04323F070031B041B0C43F4004343F0AF
:10318400C00320F822300A7830F8223023F4E043D8
:1031940023F040031B041B0C43F4004343F080035F
:1031A40020F82230002010BD30F822305B040DD509
:1031B40030F8223023F4E04323F070031B041B0C8B
:1031C40043F4404343F0800320F822300A7830F877
:1031D400223023F4804323F07003DBE7002B4ED12D
:1031E40030F822305C040DD530F8223023F4E0436B
:1031F40023F070031B041B0C43F4404343F080038F
:1032040020F822300A7830F822305B060DD530F8E9
:10321400223023F4E04323F070031B041B0C43F41B
:10322400004343F0C00320F822300A7830F82230FB
:1032340023F4E04323F070031B041B0C43F400430A
:1032440043F0C00320F8223048F280020C7830F8B2
:10325400243023F4804323F070031B041B0C13431A
:1032640020F82430097830F8213023F4E04323F0A7
:1032740040031B041B0C134320F8213092E730F861
:1032840022305C040DD530F8223023F4E04323F0DF
:1032940070031B041B0C43F4404343F0800320F8E9
:1032A40022300A7830F822305B060DD530F822300F
:1032B40023F4E04323F070031B041B0C43F400438A
:1032C40043F0C00320F822300A7830F8223023F487
:1032D400E04323F070031B041B0C43F4404343F00E
:1032E400800320F8223048F280020C7830F8243031
:1032F40023F4E04323F040031B041B0C134320F886
:103304002430097830F8213023F4804323F070030B
:10331400AFE74B780A788BB130F8223023F4E043DE
:1033240023F040031B041B0C83F0100343F40043FD
:1033340043F0800320F822300020704730F8223018
:1033440023F4804323F070031B041B0C83F4805389
:10335400ECE70B7B43BB4B780A783BB330F8223065
:103364005B060DD530F8223023F4E04323F07003DC
:103374001B041B0C43F4004343F0C00320F8223029
:10338400CB78012B10D00A7830F8223023F4E043B4
:1033940023F040031B041B0C83F0200343F400437D
:1033A40043F0800320F822300020704730F82230A8
:1033B4005B040DD530F8223023F4E04323F070038E
:1033C4001B041B0C43F4404343F0800320F82230D9
:1033D4000A7830F8223023F4804323F070031B046E
:1033E4001B0C83F44053D9E711B98023A0F84C3067
:1033F400002070470020704700207047B0F8440058
:1034040080B270470020704700EB4202013302F59E
:1034140080625B0802EB83039A4200D1704731F863
:10342400020B22F8040BF7E770B50D464978044601
:103434000129AA692B69287B66D19A429DBF002382
:10344400AB611346D21A88BFAA619EB208BB334649
:10345400EA8869692046FFF7D7FFB4F850302A7824
:1034640099B204F2044312010B44D6522A7834F878
:10347400223023F4E04323F040031B041B0C83F0AD
:10348400300343F4004343F0800324F82230002047
:1034940070BD2B78204634F823201B0112F0400F16
:1034A400B4F8502091B215BF04F20C4204F2044265
:1034B4005218521815BFD652D6526A892A893346F1
:1034C4006969FFF7A1FF6B782A7873B934F8223061
:1034D40023F4E04323F070031B041B0C43F4004368
:1034E40043F0C00324F82230C0E7012BBED134F8E6
:1034F400223023F4E04323F070031B041B0C43F439
:10350400404343F08003EDE79A4293BF0023D21A6D
:10351400AA61AB6198BF13462A78B0B9B4F85000D9
:10352400120181B204F20C400844002B44D1835AA6
:1035340023F4F8431B041B0C8352835A6FEA43435E
:103544006FEA53439BB283523FE0A1B9B4F85000F1
:10355400120181B204F204400844E3B9815A21F40F
:10356400F8410904090C8152815A6FEA41416FEA1A
:10357400514189B2815269782A780029CED0012933
:1035840023D1B4F85010120188B204F20C41014462
:103594009BB28B5219E03E2B05D85908DE0748BF71
:1035A40001318902E5E75E09D906124908BF06F12F
:1035B400FF3641EA8621DCE73E2B12D85908DE07A4
:1035C40048BF0131890289B281522A7834F8223005
:1035D40023F4804323F070031B041B0C83F4405337
:1035E4004FE75909DB06034B08BF01F1FF3143EAFA
:1035F4008123A7E70080FFFF00EB4202F0B502F54C
:1036040080625D08084617462E46023036B9DB074D
:1036140044BF32F8253001F81530F0BD37F8044BBB
:10362400013EA4B200F8024C240A00F8014CECE775
:1036340030B50F4B5C7A012C18D800245D7AEDB2BA
:103644005C555D7A03EB85056860587A184402720C
:103654005A7AD2B2501CC0B258723A234B702F23FC
:1036640030320A708B70CC70204630BD012030BDE2
:10367400BC0300200022FFF7DBBF0000012310B5CC
:10368400054C2370FCF7F2FD234618B9227802F0AA
:10369400FE022270187810BD6C000020012310B5C2
:1036A400054C2370FCF71CFE234618B9227802F05F
:1036B400FE022270187810BD6C00002010B5084678
:1036C40011461A46074BFCF7EBFD40B1012010BD33
:1036D400013CFBD0FCF704FE0028F9D110BD024CDC
:1036E400F8E700BF00E1F505A186010010B5114B14
:1036F40088B01B781446DB071AD4032903D8DFE803
:1037040001F010050B12042008B010BD6846FCF748
:10371400F1FD069B236004E06846FCF7EBFD079B84
:1037240023800020F0E76846FCF7E4FD079BF1E7FF
:103734000320E9E76C00002010B5084611461A463C
:10374400074BFCF7BDFD40B1012010BD013CFBD08F
:10375400FCF7C6FD0028F9D110BD024CF8E700BF04
:1037640000E1F505A1860100D0F8BC3210B5D0F80F
:10377400B8425BB194F80002FF2807D09B6894F824
:10378400012221469847FF2384F80032002010BD0F
:103794004323038000487047A8000020432303808C
:1037A40000487047EC000020432303800048704722
:1037B4003C0100200A2303800048704730010020A8
:1037C40038B50546D0F8B842FDF7FCF8D5F8B8325C
:1037D400C4F80C024BB1D5F8BC3204F50371DB68B4
:1037E400D4F804029847002038BD022038BDF8B54B
:1037F400D0F8B862CEB1142303FB0103DA6982B1B5
:10380400D0F8C04204EB4114A56BB2FBF5F405FB00
:10381400142434B9DC6122462346FDF7B7F8204668
:10382400F8BD0020C6F81402F8BD0220F8BD2DE949
:10383400F7434FF000080A78054612F060040E467C
:10384400D0F8B8728DF80580ADF8068028D0202C09
:1038540047D1CC884B78E4B1120611D5D0F8BC22FC
:103864003946D2F8089018462246C847F2883946A5
:10387400284600F02EFC4446204603B0BDE8F08301
:1038840087F8003287F801422246394600F036FCB8
:10389400F1E7D0F8BC22184695682246A847EBE722
:1038A4004F780A2F0DD00B2F15D0D7B990F89C3232
:1038B400032B14D102220DF1060100F00AFC3C4650
:1038C400DAE790F89C32032B09D101220DF10501AE
:1038D40000F0FFFBD0E790F89C32032BCCD03146AC
:1038E400284600F0CFFB0224C6E738B5044600257D
:1038F4008121FDF703F80121E5622046FCF7FEFF74
:10390400C4F86C5182212046FCF7F8FFD4F8B83291
:1039140025644BB1D4F8BC325B689847D4F8B8023C
:10392400FDF758F8C4F8B852002038BD037C2DE9DF
:10393400F0410446CBBB4FF40073022281210125E0
:10394400FCF7CCFF4FF40073E562294602222046BF
:10395400FCF7C4FFC4F86C5101250823032282211B
:103964002046FCF7BBFF25644FF40770FDF72EF8E3
:103974000646C4F8B80258B30027D4F8BC321B6812
:10398400984794F81080C6F81472C6F81872B8F103
:10399400000F13D14FF40073D6F8042229462046B1
:1039A400FDF702F84046BDE8F081012540230222DC
:1039B4008121FCF793FFE5624023C6E74023D6F854
:1039C400042229462046FCF7EFFF3846BDE8F08183
:1039D4002846BDE8F08119B1C0F8BC120020704738
:1039E40002207047D0F8B8320020C3F80812C3F898
:1039F40010227047D0F8B8320020C3F80412704780
:103A0400D0F8B82210B562B1047C44B94FF4007305
:103A1400D2F804220121FCF7C7FF002010BD402387
:103A2400F6E7022010BD08B580B1D0F8B43213B166
:103A34000023C0F8B43209B1C0F8B01201230270F7
:103A440080F89C32FCF7FCFE002008BD022008BD73
:103A540019B1C0F8B412002070470220704708B5AD
:103A6400FCF72EFF002008BD08B5D0F8B4320BB91E
:103A7400022008BD1B6898470028F9D108BD08B585
:103A8400D0F8B4325B689847002008BD38B500F51B
:103A94002A750446284600F0E1FA012394F8A81296
:103AA400C4F89432B4F8AE32C4F8983201F01F036B
:103AB400012B0ED007D3022B10D001F08001204639
:103AC400FCF72AFF03E02946204600F0F5F8002021
:103AD40038BD2946204600F013FAF8E72946204667
:103AE40000F033FAF3E770B50546164649BBD0F843
:103AF4009432032B1ED1D0F86031D0F86421934264
:103B04000BD99B1A9A42C0F860318CBF9AB292B218
:103B1400314600F002FB002070BDD0F8B4321B69BE
:103B240023B190F89C22032A00D19847284600F03C
:103B3400FCFAF0E7052BEED1C5F89412FCF7ECFE85
:103B4400E9E7D0F8B4329B692BB190F89C22032AA0
:103B540001D19847DFE7022070BD70B513460446D3
:103B64000E46002947D1D0F89422022A3CD1056A96
:103B7400426A954213D9AA1A0262194692B200F017
:103B8400B5FA33461A4619462046FCF70DFF94F859
:103B9400A0320020012B3AD184F8A00270BDC36981
:103BA400B3FBF2F502FB153565B99A420AD8D0F891
:103BB4009822934206D22A4600F098FAC4F8985202
:103BC4002B46DFE7D4F8B432DB682BB194F89C229F
:103BD400032A01D12046984780212046FCF79CFE09
:103BE400204600F0ADFAD2E732F00403CFD18021B1
:103BF400FCF792FECBE7D0F8B4325B6933B190F8AE
:103C04009C22032A02D19847002070BD022070BD77
:103C1400002270B504460125402611464023FCF7D6
:103C24005DFE33468021C4F85851C4F86461002213
:103C34002046FCF753FE0021D4F8B832A561666231
:103C440084F89C52C4F894126160C4F8A41223B19D
:103C5400D4F8B43220465B689847002070BD0174E4
:103C64000020704790F89C3280F89D32042380F83D
:103C74009C320020704790F89C32042B04BF90F8CB
:103C84009D3280F89C320020704708B590F89C2241
:103C9400032A04D1D0F8B432DB6903B19847002079
:103CA40008BD10B504468021FCF736FE2046BDE869
:103CB40010400021FCF730BE37B50B78044603F002
:103CC4006003202B0D4612D0402B10D0002B5CD16A
:103CD4004B78092B58D8DFE813F0E90005015700A9
:103CE400FE005700840013005700D200A000D4F84F
:103CF400B43229469B6820469847002003B030BD63
:103D04000023ADF806304B881A0A013A062A3BD83C
:103D1400DFE802F004202D3A3A525C00D0F8B032C9
:103D24001B680DF10601207C9847BDF8062052B1AE
:103D3400EB8843B19A4228BF1A4601462046ADF8A3
:103D4400062000F0C6F9EB88002BD6D1204600F0FF
:103D5400ECF9D2E7027CD0F8B43232B99B6A0DF1A7
:103D64000600984702234370DFE7DB6AF7E7DBB21C
:103D7400052B09D8DFE803F0030C1014181CD0F845
:103D8400B0325B68002BCCD12046FFF78AFFB4E742
:103D9400D0F8B0329B68F5E7D0F8B032DB68F1E7D1
:103DA400D0F8B0321B69EDE7D0F8B0325B69E9E7CF
:103DB400D0F8B0329B69E5E7037C002BE4D1D0F85E
:103DC400B4320DF106005B6B9847AEE7037C002B21
:103DD400DAD1D0F8B4320DF106001B6B98470723F3
:103DE400C1E78B88002BCFD1CB88002BCCD14D8859
:103DF4007F2DC9D890F89C32E9B2032BC4D080F847
:103E04009E12FCF7B5FD204600F08FF91DB1022388
:103E140084F89C3271E70123FAE78978374D012948
:103E24002970B1D890F89C32022B08D0032B14D0FF
:103E3400FFF737FF29782046FFF721FE5DE70029C9
:103E440084D001210323416080F89C322046FFF78F
:103E54000BFE02287FF47AAF96E731B90223416062
:103E640080F89C32FFF70BFE70E7416801293FF4AC
:103E74006DAFC9B2FFF703FE29786160E6E7CA882F
:103E8400012A81D190F89C32002B3FF47DAF022BA4
:103E940004D9032B7FF478AF011D03E0014600230E
:103EA40041F8083F204600F014F926E790F89C32C8
:103EB400013B022B3FF668AFCB88022B7FF464AF43
:103EC4000123C360D0F8A4320BB10323C3600222E0
:103ED40004F10C01E6E74B88012B7FF40EAFC4F824
:103EE400A43233E790F89C32013B022B3FF64CAFEF
:103EF4004B88012B7FF401AF0023F0E7C8030020B7
:103F040038B50B78044603F06003202B0D4602D02D
:103F1400402B00D0B3B994F89C32013B022B10D84B
:103F24002B79012B0DD8D4F8B43229469B6820464E
:103F34009847EB881BB910B9204600F0F6F800202A
:103F440038BD2046FFF7ADFEF9E738B50A780446D8
:103F540002F06002202A0B4613D0402A11D06AB91D
:103F64005D788A88012DD1B21FD035D3032D05D1B8
:103F740090F89C22022A26D0032A0AD0FFF791FE49
:103F840005E0D4F8B42219469268204690470020F0
:103F940038BD5A882AB94A0603D0DB880BB9FCF726
:103FA400BBFC204600F0C1F8F1E790F89C22022AFD
:103FB40009D0032AE2D15B88002BE8D14D06F0D06A
:103FC400FCF7B8FCEDE74B0616D0FCF7A5FC802106
:103FD4002046FCF7A1FCDAE790F89C32022B0DD0C6
:103FE400032BCBD1142312F0800F01F00F0203FB3B
:103FF400020214D09269EAB92046BFE74906FBD110
:1040040013064FF000034FF002024CBF00F11401FD
:1040140000F5AA710B60204600F05BF8B7E7D2F810
:104024005821002AE8D001F07F0503FB050505F5BA
:10403400AA7504E001F07F0505FB0335054411F082
:104044007F0303D12B6002222946E4E72046FCF7D4
:104054007FFC08B10123F5E72860F4E70B780370CF
:104064004B784370CA788B7803EB022343804A79F8
:104074000B7903EB02238380CA798B7903EB022348
:10408400C380704710B504468021FCF745FC2046E8
:10409400BDE810400021FCF73FBC30B588B10546AF
:1040A4002B1A15F8014BDBB2002CF9D101335B005C
:1040B40013800B7003234B700223013810F8015F47
:1040C40005B930BD5A1CCD54D2B20233DBB28C5484
:1040D400F4E71346022210B5C0F89422C3610A46DD
:1040E40003620021FCF752FC002010BD08B5134602
:1040F4000A460021FCF74AFC002008BD13460322AF
:1041040010B5C0F89422C0F85C310A46C0F860319A
:104114000021FCF749FC002010BD08B513460A46EF
:104124000021FCF741FC002008BD08B50423C0F8B9
:10413400943200231A461946FCF728FC002008BDD7
:1041440008B50523C0F8943200231A461946FCF733
:104154002BFC002008BD000070B500250C4E0D4C52
:10416400A41BA410A54209D100F022F800250A4E90
:104174000A4CA41BA410A54205D170BD56F82530E5
:1041840098470135EEE756F8253098470135F2E7B0
:1041940050420008504200085042000854420008AF
:1041A40003460244934200D1704703F8011BF9E728
:1041B400F8B500BFF8BC08BC9E467047F8B500BF10
:0841C400F8BC08BC9E467047E0
:1041CC0002030405060708090A0B0C0D0E0F10104C
:1041DC000002010243444320436F6E66696700434B
:1041EC00444320496E746572666163650053544D97
:1041FC006963726F656C656374726F6E696373006B
:10420C0053544D3332205669727475616C20436F70
:10421C006D506F727400000000000000000001027D
:10422C000304060708090000000001020304000053
:10423C0081360008A1360008C13600083D37000859
:04424C00F13600083F
:044250000902000857
:04425400E501000878
:10425800610700083D0700084107000845070008F6
:10426800DD090008E90900085D0A0008790A000864
:104278001D0A0008950A0008B10A00081201000288
:1042880002020040830440570002010203010000BB
:10429800040309041A0300000000000000000000E5
:1042A8000000000000000000000000000000000006
:1042B8000024F400010000001000000001000000CC
:1042C80031390008EF3800083338000800000000D2
:1042D8006D370008F3370008C537000800000000F4
:1042E8000000000000000000A13700089537000812
:1042F800AD370008B937000809024300020100C0C1
:104308003209040000010202010005240010010521
:104318002401000104240202052406000107058285
:104328000308001009040100020A00000007050143
:104338000240000007058102400000000902430016
:10434800020100C032090400000102020100052434
:1043580000100105240100010424020205240600BE
:10436800010705820308001009040100020A000081
:104378000007050102000200070581020002000093
:104388000A0600020000004001000000090743007F
:10439800020104C0320904000001020201000524E0
:1043A800001001052401000104240202052406006E
:1043B800010705820308001009040100020A000031
:1043C80000070501024000000705810240000000C7
:0400000508000225C8
:00000001FF
