:020000040800F2
:1000000000800120C9610008D5530008D9530008B9
:10001000DD530008E1530008E5530008000000002C
:10002000000000000000000000000000E95300088C
:10003000ED53000800000000F1530008F5530008DC
:1000400011620008116200081162000811620008C4
:1000500011620008116200081162000811620008B4
:1000600011620008116200081162000811620008A4
:100070001162000811620008116200081162000894
:100080001162000811620008116200081162000884
:10009000F95300081162000811620008116200089B
:1000A0001162000811620008116200081162000864
:1000B0001162000811620008116200081162000854
:1000C0001162000811620008116200081162000844
:1000D0001162000811620008116200081162000834
:1000E0001162000811620008116200081162000824
:1000F0001162000811620008116200081162000814
:100100001162000811620008116200081162000803
:10011000116200081162000805540008116200080D
:1001200011620008116200081162000811620008E3
:1001300000000000000000000000000000000000BF
:1001400000000000000000000000000000000000AF
:10015000000000000000000000000000000000009F
:10016000000000000000000000000000000000008F
:10017000000000000000000000000000000000007F
:10018000000000000000000000000000000000006F
:10019000000000000000000000000000000000005F
:1001A000000000000000000000000000000000004F
:1001B000000000000000000000000000000000003F
:1001C000000000000000000000000000000000002F
:1001D000000000000000000000000000000000001F
:0401E0005FF8E0F1F3
:1001E40010B5054C237833B9044B13B10448AFF36D
:1001F40000800123237010BD800100200000000056
:100204008462000808B5034B1BB103490348AFF3EC
:10021400008008BD00000000840100208462000802
:1002240038B54FF47A730D490D4A09781268B3FB57
:10023400F1F30546B2FBF3F000F0A2F808B90F2D74
:1002440001D9012038BD0446024629464FF0FF304B
:1002540000F052F8034B20461D6038BD000000201A
:100264001C01002004000020074A08B5136803207D
:1002740043F01003136000F02DF80020FFF7D0FFC7
:1002840004F0A8FF002008BD00200240034A044BEC
:1002940011681B780B441360704700BFD40300201F
:1002A40000000020014B1868704700BFD4030020F1
:1002B40038B50446FFF7F6FF631C054602D0044B2D
:1002C4001B781C44FFF7EEFF401B8442FAD838BD6C
:1002D400000000204FF6FF01064A0002D36800F434
:1002E400E0600B4043F0BF6343F400330343D36047
:1002F400704700BF00ED00E0184B70B4DC68C4F335
:100304000224C4F10706042E04F1040328BF0426C2
:10031400062B17D90125033CA540013D2A400123A2
:10032400B340013B1940A140002841EA02010CDB23
:10033400090100F16040C9B200F5614080F8001382
:1003440070BC704700221446E9E7054B00F00F002B
:100354000901C9B20344197670BC704700ED00E08E
:10036400FCEC00E0002807DB012300F01F01034A36
:100374008B40400942F82030704700BF00E100E0A4
:100384000138B0F1807F0DD230B4F025002207216E
:10039400054B064C586084F82350104630BC9A60D4
:1003A400196070470120704710E000E000ED00E0A4
:1003B4002DE9F04F0C6885B0002C00F0A8804FF0B8
:1003C400000A6FF01F075346DFF81CC2DFF81C82D7
:1003D400DFF81CE206E0013334FA03F207F1040704
:1003E40000F0958001229A4002EA0405AA42F2D163
:1003F4004C68122C00F0BF8000F29D80022C00F0AB
:10040400B68040F29180032C00F0AE80112C02D112
:10041400CA6802F1040AFF2D00F2828006460268CF
:100424004FEA83090F2404FA09FB22EA0B020AFAB1
:1004340009F942EA09023260D1F8049019F0805FA8
:100444006CD0DCF8186023F0030246F00106CCF807
:100454001860DCF8186002F1804206F00106039689
:1004640002F5803203F00306DDF80CB0B600D2F8D2
:1004740008B0B4402BEA04044045019400F089809C
:10048400524CA04200F08A80514CA04200F08C8073
:10049400504CA04200F08E804F4CA04200F090805F
:1004A4004E4CA0420CBF4FF0050B4FF0060B019CC5
:1004B4000BFA06F626439660DEF8002019F4803F16
:1004C40014BF2A43AA43CEF80020DEF8042019F40E
:1004D400003F14BF2A43AA43CEF80420DEF80820C4
:1004E40019F4801F14BF2A43AA43CEF8082019F434
:1004F400001FDEF80C200DD01543CEF80C500C680C
:10050400013334FA03F207F104077FF46BAF05B04B
:10051400BDE8F08F22EA0505CEF80C500C685AE7C6
:10052400B9464268061D7DE7ACB1012C7FF473AF78
:10053400D1F80CA06FE72A4EB4420CD01FD9294E33
:10054400B44208D006F58036B44204D0A6F580162D
:10055400B4427FF460AF8C68ECB1012C0CBF026133
:1005640042614FF0080A56E74FF0000A53E7CA68A1
:1005740002F1080A4FE7CA6802F10C0A4BE7A6F534
:100584008016B442E7D006F58036B4427FF443AF18
:10059400E1E700268EE74FF0040A3CE74FF0010B39
:1005A400019C0BFA06F685E74FF0020B019C0BFA4F
:1005B40006F67FE74FF0030B019C0BFA06F679E78A
:1005C4004FF0040B019C0BFA06F673E7000C014094
:1005D400001001400014014000180140001C0140BB
:1005E40000002110000031100010024000080140FA
:1005F4000004014002B9090401617047C3680B4259
:1006040014BF416101617047002800F0A880F8B56B
:1006140090F83D30044603F0FF02002B00F08A807E
:100624002423226884F83D30136823F00103136007
:1006340000F0A4FF65684B4B9D424BD84A4B98424F
:1006440076D9421E6D00B2FBF5F20132C2F30B0201
:10065400042A38BF042245492368A1FB00015868D5
:10066400890C20F03F0008435860186A013120F0DB
:100674003F0001431962DE6926F44F4626F0FF0667
:10068400002520273243DA611968206AE26921F0E3
:10069400C00102430A431A609968E068226921F4A0
:1006A400034121F0FF0102430A439A60D968A0691B
:1006B400626921F0FF0102430A43DA601A6828469E
:1006C40042F001021A60256484F83D70256384F8C1
:1006D4003E50F8BD264B98422AD94FF496722349CE
:1006E4002368A1FB0061890C02FB01F25E68214FC3
:1006F40026F03F06A7FB027231435960196A92093A
:1007040021F03F0101320A431A62DE69A16826F42E
:100714004F4626F0FF0691B9411E05EB4505B1FB96
:10072400F5F10131C1F30B01B9B141F40042A7E77E
:100734000120F8BD80F83C2004F06EFD70E705EB65
:10074400850101EB8105411EB1FBF5F10131C1F3D6
:100754000B0111B141F4404292E7012290E70120DC
:10076400704700BFA08601007F841E0083DE1B4308
:10077400FF083D00D34D6210F0B587B0002876D055
:1007840090F82932054603F0FF02002B6AD00323B8
:100794002E4685F82932286802F002FF56F810EB3D
:1007A4006C4637460FCF0FC43B682F1D236070463D
:1007B40097E80E0002F0E2FE044630B10124022361
:1007C400204685F8293207B0F0BD0146286802F0BA
:1007D400F1FED5F804E0BEF1000F29D021464FF018
:1007E400010C224605EB41134C1C83F82810D986D2
:1007F400E1B2714583F829C083F82B209A63DA6348
:100804001A64EFD30023194605EB43125C1C03F171
:100814000A0082F82831E3B24001734582F82911B5
:1008240082F82B11C2F83811C2F83C112950EBD3CD
:100834006C460FCED5F800E00FC4336870462360D1
:1008440097E80E0002F0B8FE04460028B6D1012352
:1008540085F82400286885F8293203F033FB204604
:1008640007B0F0BD80F8282204F08CFE8FE7012445
:10087400204607B0F0BD00BF90F82822012A01D11C
:1008840002207047012110B5044680F8281204F0B4
:10089400A5FF206803F014FB206802F077FE002017
:1008A40084F8280210BD00BF2DE9F84F0446006803
:1008B40003F00AFB10F4004F206842D103F004FB5C
:1008C400460500F1D481206803F0FEFA10F4804F4D
:1008D400206807D0B0F8443023F480431B041B0C79
:1008E400A0F8443003F0F0FA10F4005F206807D059
:1008F400B0F8443023F400531B041B0CA0F844301C
:1009040003F0E2FAC50400F19481206803F0DCFAF4
:10091400000500F16581206803F0D6FA820500F134
:100924005281206803F0D0FAC30508D52268B2F8D2
:10093400443023F480731B041B0CA2F84430BDE83C
:10094400F88FDFF83494DFF834B4B0F844301F047F
:10095400B4D5B0F8441089B211F00F0558D103880A
:1009640011F010019BB27DD013F4006540F00981B1
:100974001B04EAD540F68F730288134043F08003CA
:100984000380B0F8503094F828219BB203EBC203E3
:1009940000EB4303B3F80C34C3F30903C4F8443144
:1009A40093B1D4F83C1179B1B4F82E2103F092FA42
:1009B400D4F83C31D4F84421204613442946C4F8E1
:1009C4003C3104F003FE2068B0F85030D4F83821EC
:1009D4009BB200F20C41002A40F08081CA5A22F4F2
:1009E400F8421204120CCA52CA5A92B242F4004299
:1009F400CA52038823F4804323F070031B041B0CA6
:100A040083F4405343F4004343F0800303809CE7A2
:100A140030F82560B6B2320463D4330695D530F885
:100A2400253004EB45129BB203EA090343F4004367
:100A340020F82530B0F8503092F828109BB203EB20
:100A4400C10300EB4303B3F80434D56BC3F30903C8
:100A5400166C1D445364D56366BB204604F0BEFD8A
:100A6400206872E703EA090343F400430380B0F803
:100A7400503094F828209BB203EBC20300EB4300F0
:100A8400B0F80434E26BC3F309031A446364E26309
:100A9400204604F0A3FD94F8243003B3236CF3B987
:100AA40094F82420206842F08002A0F84C2084F8B6
:100AB40024304AE74FF0000E012792F8282002F074
:100AC400070251016318283183F82820DD631E646E
:100AD4002144C3F844E083F8297003F021F8206826
:100AE40033E740F68F7330F825204FEA451813405A
:100AF40043F0800320F8253004EB080A9AF83431D7
:100B0400002B00F0D2809AF8281130F8213000EB45
:100B1400810213F4804FB0F850309BB200F0E880AB
:100B2400023303EBC10300EB4303B3F80074C7F3D0
:100B34000907002F40F01A8113889BB203EA0B03C4
:100B440043F4004343F0C003138004EB0803D3F8D9
:100B54004411D3F83C21D3F8400139443A44C3F852
:100B64004411C3F83C2120B1D3F838118F4280F0EE
:100B7400D880A044204698F8281104F027FD206866
:100B84004BE7B0F8503094F828219BB203EBC20332
:100B940000EB4303B3F80C34B4F82E21C3F3090378
:100BA400C4F8443104F50C7103F094F940F68F73E2
:100BB4002268204611880B4043F08003138004F020
:100BC400FFFC2068C1E622682046B2F8443023F4D2
:100BD40000731B041B0CA2F8443004F007FDA0E6CC
:100BE4002368B3F84020184692B242F00802A3F8F2
:100BF4004020B3F8442022F400621204120CA3F83B
:100C04004420B3F8402092B242F00402A3F84020FA
:100C140003F05AF9C10408D52268B2F8443023F429
:100C240080531B041B0CA2F84430204604F0F4FC4F
:100C340071E622682046B2F8403023F004031B0416
:100C44001B0CA2F84030B2F8403023F008031B0418
:100C54001B0CA2F8403004F0EFFC2068B0F84430DC
:100C640023F480531B041B0CA0F844304EE6226886
:100C74002046B2F8443023F480631B041B0CA2F812
:100C8400443004F0B7FC94F82832012B3FF41BAE37
:100C94000025012384F8245084F82832294620684A
:100CA40003F008F984F828520DE6B0F850309AF8A9
:100CB40028219BB2063303EBC20300EB4303B3F8D2
:100CC4000074C7F30907002F3FF43FAF3B46BAF85F
:100CD4002E21DAF83C1103F0FDF836E73E2A3AD823
:100CE4005508D70748BF0135AA0292B2CA5280E616
:100CF400063303EBC10300EB4303B3F80074C7F3FB
:100D04000907002F3FF418AF3B46BAF83221DAF84E
:100D14003C1103F0DFF89AF82831226802EB8302D1
:100D24000AE74FF0000E93F8287107F007077901DE
:100D3400631801F59471C3F8400183F82871C3F86E
:100D44003C212144C3F844E183F829E1206802F0FE
:100D5400E7FE206861E65509D606064A08BF05F194
:100D6400FF3542EA852292B2CA5242E63B46BAF8BD
:100D74003021CCE70080FFFF0F8FFFFF8F8FFFFF35
:100D840090F82822012A01D10220704710B50446A8
:100D9400012284F8241080F82822006803F08AF8DD
:100DA400002084F8280210BD70B50C0624D4002657
:100DB40001F00704650105F594710544014485F8C3
:100DC40029614D780C700A61CB7005B1CC81022B7E
:100DD40004BF00230B7190F82832012B01D10220AB
:100DE40070BD0123044680F82832006802F0FEFB3F
:100DF400002084F8280270BD012601F00704650173
:100E040005F128010544014485F82960D9E700BFAC
:100E14000B0610B51BD4002401F007035A0102F598
:100E240094710244014482F829410B7090F82832ED
:100E3400012B01D1022010BD0123044680F8283281
:100E4400006802F079FD002084F8280210BD012416
:100E540001F007035A0102F128010244014482F817
:100E64002940E2E770B5002601F007014D0144195D
:100E740005F5947584F82811C4F83C214119C4F887
:100E840040310068C4F8446184F8296102F048FEE6
:100E9400304670BD01F0070100EB4111D1F8440167
:100EA400704700BFF8B50026012701F007014D0186
:100EB4004419283584F82810E26341192364006832
:100EC40084F82970666402F02BFE3046F8BD00BF3A
:100ED40038B5436801F007059D4212D80B061DD4AE
:100EE40000244901431801F59472811883F82941BB
:100EF40001230D708B7090F828229A4203D10220AE
:100F040038BD012038BD044680F82832006802F05C
:100F140051FF65B1002084F8280238BD01226B011D
:100F240003F128010344014483F82920E0E704F590
:100F34000C71206802F0CCFFECE700BF38B54368C1
:100F440001F00F029A4214D80B061FD4002401F0BA
:100F540007035A0102F594710244014482F82941BD
:100F640000250B708D7090F82832012B03D10220DC
:100F740038BD012038BD0123044680F828320068BA
:100F840002F040FF84F82852284638BD012401F0BD
:100F940007035A0102F128010244014482F829405E
:100FA400DEE700BF11F0800F0CD001F0070100EB69
:100FB4004110283062B10122190C0381418102736E
:100FC4000020704700EB411000F59470002AF2D124
:100FD400C380027300207047002800F0F1812DE9DE
:100FE400F041036882B0DD07044630D5AC494A6855
:100FF40002F00C02042A00F025814A6802F00C0277
:10100400082A00F01B816368B3F5803F00F0678114
:10101400002B00F0E480B3F5A02F00F0C481A04BB6
:101024001A6822F480321A601A6822F480221A6044
:10103400FFF738F99A4D064605E0FFF733F9801BB0
:10104400642800F2F7802B689A03F6D523689F077B
:1010540028D5934A516811F00C0F00F08E80516826
:1010640001F00C01082900F084802369002B00F0B2
:10107400258101228B4B8A4D1A60FFF713F906462E
:1010840005E0FFF70FF9801B022800F2D3802B68DC
:101094009807F6D52B68626923F0F80343EAC20384
:1010A4002B6023681A071FD45D0741D57C4BDA698E
:1010B400D0007DD500257C4B1A68D10540F1A9806C
:1010C400E368012B00F02281002B00F0C580052B82
:1010D400734B1A6A00F0338122F001021A621A6A11
:1010E40022F004021A6216E1A369002B50D00122F7
:1010F4006E4B6B4D1A60FFF7D5F8064605E0FFF717
:10110400D1F8801B022800F295806B6A9B07F6D504
:10111400674B684A1B68A2FB03235B0A019300BF69
:10112400019B5A1E0192002BF9D123685D07BDD49F
:10113400E069D0B15A4D6A6802F00C02082A00F046
:10114400D48002284FF000015B4A00F00081116056
:10115400FFF7A8F82C46054604E0FFF7A3F8401B68
:10116400022867D823689B01F7D4002002B0BDE8A9
:10117400F0815268D6033FF578AF494A1268950763
:1011840021D52269012A1ED0012002B0BDE8F081D8
:10119400464A434D1360FFF785F8064604E0FFF71F
:1011A40081F8801B022845D86B6A9F07F7D4BCE7F7
:1011B400DA69012542F08052DA61DB6903F0805379
:1011C4000093009B77E7364960690A6822F0F802C9
:1011D40042EAC0020A601A077FF566AF84E703F1AA
:1011E400804303F504331A681D4622F480321A60E2
:1011F4001A6822F480221A60FFF754F8064604E0C5
:10120400FFF750F8801B642814D82B689B03F7D48D
:101214001CE71A681E4642F480721A60FFF742F80F
:1012240007463368DA053FF54BAFFFF73BF8C01BC1
:101234006428F6D9032002B0BDE8F0814A68D003DF
:101244007FF5E1AE164A126891037FF500AF62683C
:10125400002A7FF4FCAE97E703F1804303F50433DF
:101264001A6A1E4622F001021A621A6A41F288388A
:1012740022F004021A62FFF715F8074604E0FFF7AC
:1012840011F8C01B4045D5D8336A9807F7D4002D10
:101294003FF44EAF024AD36923F08053D36147E74A
:1012A40000100240000042420070004080044242AC
:1012B4001C010020D34D621060004242454A464D55
:1012C4001360FEF7EFFF064604E0FEF7EBFF801B1A
:1012D4000228AFD82B689907F7D42368E2E63E4A80
:1012E400136843F480331360A2E601283FF43EAF51
:1012F4006B68226A03F4803191427FF445AF606ADF
:1013040003F47013181A18BF01202FE7324A136A26
:1013140043F001031362FEF7C5FF2F4E804641F2EE
:10132400883705E0FEF7BEFFA0EB0800B84281D87D
:10133400336A9B07F6D5002D3FF4FAAEAAE742F0D4
:1013440004021A621A6A42F001021A62E3E71160A7
:10135400FEF7A8FF064605E0FEF7A4FF801B02285F
:101364003FF668AF2B689901F6D4226AB2F5803F44
:1013740028D00125184B606A5968024321F474117E
:1013840016480A435A6005601C46FEF78BFF054663
:1013940005E0FEF787FF401B02283FF64BAF2368AA
:1013A4009A01F6D5E1E603F18043A3F53C331A68CC
:1013B40042F480221A601A6842F480321A6037E6D6
:1013C400012070476B68A16823F400330B436B6002
:1013D400CFE700BF000042420010024060004242DA
:1013E40078B15E4A136803F007038B420BD213688B
:1013F40023F007030B431360136803F007039942B8
:1014040001D0012070472DE9F041036886B09D07A3
:1014140014D55C0704D5524C626842F4E062626001
:101424001A0704D54E4C626842F4605262604C4C18
:101434008568626822F0F0022A436260DB07044692
:101444000D4621D54268464B012A1B6877D0022AF3
:1014540070D0980728D5424941F288384B680E4627
:1014640023F0030313434B60FEF71CFF074604E01D
:10147400FEF718FFC01B40455FD87368626803F02D
:101484000C03B3EB820FF3D1344A136803F0070360
:101494009D420DD2136823F007032B431360136896
:1014A40003F007039D4203D0012006B0BDE8F0819C
:1014B4002368590706D52A49E0684A6822F4E0629D
:1014C40002434A601A0707D5254A2169536823F461
:1014D400605343EAC103536001260225214B06AF42
:1014E4000FCB07E90F001E4C8DF804608DF80550F2
:1014F400626802F00C03082B0AD1C2F383433B4415
:1015040013F8101CD3031DD4174B03FB01F300E0A5
:10151400164B134A164852681649C2F30312805CEC
:10152400154AC34008681360FEF77AFE002006B02F
:10153400BDE8F0819E018ED4B6E70320B5E79F0392
:1015440089D4B1E76268094BC2F3404203FB01F35B
:101554003A4412F8142CB3FBF2F3DAE70020024009
:10156400001002409C62000800093D0000127A004D
:10157400C0620008040000201C010020044B05493F
:101584005B68054AC3F30223CB5C1068D8407047FC
:1015940000100240D06200081C0100202DE9F04137
:1015A4000446006882B0C30727D53B4BDA69D700ED
:1015B4003BD53A4B00251A68D60544D5364A136AFA
:1015C40013F440730FD0616801F4407083420BD070
:1015D40001270026136A324923F440700F600E601D
:1015E400D907106246D461682B4A136A23F4407306
:1015F4000B431362002D38D1206883070DD410F0FB
:10160400100007D00020244A6169536823F4800342
:101614000B43536002B0BDE8F0811F4AA1685368D0
:1016240023F440430B435360E9E7DA69012542F0B0
:101634008052DA61DB6903F080530193019B174BFD
:101644001A68D605BAD41A681E4642F480721A6023
:10165400FEF728FE07463368D805AFD4FEF722FE0E
:10166400C01B6428F7D90320D4E7D36923F080533F
:10167400D361C1E71646FEF715FE41F2883780466E
:1016840005E0FEF70FFEA0EB0800B842EBD8336A82
:101694009A07F6D5A7E700BF00100240007000408B
:1016A400400442422DE9F04389B005468846FEF7DE
:1016B400F9FD00230646082128680093019301F0F0
:1016C40027FB044618B1204609B0BDE8F083296D14
:1016D4002868090401F04CFD04460028F3D10820D1
:1016E4004FF0FF31022201233027029103900DEBCA
:1016F40000012868069405920793049701F0F4FA10
:10170400286801F0EFFD04460028DCD1814640F250
:101714002A4704E0FEF7C6FD801B013015D0286877
:10172400436B3B42436B0BD19B02F3D501F0C0FAF0
:1017340008AB03EB890343F8200C09F10109E9E73D
:10174400190705D508248463BDE74FF00044BAE7C0
:10175400436B9A0702D502248463B4E7436B9B0668
:1017640002D520248463AEE740F23A51019A009BEB
:1017740012BA1BBA816388E80C00A4E72DE9F04F84
:101784000E4687B0044615469846FEF78BFD002E9C
:1017940034D094F83430DBB2012B08D00123A26B8F
:1017A40042F00052A263184607B0BDE8F08F074626
:1017B4000020E16D05EB08028A42A06319D80322D8
:1017C400236884F83420626C4FF40071012AD862D3
:1017D400184618BF6D0201F09BFAC0B101212268BE
:1017E4007B4D0B469563A26B1043A06384F83410C1
:1017F400D9E7A26B42F00072A263D4E70123184632
:10180400A26B42F00062A26307B0BDE8F08F4FF014
:10181400FF3190224FF0010A4FF0020904904FEA81
:1018240048230091206869460292CDF80C90CDF8C7
:1018340014A0019301F058FAD04542D9C4F830906D
:101844002946206801F0E6FA002841D140F22A3BFB
:10185400DDF804A02068436B13EA0B0F436B44D1FB
:101864001D041AD5BAF1000F17D0351D06F124094D
:1018740000E0206801F01CFA05F8040C020A030CCD
:10188400000E05F8032C05F8023C05F8010C04359C
:101894004D45EED12036AAF1200AFEF703FD109B38
:1018A400C01B8342D6D8012000212268484D03235F
:1018B4009563A26B42F00042A26384F83400216372
:1018C40071E7C4F830A02946206801F061FABBE74B
:1018D4000122002125683E4E1346AE63A56B2843C2
:1018E400A06384F8342021635DE7D9050AD5B8F1F3
:1018F400010F07D9636C032B04D001F04FFB0028C0
:10190400E6D12068426B12F008022ED1416B11F02F
:10191400020137D1436B9A0640D404361AE0BAF177
:10192400000F1AD001F0C4F9030E010A020C06F8E4
:10193400013C06F8040C06F8031C06F8022CFEF71A
:10194400B1FC109BC01B8342AAF1040A06F10406F1
:1019540030D92068436B9B02E1D440F23A53012210
:101964008363002384F834201DE701210025184AED
:101974000B468263A26B42F00802A26384F834101F
:10198400256310E7012512492B468163A16B41F0C1
:101994000201A16384F83450226304E701250C4A50
:1019A4002B468263A26B42F02002A26384F8345077
:1019B4002163F8E6012100202268054D0B4695635A
:1019C400A26B42F00042A26384F834102063EAE67A
:1019D400FF0540002DE9F0470D4688B004469046C7
:1019E4001F46FEF75FFC002D35D094F83430DBB28F
:1019F400012B08D00123A26B42F00052A2631846C7
:101A040008B0BDE8F08706460020E16D08EB070248
:101A14008A42A0631AD80322236884F83420626CB3
:101A24004FF40071012AD862184618BF4FEA4828BB
:101A340001F06EF9C0B1012221685B4D13468D633C
:101A4400A16B0843A06384F83420D8E7A26B42F06A
:101A54000072A263D3E701231846A26B42F000622E
:101A6400A26308B0BDE8F0874FF0FF339021012254
:101A740005900690029304917B0202A920680792C4
:101A8400039301F031F9012F36D920234146236312
:101A9400206801F041FA002835D140F21A39DDF806
:101AA4000CA02068436B13EA090F436B38D15A0426
:101AB40010D5BAF1000F0DD005F1200800E0206820
:101AC40055F8043B01A9019301F0F6F84545F6D118
:101AD400AAF1200AFEF7E6FB109B801B8342E0D8A4
:101AE400012100222068304D03238563A06BA0638D
:101AF40084F83410226382E710234146236320686C
:101B040001F0CAF9C7E7012200212568264E1346D1
:101B1400AE63A56B2843A06384F8342021636EE789
:101B2400DB0509D5012F07D9636C032B04D001F021
:101B340035FA0028E7D12068426B12F0080213D16D
:101B4400416B11F002011CD1436B13F0100324D03C
:101B54000125154A2B468263A26B42F01002A26350
:101B640084F8345021634AE7012100250E4A0B46CC
:101B74008263A26B42F00802A26384F834102563E6
:101B84003DE7012508492B468163A16B41F0020121
:101B9400A16384F83450226331E740F23A510122C0
:101BA400816384F834202AE7FF05400003460020BF
:101BB4005A6EF0B5940F0C70C2F38367C2F30166DA
:101BC400C2F30745C2F30724D2B24F708E70CD70B2
:101BD4000C714A719A6E150DC2F30344CD80C2F3A1
:101BE400C0370C72C2F38036C2F34035C2F30034FE
:101BF4004F728E72CD720C734873586C00286DD17D
:101C040040F6FC7001254FF40076DC6E00EA820297
:101C140042EA9472C4F3C2600A61C4F3026E0875A6
:101C2400C4F3C232C4F38240C4F3425781F815E0CE
:101C34008F75C8750A760A69087E2A4400F0070081
:101C4400023082405A65087A1E6600F00F00854013
:101C5400680A02FB00F29D65DA6500220125C4F3DF
:101C64008037C4F3C61604F07F044F768E76CC76A4
:101C74001B6F1046DC0F0C77C3F34177C3F3826606
:101C8400C3F383544F778E77C3F34057CC77C3F3B2
:101C94000046C3F3C03481F82070C3F3803E81F85A
:101CA4002120C3F3403781F82260C3F3012281F875
:101CB4002340C3F30036C3F38124C3F3460381F8FE
:101CC40024E081F8257081F8266081F8274081F8A6
:101CD400282081F8293081F82A50F0BD01280BD042
:101CE40001211A680D4C084694639A6B42F08052A5
:101CF4009A6383F83410F0BD4FF40070DC6E120464
:101D040002F47C1242EA14420A610A6998650132BB
:101D140092025A65DA6518669FE700BFFF05400026
:101D2400F0B599B0E8B190F83430044603F0FF02FE
:101D3400002B2ED00023762203260A930B930C92B9
:101D44000AAA256807CA84F834608DE80700079357
:101D54000893099307AB28460ECB00F08DFF054688
:101D640018B10125284619B0F0BD01276F4E20682F
:101D7400356000F0A7FF37602068069501F08EF902
:101D8400054650B1012384F83430A36B1D43A56389
:101D9400E7E7027703F074FACCE7206801F0A8F9CA
:101DA40040B9A7640021206801F0E2F960B14FF066
:101DB4008055E7E7A564206801F070F9002840F039
:101DC4009680A36C012BEDD04FF6FE77069BBB42A9
:101DD4001AD8574E0021206801F0CAF90546002898
:101DE400D0D13146206801F005FA0028DFD1294618
:101DF400206800F075FF069B051E03F1010306939E
:101E0400069B01DBBB42E5D94FF6FE73069A9A4264
:101E140002D94FF08075B5E70123C5F38075656479
:101E24002068ADF8163000F057FF40B94FF08060DD
:101E3400012384F83430A36B1843A06391E7636CE7
:101E4400032B0FD10421206800F04AFF000DE06449
:101E54000DA92046FFF7AAFE0546002849D04FF0F9
:101E64008050E5E7206801F07FFA0028E0D10146C0
:101E7400206800F035FF04216067206800F030FF1F
:101E84000821A067206800F02BFF0C21E067206880
:101E940000F026FF636CC4F88000032BD2D00DF150
:101EA4001601206801F0D4FA0028C1D1636C032B19
:101EB400C8D0BDF8161020682165090401F08EFA17
:101EC4000028B5D10146206800F00AFF04216066AD
:101ED400206800F005FF0821A066206800F000FFDC
:101EE4000C21E066206800F0FBFE2067AAE70546A7
:101EF40048E7226D03461204206801F08DF800289B
:101F040096D1234653F8107B261D93E807008DE8ED
:101F14000700384696E80E0000F0AEFE012328467E
:101F2400A563256384F8343019B0F0BDA0003042B5
:101F3400000010C1F0B4436C876CC66C056D446D31
:101F4400826D0B60C36D006E4F608E60CD600C615E
:101F5400C8614A610020F0BC8B6170470322F0B570
:101F6400436C8BB09342044680F834200E4616D05E
:101F7400B1F5805F13D0B1F5006F32D000293ED0A7
:101F8400836B43F000638363A56B7DB10123184623
:101F940022683949916384F834300BB0F0BDA36BE7
:101FA40043F08053A363A56B002DEFD1A06967694B
:101FB400211D0EC907960592089709900AAA049153
:101FC400266812E907008DE80700069304AB0ECBE0
:101FD400304600F051FE0123284684F834300BB01B
:101FE400F0BD0023006819460493059300F078FEC1
:101FF40080011DD53046A36B1843A063C4E7006875
:102004000491059100F06CFE820105D54FF4006047
:10201400A16B0843A063B7E704A92046FFF742FB7E
:102024000028F5D1059BDB030ED44FF08060EFE769
:1020340004A92046FFF736FB0028DCD1059B590391
:102044000ED44FF08060D6E7216D2068090401F0BA
:102054008FF80028DCD10146206801F001F9D7E7A8
:10206400216D2068090401F083F80028C3D10221FE
:10207400206801F0F5F8BEE7FF054000016D10B5DA
:1020840009040446006801F037FA014620B1A36B45
:1020940000201943A16310BD206800F021FEC0F3A5
:1020A400432010BD00283BD0F8B5002390F8511010
:1020B4000446836201F0FF0261B31A46022700213D
:1020C4000125A6686368E0683343266903436069B1
:1020D4003343E669D4F818E00343206A334326689F
:1020E40084F8517003430EF40070034330684FEAE0
:1020F4001E4E134320F040000EF0040230603360A3
:102104007260F369084623F40063F361616584F83F
:102114005150F8BD80F8502003F0FAF8A26ACDE7D8
:10212400012070472DE9F04190F8504082B0012C15
:1021340003D1022002B0BDE8F0811D46012380F8DE
:102144005030044690460F46FEF7ACF8064694F825
:102154005100C0B2012809D002200122002384F8D2
:10216400512084F8503002B0BDE8F081002FF4D043
:10217400B8F1000FF1D000230321A26884F85110B4
:10218400B2F5004F63652763A4F83680A4F8348061
:10219400A363A38763642364E387206800F0C48097
:1021A40003685A0603D4036843F040030360E368FA
:1021B400B3F5006F636836D0002B00F08B80B8F164
:1021C400010F00F087806A1C0BD01FE0236B1B7883
:1021D4000373E28E236B013A92B20133E2862363E6
:1021E4002068E38E9BB2002B38D083689B07EDD424
:1021F400FEF758F8F4E7236B1B780373E38E226B26
:10220400013B9BB20132E38622632068E38E9BB2DA
:1022140023B383689F07EED4FEF744F8801B8542FE
:10222400F3D8032099E7002B00F08380B8F1010F65
:102234007FD06B1C5FD1E38E9BB27BB183689F0719
:102244006ED5226B32F8023BC360E38E2263013BFE
:102254009BB2E386E38E9BB2002BEFD1691C0FD1B6
:1022640083681A06FCD4A2682AB90192C368019350
:1022740083680193019B606D003018BF01206CE7F7
:1022840083681B06EFD5FEF70DF8801B8542206896
:10229400E4D862684368B2F5827F23F0E0034360C8
:1022A400A2684FD0A36AB3F5005F07D1036823F493
:1022B40000530360036843F40053036001232021A7
:1022C400002584F85130636D84F850500B436365E6
:1022D4006165C9E73B780373E38E226B013B9BB2D4
:1022E40001322068E38622636DE7FDF7DBFF801B84
:1022F400A84296D22068E38E9BB2002BAED08368AE
:102304009907F2D5226B32F8023BC360E38E226355
:10231400013B9BB2E386E38E9BB2002BEFD19DE79A
:10232400FDF7C0FF206886E7036843F48043036039
:1023340036E737F8023BC360E38E2763013B9BB269
:10234400E38676E7B2F5004F02D0B2F5806FA9D1EB
:10235400036823F040030360A4E700BF2DE9F041C4
:102364000446406882B0B0F5827F884617461D4611
:102374001DD094F85000012803D1022002B0BDE81A
:10238400F081012384F85030FDF78CFF064694F861
:102394005100C0B2012800F08C80022001220023E9
:1023A40084F8512084F8503002B0BDE8F081A3686D
:1023B400002BDED1042294F8503084F85120012BF4
:1023C400DBD0012384F85030FDF76CFF94F85130D2
:1023D4000646DBB2012B626807D0B2F5827FDCD1FE
:1023E400A1680029D9D1042BD7D1B8F1000F00F08E
:1023F4004481002F00F0418194F851300021042BD6
:102404001CBF052384F8513023686165E787E7869C
:102414001868216461644106C4F83880A787C4F849
:102424003080A78603D4196841F040011960E1683F
:10243400B1F5006F00F07481002A00F03281012FA1
:1024440000F02F81691C4FF0010714D097E09A68BF
:10245400D0070DD5E28F92B252B10127DA68A36B8F
:102464001A70E38FA26B013B3A449BB2A263E387E9
:10247400FDF718FF2368E28E92B222B9E28F92B27E
:10248400002A00F0A3809A689207E0D5E28E92B207
:10249400002ADCD0002FDAD0226B002712781A73BE
:1024A400E28E236B013A591C92B22368E2862163BF
:1024B400CDE7B8F1000F3FF471AF002F3FF46EAFDA
:1024C40000230421A26884F85110B2F5004F63651B
:1024D400C4F83880E787A7872363A38623646364EB
:1024E400E386226800F0C48013685B0603D4136893
:1024F40043F040031360E368002B00F087806F1CF7
:1025040027D1E38F9BB27BB19368D8076FD5D3688B
:10251400A16B21F8023BE38FA163013B9BB2E387EC
:10252400E38F9BB2002BEFD16368B3F5827F00F099
:10253400A680681C5FD193681906FCD4606D0030D6
:1025440018BF01202AE7FDF7ADFE801B85423BD969
:102554002268E38F9BB2002BE6D09368D807F2D5AC
:10256400D368A16B21F8023BE38FA163013B9BB2CB
:10257400E387E38F9BB2002BEFD1D5E72368E28E8C
:1025840092B212B9E28F92B202B39A68910705D55A
:10259400E28E92B212B1002F40F059819A68D207AC
:1025A4000DD5E28F92B252B10127DA68A36B1A708B
:1025B400E38FA26B013B9BB23A44E387A263FDF72E
:1025C40071FE801B8542D9D80320E7E6681C40F0E1
:1025D40085809A681106FCD4A068002840F02981FF
:1025E4000190DA6801929B680193019BD6E6FDF79E
:1025F40059FE226885E793681B069FD5FDF752FEB6
:10260400801B854240F2EC80226892E7691C0BD063
:1026140020E0127BA36B1A70E28FA36B013A92B293
:102624000133E287A3632268E38F9BB2002B3FF45C
:102634007BAF9368DB07ECD4FDF734FEF3E7127B42
:10264400A36B1A70E38FA26B013B9BB20132E38749
:10265400A2632268E38F9BB2002B3FF465AF9368BB
:10266400DF07ECD4FDF71EFE801B8542F1D8ABE7F3
:10267400136823F48043136036E701208EE6A368D1
:10268400B3F5004F19D0B3F5806F7FF452AF1368E0
:1026940023F040031360691C14D19368DB07FCD456
:1026A4004CE798F800201A73E28E236B013A591C08
:1026B40092B22368E2862163C4E6136823F04003E0
:1026C400136036E79368DF077FF538AFFDF7EAFD5F
:1026D400801B854240F284802268DCE79A681206F7
:1026E4007FF57AAFFDF7DEFD801B854223683FF658
:1026F4006DAF61685A68B1F5827F22F0E0025A60DA
:1027040000F0C680A26AB2F5005F00F0B880012034
:10271400202284F85100636D1343636562653DE6CE
:10272400002A7CD0012F7AD06A1C4FF0010713D005
:102734002FE09A68D1070CD5E28F92B24AB10127F3
:10274400DB68A26B22F8023BE38FA263013B9BB2DE
:10275400E387FDF7A7FD2368E28E92B222B9E28FE8
:1027640092B2002A3FF432AF9A689007E1D5E28E24
:1027740092B2002ADDD0002FDBD0216B002731F884
:10278400022BDA60E28E2163013A92B2E286D0E74C
:102794002368E28E92B222B9E28F92B2002A3FF409
:1027A40015AF9A68920704D5E28E92B20AB1002F4F
:1027B4005AD19A68D0070CD5E28F92B24AB1012758
:1027C400DB68A26B22F8023BE38FA263013B9BB25E
:1027D400E387FDF767FD801B85427FF6F5AED7E7FB
:1027E400236861685A68B1F5827F22F0E0025A607A
:1027F40021D0A26AB2F5005F07D11A6822F4005210
:102804001A601A6842F400521A60012384F85130A5
:10281400636D43F020036365202363658EE64146C0
:1028240031F8022BDA60E28E2163013A92B2E28639
:102834007AE70020B2E5A268B2F5004F02D0B2F503
:10284400806FD6D11A6822F040021A60D1E7226B59
:10285400002712781A73E28E236B013A591C92B244
:102864002368E286216399E6216B002731F8022B65
:10287400DA60E28E2163013A92B2E28699E71A683D
:1028840022F400521A601A6842F400521A603EE7B9
:10289400A268B2F5004F03D0B2F5806F7FF432AF77
:1028A4001A6822F040021A602CE700BF00287DD08D
:1028B40038B590F83D30044603F0FF02002B4AD0AF
:1028C400022223683A4984F83D208B421A6847D093
:1028D40001F500618B4257D0B3F1804F24D0A1F5AC
:1028E40098318B4220D001F580618B421CD001F5D8
:1028F40080618B4218D001F5A0318B4218D001F5CC
:1029040080618B4214D001F580618B4210D0A1F517
:102914009E318B420CD001F580618B4208D001F5C9
:1029240080618B4208D103E0A16822F070020A435F
:10293400216922F440720A43A569E068616822F0C3
:1029440080022A431A60D8629962012200205A61E7
:1029540084F83D2038BD80F83C2002F01BFDAFE731
:10296400A16822F070020A43216922F440720A43EA
:10297400A16922F080020A431A60E268DA6262689E
:102984009A6262691A63E0E7A16822F070020A435E
:10299400216922F44072A5690A43E068616822F063
:1029A40080022A431A60D8629962EAE701207047DC
:1029B400002C01400368DA6842F00102DA609A6888
:1029C40002F00702062A03D01A6842F001021A60D4
:1029D4000020704741F211110368DA6822F0010205
:1029E400DA601A6A0A4208D140F24442196A114272
:1029F40003D11A6822F001021A600020704700BF58
:102A0400704700BF704700BF704700BF704700BFEA
:102A1400036810B51A690446910702D5DA6892076B
:102A240062D41A69500702D5DA68510749D41A6981
:102A3400120702D5DA68100731D41A69D20602D512
:102A4400DA68D00618D41A69D10702D5DA68D20731
:102A54006BD41A69100602D5DA6811066DD41A69A6
:102A6400520602D5DA68500657D41A69910602D57F
:102A7400DA68920649D410BD6FF01001082219617A
:102A8400DB69204613F4407F227761D1FFF7B8FF5A
:102A94002046FFF7B9FF002223682277D3E76FF0BF
:102AA400080104221961DB6920469907227755D170
:102AB400FFF7A6FF2046FFF7A7FF0022236822772F
:102AC400BBE76FF00401022219619B69204613F4ED
:102AD400407F22773FD1FFF793FF2046FFF794FF13
:102AE400002223682277A2E76FF002010122196114
:102AF4009B6902779B0728D1FFF782FF2046FFF7E7
:102B040083FF0022236822778BE76FF020022046A0
:102B1400BDE810401A6100F047B86FF0400220464B
:102B24001A61FFF773FF23689FE76FF001022046E5
:102B34001A6102F01FFB23688BE76FF080022046C6
:102B44001A6100F033F8236889E7FFF75BFFD8E7E1
:102B5400FFF758FF9FE7FFF755FFC1E7FFF752FF65
:102B6400ABE700BF90F83C20012A1BD00222F0B54D
:102B7400034600250126046880F83D206068A268A9
:102B8400D1F800E04F6822F0800220F0700141EAA1
:102B94000E013A4361602846A26083F83D6083F8E1
:102BA4003C50F0BD02207047704700BF704700BF23
:102BB400304B4269134043B1002A03DB510006D570
:102BC400402070474FF000707047184670479300DC
:102BD40001D580207047D10002D54FF48070704732
:102BE400130102D54FF400707047510102D54FF420
:102BF40080607047D30102D54FF400607047110222
:102C040002D54FF480507047530202D54FF4005060
:102C14007047910202D54FF480407047D30202D529
:102C24004FF400407047510302D54FF40030704711
:102C3400930302D54FF480207047D10302D54FF49B
:102C440000207047130402D54FF4801070475104DC
:102C540002D54FF400107047930402D54FF480005E
:102C6400704712F0080F14BF4FF400004FF4803087
:102C7400704700BF08E0FFFD84B010B402AC84E8E4
:102C84000E000B460399049A0B430599069C1343C3
:102C940042680B430799234322F4FD420B4322F07D
:102CA4007F0210BC1343436004B00020704700BF90
:102CB400D0F88000704700BF03460A680020C3F8BC
:102CC4008020704708B50322034602201A60FDF7EE
:102CD400EFFA002008BD00BF006800F00300704751
:102CE40014304058704700BF30B40C680A1D2CCA19
:102CF40044620C698262C26A2B434969234322F00D
:102D0400F7020B431343C36230BC0020704700BF7B
:102D140041F288331C4A10B412681C4C8160A4FB35
:102D24000221C268490A22F47F6203FB01F322F004
:102D34000F0242F48A62C26013F1FF330DD3426B77
:102D440012F0450FF8D01105F6D4436B5A0708D595
:102D5400042310BC8363184670474FF0004010BC36
:102D64007047436BDB070AD4C52383630369DBB273
:102D7400102B01D00120F2E710BCFFF719BF01238B
:102D840083631846EBE700BF1C010020D34D62109B
:102D940041F288331D4A10B412681D4C8160A4FBB3
:102DA4000221C268490A22F47F6222F00F0203FB67
:102DB40001F342F48A6242F00102C26013F1FF336C
:102DC4000DD3426B12F0450FF8D01105F6D4436BC6
:102DD4005A0708D5042310BC8363184670474FF084
:102DE400004010BC7047436BDB070AD4C5238363E0
:102DF4000369DBB2112B01D00120F2E710BCFFF70D
:102E0400D7BE012383631846EBE700BF1C010020F3
:102E1400D34D621041F288331D4A10B412681D4C20
:102E24008160A4FB0221C268490A22F47F6222F075
:102E34000F0203FB01F342F48A6242F00202C26011
:102E440013F1FF330DD3426B12F0450FF8D0110587
:102E5400F6D4436B5A0708D5042310BC8363184681
:102E640070474FF0004010BC7047436BDB070AD437
:102E7400C52383630369DBB2122B01D00120F2E77F
:102E840010BCFFF795BE012383631846EBE700BF30
:102E94001C010020D34D621041F288331C4A10B447
:102EA40012681C4C8160A4FB0221C268490A22F406
:102EB4007F6203FB01F322F00F0242F48B62C260D3
:102EC40013F1FF330DD3426B12F0450FF8D0110507
:102ED400F6D4436B5A0708D5042310BC8363184601
:102EE40070474FF0004010BC7047436BDB070AD4B7
:102EF400C52383630369DBB2182B01D00120F2E7F9
:102F040010BCFFF755BE012383631846EBE700BFEF
:102F14001C010020D34D621041F288331D4A10B4C5
:102F240012681D4C8160A4FB0221C268490A22F484
:102F34007F6222F00F0203FB01F342F48B6242F042
:102F44000102C26013F1FF330DD3426B12F0450F3F
:102F5400F8D01105F6D4436B5A0708D5042310BCE6
:102F64008363184670474FF0004010BC7047436BB2
:102F7400DB070AD4C52383630369DBB2192B01D0B1
:102F84000120F2E710BCFFF713BE01238363184648
:102F9400EBE700BF1C010020D34D621000221B4B45
:102FA400826019681A4BC268A3FB0131194B22F4E1
:102FB4007F62490A22F00F0203FB01F342F48962A3
:102FC40042F00402C2606BB1426B013B12F0450F48
:102FD400F9D01105F7D4436B5A0706D5042383634C
:102FE400184670474FF000407047436BDB0709D425
:102FF400C52383630369DBB20C2B01D00120704726
:10300400FFF7D6BD01238363184670471C010020D7
:10301400D34D621000E1F50541F288331D4910B427
:1030240009681D4C8260A4FB0121C268490A22F48C
:103034007F6222F00F0203FB01F342F4886242F044
:103044000702C26013F1FF330DD3426B12F0450F38
:10305400F8D01105F6D4436B5A0708D5042310BCE5
:103064008363184670474FF0004010BC7047436BB1
:10307400DB070AD4C52383630369DBB2072B01D0C2
:103084000120F2E710BCFFF793BD012383631846C8
:10309400EBE700BF1C010020D34D6210014610B4C1
:1030A400002441F288331048104A00688C60A2FB67
:1030B4000020CA68400A22F47F6222F00F0242F420
:1030C400806203FB00F3CA6002E04A6B120606D476
:1030D40013F1FF33F9D24FF0004010BC7047C52301
:1030E40000208B6310BC70471C010020D34D62107C
:1030F400014610B44FF4D57441F288331A481B4A80
:1031040000688C60A2FB0020CA68400A22F47F6237
:1031140003FB00F322F00F0242F48962CA6013F148
:10312400FF330CD34A6B12F0450FF8D01205F6D4D6
:103134004B6B5B0707D50420886310BC70474FF0C6
:10314400004010BC7047486B10F0010008D14B6B75
:1031540013F0400302D040238B63F2E71846F0E7F4
:1031640001208863EDE700BF1C010020D34D6210ED
:1031740041F288331D4A10B412681D4C8160A4FBCF
:103184000221C268490A22F47F6222F00F0203FB83
:1031940001F342F48E6242F00702C26013F1FF337E
:1031A4000DD3426B12F0450FF8D01105F6D4436BE2
:1031B4005A0708D5042310BC8363184670474FF0A0
:1031C400004010BC7047436BDB070AD4C5238363FC
:1031D4000369DBB2372B01D00120F2E710BCFFF703
:1031E400E7BC012383631846EBE700BF1C01002002
:1031F400D34D621030B4044641F28833164A174D59
:10320400126841F0004040F48010A5FB0221A06048
:10321400E268490A22F47F6222F00F0203FB01F301
:1032240042F48D6242F00102E26013F1FF330FD3E6
:10323400626B12F0450FF8D01205F6D4606B10F0F3
:10324400040015BF0420C523A063A36330BC7047EA
:103254004FF0004030BC70471C010020D34D621079
:1032640041F288331D4A10B412681D4C8160A4FBDE
:103274000221C268490A22F47F6222F00F0203FB92
:1032840001F342F4886242F00602C26013F1FF3394
:103294000DD3426B12F0450FF8D01105F6D4436BF1
:1032A4005A0708D5042310BC8363184670474FF0AF
:1032B400004010BC7047436BDB070AD4C52383630B
:1032C4000369DBB2062B01D00120F2E710BCFFF743
:1032D4006FBC012383631846EBE700BF1C01002089
:1032E400D34D621010B4002441F288331C491D4AA6
:1032F40009688460A2FB0121C268490A22F47F6242
:1033040022F00F0203FB01F342F48E6242F0030247
:10331400C26013F1FF330DD3426B12F0450FF8D0A6
:103324001105F6D4436B5A0708D5042310BC8363F4
:10333400184670474FF0004010BC7047436BDB07E2
:103344000AD4C52383630369DBB2332B01D0012084
:10335400F2E710BCFFF72CBC012383631846EBE7AC
:103364001C010020D34D6210014610B4002441F228
:1033740088331848184A00688C60A2FB0020CA6889
:10338400400A22F47F6222F00F0203FB00F342F4AE
:10339400986242F00202CA6013F1FF330CD34A6B05
:1033A40012F0450FF8D01205F6D44B6B5B0707D526
:1033B4000420886310BC70474FF0004010BC704775
:1033C400486B10BC10F0010015BF0120C5238863B1
:1033D4008B6370471C010020D34D621010B4044667
:1033E40041F28833184A19481268A160A0FB0221EF
:1033F400E268490A22F47F6222F00F0203FB01F320
:1034040042F4996242F00102E26013F1FF330CD3FB
:10341400626B12F0450FF8D01205F6D4636B5B07AC
:1034240007D50420A06310BC70474FF0004010BCC7
:103434007047606B10F0010015BF0120C523A06325
:10344400A36310BC704700BF1C010020D34D621061
:1034540030B4002541F28833254C264A246885601F
:10346400A2FB0424C268640A22F47F6222F00F02E1
:1034740003FB04F342F4886242F00302C26013F1D6
:10348400FF330DD3426B12F0450FF8D01205F6D47A
:10349400436B5D0708D530BC04238363184670472B
:1034A4004FF0004030BC7047436BDC0710D4036915
:1034B400DBB2032B01D00120F4E7C5238363436906
:1034C40013F4604008D05A0409D54FF40050E9E7DA
:1034D400012383631846E5E71B0C0B80E2E713F432
:1034E400004F0CBF4FF480304FF48050DAE700BF38
:1034F4001C010020D34D621041F288331D4A10B4E0
:1035040012681D4C8160A4FB0221C268490A22F49E
:103514007F6222F00F0203FB01F342F4896242F05E
:103524000502C26013F1FF330DD3426B12F0450F55
:10353400F8D01105F6D4436B5A0708D5042310BC00
:103544008363184670474FF0004010BC7047436BCC
:10355400DB070AD4C52383630369DBB20D2B01D0D7
:103564000120F2E710BCFFF723BB01238363184655
:10357400EBE700BF1C010020D34D621084B001A80A
:1035840080E80E0004B00020704700BF0246B0F887
:10359400403000209BB243F43F43A2F840307047D0
:1035A40044F2FF030246B0F8401000200B40A2F89A
:1035B400403070470020704784B070B40446012541
:1035C4000020A4F84050A4F84000A4F84400A4F853
:1035D4005000B4F8405004AEADB245F43F45A4F8F1
:1035E400405086E80E0070BC04B07047034670B4C7
:1035F4000D78C87833F8252022F4EC4222F07002CA
:103604001204120C032800F27881DFE800F0574F0F
:103614000253002048F28004224323F825200E7828
:10362400C34D33F82620344392B22A40224323F870
:1036340026200A7B002A40F090804A78002A41D054
:103644000A78CC88B3F8506003EB021224F001042A
:1036540002F58062A4B2B6B294530C7833F82460B5
:1036640003EB840276060CD533F8242092B215407D
:1036740045F4004545F0C00523F824500A7803EBCF
:103684008202CB78012B138823F4E04323F0400318
:103694004FEA03434FEA134358D070BC83F020032E
:1036A40043F4004343F080031380704742F4806284
:1036B4000020AFE742F4C0620020ABE742F400729E
:1036C4000020A7E70A78CC88B3F8505003EB021225
:1036D40024F0010402F58162A4B2ADB254530A7815
:1036E400B3F850400D6903EB021202F20C42A4B28B
:1036F400002D00F004813E2D00F20F816E08ED07CD
:1037040048BF0136B602B6B216530C7833F82450CB
:1037140003EB84026D0410D533F8242022F4E04234
:1037240022F070021204120C42F4404242F0800271
:1037340023F824200A7803EB8202138823F48043BD
:1037440023F070031B041B0C83F4405343F4004325
:1037540043F08003138070BC70470C7833F8242046
:1037640092B22A4042F4014242F0800223F824201B
:103774000A780C89B3F8506003EB021224F00104B8
:1037840002F58062A4B2B6B294530A784C89B3F8B5
:10379400506003EB021224F0010402F58162B6B218
:1037A400A4B294534A780E78002A4ED133F82620D6
:1037B40003EB860452040CD533F8262092B215404C
:1037C40045F4404545F0800523F826500C7803EB7A
:1037D4008404228855060ED5228822F4E04222F081
:1037E40070021204120C42F4004242F0C002228021
:1037F4000C7803EB840448F28005228822F4E0422A
:1038040022F070021204120C42F4004242F0C00290
:1038140022800C7833F8242022F4804222F07002B3
:103824001204120C82F440522A4323F8242009780B
:1038340033F8212022F4E04222F040021204120C58
:103844002A4323F8212070BC704733F8262003EB69
:10385400860452040CD533F8262092B2154045F460
:10386400404545F0800523F826500C7803EB84048A
:10387400228852060ED5228822F4E04222F07002F9
:103884001204120C42F4004242F0C00222800C786E
:1038940003EB8404228822F4E04222F07002120432
:1038A400120C42F4404242F080022280CA780C7822
:1038B400012A33F8242022F4E04222F040024FEAA5
:1038C40002424FEA124218BF82F0200242F4004240
:1038D40042F0800223F82420097870BC33F82120B8
:1038E40022F4804222F070021204120C42F40042CC
:1038F40042F0800223F82120704701208AE6155BFC
:1039040025F4F8452D042D0C1553155B6FEA454538
:103914006FEA5545ADB21553F7E66E09ED06054D50
:1039240008BF06F1FF3645EA8625ADB21553ECE62D
:103934008F8FFFFF0080FFFF0B7B10B453BB4B78CE
:103944000C78002B00F0BF8030F8243000EB8402A8
:103954005B0610D530F8243023F4E04323F07003E1
:103964001B041B0C43F4004343F0C00320F8243031
:103974000A7800EB8202138823F4E04323F0400327
:103984001B041B0C43F4004343F08003002013800A
:1039940010BC70474B780C78002B51D130F8243090
:1039A40000EB84025B0410D530F8243023F4E043A8
:1039B40023F070031B041B0C43F4404343F08003C7
:1039C40020F824300A7800EB820213885C060ED5B6
:1039D400138823F4E04323F070031B041B0C43F40B
:1039E400004343F0C00313800A7800EB820248F2DC
:1039F4008004138823F4E04323F070031B041B0C9E
:103A040043F4004343F0C00313800A7830F82230B3
:103A140023F4804323F070031B041B0C234320F87E
:103A240022300A7830F8223023F4E04323F04003B4
:103A34001B041B0C234320F8223010BC00207047C9
:103A440030F8243000EB84025B0410D530F82430C5
:103A540023F4E04323F070031B041B0C43F44043A2
:103A640043F0800320F824300A7800EB82021388A4
:103A74005B0645D448F28004138823F4E04323F022
:103A840070031B041B0C43F4404343F08003138076
:103A94000A7830F8223023F4E04323F040031B0477
:103AA4001B0C234320F822300A7830F8223023F408
:103AB400804323F070031B041B0C234320F82230A3
:103AC40010BC0020704730F8243000EB84025B0403
:103AD40010D530F8243023F4E04323F070031B04A2
:103AE4001B0C43F4404343F0800320F824300A784D
:103AF40000EB8202138823F4804323F070033FE732
:103B0400138823F4E04323F070031B041B0C43F4D9
:103B1400004343F0C00313800A7800EB8202A9E754
:103B24004A7870B4012A8B6963D00C69A34292BFAE
:103B340000251D1B23460C7B8D6144BBB0F850400F
:103B44000A78A4B200F20C452C441201002B00F0B8
:103B54008F803E2B00F2CB805D08DE0748BF013525
:103B6400AD02ADB2A5520A7870BC30F8223023F40D
:103B7400804323F070031B041B0C83F4405343F471
:103B8400004343F0800320F8223000207047002ACD
:103B9400E9D1B0F850400A78A4B200F204452C44AC
:103BA4001201002B40F0AE80A55A25F4F8452D04EF
:103BB4002D0CA552A55A6FEA45456FEA5545ADB29D
:103BC400A5524A78002A40F0E480B0F850200C78DE
:103BD40093B200F20C421A442401A35A23F4F8438A
:103BE4001B041B0CA352A35A9BB243F40043A352DD
:103BF400B9E70A69934292BF00249C1A13460A7BD0
:103C04008C61002A42D00A7830F82240B0F8505033
:103C1400640640F18D80ADB200F20C442C441201D4
:103C24009DB2A5524D899AB201324B6900F5806468
:103C3400520804EB450418BF03EB420205D033F8E5
:103C4400025B9A4224F8045BF9D14B78002B78D1BB
:103C54000A7830F8223023F4E04323F070031B0485
:103C64001B0C43F4004343F0C00320F822302AE045
:103C7400A35A23F4F8431B041B0CA352A35A6FEA60
:103C840043436FEA53439BB2A3526CE79EB2CD8881
:103C940001369AB24B6900F58064760804EB45045A
:103CA40018BF03EB460605D033F8025BB34224F891
:103CB400045BF9D1B0F850300C789DB200F20443A3
:103CC4002B442401E2520A7870BC30F8223023F4E9
:103CD400E04323F040031B041B0C83F0300343F444
:103CE400004343F0800320F82230002070475D0930
:103CF400DB062F4B08BF05F1FF3543EA85239BB252
:103D0400A35230E73E2B2ED85D08DE0748BF0135AD
:103D1400AD02ADB2A5524A78002A3AD1B0F850208B
:103D24000B7894B200F20C4222441B01D5521AE7DC
:103D3400ADB200F204442C4412019DB2A5520D8987
:103D440071E7012BBFD10A7830F8223023F4E04325
:103D540023F070031B041B0C43F4404343F0800323
:103D640020F82230AFE75E09DD06114D08BF06F1E9
:103D7400FF3645EA8625ADB2A5524A784AB9B0F86D
:103D840050300A789CB200F20C4323441201D552FD
:103D9400E9E6012A7FF4E7AEB0F850200C7895B23A
:103DA40000F20C429BB22A442401A352DBE600BF7A
:103DB4000080FFFF4B780A788BB930F8223023F467
:103DC400804323F070031B041B0C83F4805343F4DF
:103DD400004343F0800320F822300020704730F87D
:103DE400223023F4E04323F040031B041B0C83F034
:103DF400100343F4004343F0800320F822300020F2
:103E0400704700BF0B7BD3B94B78D3B10A7830F835
:103E140022305B063FD4CB78012B10D00A7830F8DF
:103E2400223023F4E04323F040031B041B0C83F0F3
:103E3400200343F4004343F0800320F822300020A1
:103E4400704710B40C7830F8243000EB84025B0423
:103E540010D530F8243023F4E04323F070031B041E
:103E64001B0C43F4404343F0800320F824300A78C9
:103E740000EB82021388002023F4804323F07003B4
:103E84001B041B0C83F4405343F4004343F08003AE
:103E9400138010BC704730F8223023F4E04323F041
:103EA40070031B041B0C43F4004343F0C00320F8CD
:103EB4002230B0E711B98023A0F84C3000207047BD
:103EC4000020704700207047B0F8440080B270476B
:103ED4000020704700EB4202580802F5806219D0B6
:103EE400F0B5174606468D1C37F8044B013EA4B2C4
:103EF4004FEA142E05F8024C05F801EC05F1020511
:103F0400F2D101EB400102EB8002D80744BF1388D1
:103F14000B70F0BDDB0744BF13880B70704700BF04
:103F2400D0F8BC3210B5D0F8B8425BB194F80002B6
:103F3400FF2807D09B6894F8012221469847FF2365
:103F440084F80032002010BD4323038000487047EA
:103F54004000002043230380004870478400002071
:103F64004323038000487047D40000200A230380C1
:103F740000487047C800002038B50446D0F8B8524D
:103F840001F022FCD4F8B832C5F80C024BB1D4F8D5
:103F9400BC3205F50371DB68D5F8040298470020AC
:103FA40038BD022038BD00BFF8B5D0F8B8629EB164
:103FB40001EB810200EB8202D7694FB1D0F8C03225
:103FC40003EB4115AB6BB7FBF3F403FB14742CB197
:103FD4000020C6F81402F8BD0220F8BDD4612346BF
:103FE400224601F0D5FB2046F8BD00BF2DE9F04183
:103FF40000240B7882B013F060080D460646D0F812
:10400400B8728DF80540ADF806401CD0B8F1200F09
:1040140013D1B1F80680B8F1000F46D01B062BD49B
:104024004B78424687F8003287F80182394600F01F
:1040340009FD204602B0BDE8F08100F0BDFC02207D
:1040440002B0BDE8F0814C780A2C23D00B2C0DD0A3
:10405400002CF2D190F89C32032B2ED03046294606
:1040640000F0AAFC022002B0BDE8F08190F89C3276
:10407400032BF3D14046E3E7D0F8BC3242469B68B9
:10408400394668789847EA883946304600F0C4FCD7
:104094002046D5E790F89C32032BDFD101220DF1A5
:1040A400050100F0B9FC4046CAE7D0F8BC324246EC
:1040B40048789B6898474046C2E702220DF1060102
:1040C40000F0AAFC2046BBE738B504460025812150
:1040D40001F016FB0121E562204601F011FBC4F852
:1040E4006C512046822101F00BFBD4F8B8322564D0
:1040F4004BB1D4F8BC325B689847D4F8B80201F0ED
:104104006BFBC4F8B852002038BD00BF037C2DE916
:10411400F04104460125BBBB4FF400730222812108
:1041240001F0DEFAE56229464FF4007302222046CC
:1041340001F0D6FAC4F86C51012708230322822126
:10414400204601F0CDFA27644FF4077001F040FBDC
:104154000546C4F8B80268B30026D4F8BC321B681C
:10416400984794F81080D5F80422C5F814623946AB
:10417400C5F818622046B8F1000F14D0402301F0AE
:1041840015FB3046BDE8F08140230222812101F075
:10419400A7FAE562294640230222204601F0A0FA4C
:1041A400C4F86C51C8E74FF4007301F0FFFA4046BD
:1041B400BDE8F0813846BDE8F08100BF19B1C0F810
:1041C400BC12002070470220704700BFD0F8B832FC
:1041D4000020C3F80812C3F810227047D0F8B83290
:1041E4000020C3F804127047D0F8B8229AB138B549
:1041F400D2F814420CB1012038BD0123D2F8105278
:10420400C2F814328121ABB20563D2F8082201F05E
:10421400BFFA204638BD0220704700BFD0F8B8224C
:104224008AB110B5047CD2F804222CB140230121B8
:1042340001F0BCFA002010BD4FF40073012101F01D
:10424400B5FA204610BD0220704700BF88B108B5FA
:10425400D0F8B43213B10023C0F8B43209B1C0F8B5
:10426400B0120123027080F89C3201F0E9F90020B9
:1042740008BD0220704700BF19B1C0F8B412002075
:1042840070470220704700BF08B501F01BFA0020F8
:1042940008BD00BF08B5D0F8B43213B11B68984705
:1042A40008B1022008BD08BD08B5D0F8B4325B6877
:1042B4009847002008BD00BF38B5044600F52A75AC
:1042C400284600F065FB012094F8A812B4F8AE2249
:1042D40001F01F038342C4F89402C4F8982215D055
:1042E4000ED3022B06D001F08001204601F016FA0D
:1042F400002038BD2946204600F0A2FA002038BD2F
:104304002946204600F0F6F8002038BD294620460C
:1043140000F060FA002038BD70B5054641B9D0F808
:104324009432032B0ED0052B0C462AD0002070BDEE
:10433400D0F8B4329B691BB190F89C22032A26D092
:10434400022070BD1646D0F86031D0F86421934243
:104354000AD99B1A9A42C0F860318CBF9AB292B2C1
:10436400314600F07FFBE1E7D0F8B4321B691BB1A2
:1043740090F89C22032A0DD0284600F07BFB0020F5
:1043840070BDC5F8941201F0C9F9204670BD984774
:10439400002070BD9847EFE770B5044669B913462D
:1043A400D0F89422022A1DD032F004030FD094F8DE
:1043B400A0320020012B12D070BDD0F8B4325B695A
:1043C4001BB190F89C22032A40D0022070BD8021AA
:1043D40001F0A4F994F8A0320020012BECD184F868
:1043E400A00270BD066A426A964227D8C369B3FB2D
:1043F400F2F502FB15358DB99A420FD8D0F8982200
:1044040093420BD22A4600F015FBC4F898522B466F
:104414002A462946204601F0C9F9C8E7D4F8B4323F
:10442400DB681BB194F89C22032A12D08021204619
:1044340001F074F9204600F029FBB8E7B21A0D46E2
:104444000262194692B200F0F5FAE0E798470020BC
:1044540070BD20469847E9E770B50022402604461F
:1044640001251146334601F03BF933468021C4F857
:104474005851C4F864612046002201F031F900214A
:10448400D4F8B832A561666284F89C52C4F89412D8
:104494006160C4F8A41223B1D4F8B43220465B6836
:1044A4009847002070BD00BF01740020704700BF12
:1044B4000346042290F89C12002083F89D1283F88E
:1044C4009C22704790F89C32042B04BF90F89D32D4
:1044D40080F89C320020704790F89C22032A01D077
:1044E4000020704708B5D0F8B432DB6903B19847AF
:1044F400002008BD30B50B7883B003F06003202B97
:104504000C46054616D0402B14D04BB1802101F047
:1045140005F92846002101F001F9002003B030BD5F
:104524004B78092B19D8DFE803F043591867186D45
:104534008918A323D5F8B43221469B6828469847A6
:10454400002003B030BD79B301210323416080F81A
:104554009C32FFF79FFE022826D18021284601F0D5
:10456400DDF82846002101F0D9F8002003B030BD61
:104574008978974C01292170EFD890F89C32022B4E
:10458400E1D0032B40F00081002900F0168141683E
:10459400012909D0C9B2FFF787FE2178284669604E
:1045A400FFF778FE0228D8D0284600F063FAB4E773
:1045B40090F89C320322013B022BCED8CB88022BED
:1045C400CBD10121D0F8A432C16003B1C260022270
:1045D40005F10C01284600F01FFA9EE790F89C3282
:1045E400013B022BB9D84B88012B96D10023C0F88C
:1045F400A43200F03FFA90E74B88012B8DD1C0F82C
:10460400A432D1E78B88002BA7D1CB88002BA4D16F
:104614004C887F2CA1D890F89C32E1B2032B9CD01B
:1046240080F89E1201F0A6F8284600F023FA002C28
:1046340000F0BF80022385F89C326EE700234A888D
:10464400ADF80630130A013B062B86D801A151F8B8
:1046540023F000BF1D47000805470008F346000883
:104664005F4500085F450008DD46000899460008DC
:10467400CA88012A7FF471AF90F89C32002B3FF472
:104684006CAF022B79D9032B7FF467AF011D00F0C7
:10469400C3F942E7037C002B7FF45FAFD0F8B43258
:1046A4000DF106001B6B984707234370BDF80630D5
:1046B4006BB1E288002A3FF477AF934228BF1346D8
:1046C40001461A462846ADF8063000F0A5F9E388FD
:1046D400002B7FF422AF67E7037C002B7FF43DAF10
:1046E400D0F8B4320DF106005B6B9847DEE7D2B226
:1046F400052A3FF632AFDFE802F03A342E282217BB
:10470400037C002B4CD1D0F8B4320DF106009B6A27
:10471400984702234370C9E7D0F8B0320DF106017F
:104724001B68007C9847C1E7D0F8B0329B69002B26
:104734003FF413AF0DF10601287C9847B6E7D0F893
:10474400B0325B69002BF5D107E7D0F8B0321B69B2
:10475400002BEFD101E7D0F8B032DB68002BE9D1B0
:10476400FBE6D0F8B0329B68002BE3D1F5E6D0F835
:10477400B0325B68002BDDD1EFE60023014641F83F
:10478400083F00F049F9C8E6802100F0C7FF002186
:10479400284600F0C3FF21782846FFF785FDBCE6D4
:1047A400D0F8B4320DF10600DB6A98470223437057
:1047B4007CE7012385F89C32AFE60223416080F850
:1047C4009C32FFF771FD284600F054F9A5E600BFBE
:1047D4009C01002038B50B780D4603F06003202BB4
:1047E40004460BD0402B09D043B1802100F096FF42
:1047F4002046002100F092FF002038BD94F89C323E
:10480400013B022B02D82B79012B09D980212046A8
:1048140000F084FF2046002100F080FF002038BD16
:10482400D4F8B43229469B6820469847EB88002B7D
:10483400F4D10028F2D1204600F01CF9EEE700BFC5
:1048440070B50C78054604F06004202C25D0402C6B
:1048540023D044B1802100F061FF2846002100F0FC
:104864005DFF002070BD4B788A88012BD6B244D0FE
:104874001AD3032B47D190F89C32022B4CD0032B34
:1048840041D14B88002B59D1720657D0CB88002BCD
:1048940054D1314600F042FF50E0D5F8B4322846F6
:1048A4009B689847002070BD90F89C32022B52D030
:1048B400032B28D106F00F0303EB8303120600EB4E
:1048C400830357D4D3F85831002B3BD006F07F0331
:1048D40003EB830400EB840404F5AA7433B131467A
:1048E400284600F037FF00284FD0012323602146DB
:1048F4002846022200F090F8B3E790F89C32022B8D
:104904000AD0032B12D0802100F008FF214628464C
:1049140000F004FF002070BD730613D0314600F090
:10492400FDFE2846802100F0F9FE9AE74B88002B13
:1049340097D1740602D0314600F0FEFE284600F0FE
:1049440099F88EE78021284600F0E8FE28460021E9
:1049540000F0E4FE85E77006F4D1002311064CBF95
:1049640005F1140105F5AA7128460B60022200F036
:1049740053F876E79B69002BE4D006F07F035C1CB8
:1049840004EB840400EB8404A8E72060AFE700BFD5
:104994000B7803704B784370CA788B7803EB02234F
:1049A40043804A790B7903EB02238380CA798B799C
:1049B40003EB0223C380704710B50446802100F046
:1049C400ADFE2046BDE81040002100F0A7BE00BFA8
:1049D400F8B1037830B4EBB10446002314F8015F56
:1049E4000133DBB2002DF9D15B00023303241380C1
:1049F4000B704C7004785CB1022300255A1CD2B2AF
:104A0400CC548D5410F8014F0233DBB2002CF5D195
:104A140030BC70470223E9E738B5134602250A463D
:104A2400C3610362C0F89452002100F0B1FE00207B
:104A340038BD00BF08B513460A46002100F0A8FEA1
:104A4400002008BD38B5134603250A46C0F85C317A
:104A5400C0F86031C0F89452002100F0A7FE002095
:104A640038BD00BF08B513460A46002100F09EFE7B
:104A7400002008BD08B504220023C0F8942219467A
:104A84001A4600F085FE002008BD00BF08B50522C7
:104A94000023C0F8942219461A4600F087FE00202D
:104AA40008BD00BF012310B5054C237000F09EF82B
:104AB40018B9237803F0FE032370207810BD00BFDB
:104AC40017010020012310B5054C237000F0CEF827
:104AD40018B9237803F0FE032370207810BD00BFBB
:104AE4001701002010B5084611461A46074B00F07E
:104AF40099F840B9064C01E0013C04D000F0B6F846
:104B04000028F9D110BD012010BD00BF00E1F5055A
:104B1400A1860100144B1B78DB0701D503207047E5
:104B240010B5144688B003291BD8DFE801F002133E
:104B34000C05002008B010BD684600F0A1F8079BE2
:104B440000202360F6E7684600F09AF8079B0020EF
:104B54002380EFE7684600F093F8069B002023606B
:104B6400E8E70420E6E700BF1701002010B5084677
:104B740011461A46074B00F067F840B9064C01E0AD
:104B8400013C04D000F072F80028F9D110BD0120D6
:104B940010BD00BF00E1F505A1860100124B5A7A51
:104BA400012A01D901207047F0B500243A272F26A5
:104BB40093F809C093F809E05D7A5A7A03EB8E0EF4
:104BC400D2B2CEF80400501C5FFA8CFC1D44C0B273
:104BD40058722C7203F80C40303220460A70CC70A4
:104BE4004F708E70F0BD00BFA0010020012000B501
:104BF40083B08DF807009DF80730834202D003B0DC
:104C04005DF804FB0648FDF78BF80028F7D14FF454
:104C140000610348FDF7A2F9003018BF0120EEE758
:104C240028A5002000B583B0009313460A46014628
:104C34000448FCF7A3FD003018BF012003B05DF861
:104C440004FB00BF28A5002000B583B000931346E1
:104C54000A4601460448FCF7BDFE003018BF012097
:104C640003B05DF804FB00BF28A5002008B5034885
:104C7400FDF704FA043818BF012008BD28A5002058
:104C840001460148FDF756B928A5002000200D4A29
:104C94000D4BD16821F08071D160D16841F08071F1
:104CA400D1601A6822F001021A601A6842F0010207
:104CB4001A60586000BF00BF00BF5868B0FA80F0A7
:104CC40040097047F0ED00E0001000E008B503492A
:104CD4000348FFF763FF034B187008BDDC03002093
:104CE400AC620008D803002030B597B00CA8282285
:104CF400002101F0BCFA002401224FF48033022584
:104D04004FF4E0110CA80C9210920D93149315918A
:104D140001940694029403940494059407940894CB
:104D240009940A940B941395FCF756F90F224FF447
:104D34008063294601A80192049302950394059483
:104D4400FCF74EFB102306A80B940693FCF726FCF5
:104D540017B030BD2DE9F04F0024B14B8BB01C705F
:104D6400FBF782FAFFF7C0FFAE4B06940794089452
:104D740009949969012641F02001996198692246B4
:104D840000F02000029002989D69FF2145F0100573
:104D94009D619D69A44805F010050395039D9D69D7
:104DA400A24F45F004059D619D6905F00405049535
:104DB400049D9D6945F008059D619B69022503F0EA
:104DC40008030593059BFBF715FC224648F2FF7187
:104DD4009748FBF70FFC32464FF245019548FBF725
:104DE40009FC224602219348FBF704FCFF2306A991
:104DF4008D480894069309950796FBF7D9FA48F26B
:104E0400FF7306A98A480894099506930796FBF749
:104E1400CFFA4FF2470306A98648099508940693EA
:104E24000796FBF7C5FA802306A9824807940894DD
:104E34000693FBF7BDFA4FF4007008210A224FF4E1
:104E440082757D4B986118469C60DC601C615C61D6
:104E54001C625C629C625D60D961DA621F60FDF76E
:104E640021F900F0FBFA4FF48042744B7448754901
:104E7400186018469C60DC605C619C61DC611C62AB
:104E840059601A61FBF7C0FB4FF433716E4D6F48E4
:104E94006F4B704A286028465C609C60DC601C6133
:104EA4005C619C611A6006940794AC60AC61E96033
:104EB4006E60FDF7FBFC06A9284606940794FDF7EF
:104EC40051FEFFF703FFFFF7E1FE00F019FF402357
:104ED400614C2360206800F091FDFF2804D03F233B
:104EE40028462360FDF766FD5C4DDFF88481DFF81A
:104EF40084915B4B4F4A1B789268642B40F00A8183
:104F040000265148FDF766FD554B1E7000F0F8FE73
:104F1400544B01202E60A8F800601E80FBF7C8F9EE
:104F24001023012106A88DF8183000F015FB2B681A
:104F3400022BFCD94A4A4A4B92F800B0B3F801302C
:104F440001264BEA03231F464022002144480093D4
:104F540001F08DF940220021434801F088F9002333
:104F640042494FF6FE720E7007F03F0101913D4930
:104F74002B60A8F800300B8039469142A9F8003024
:104F8400C7F38F1723600B4606D906F18026A6FBCC
:104F94000336F60B0136F6B24FF0000B4FF6FF7AEC
:104FA400B6B2206800F082FD0BF1010B23681FFAF2
:104FB4008BF2534496422360F3D20026F02301215E
:104FC40006A8DFF8A4A026608DF8183000F0C4FA13
:104FD4002E60B8F800309BB2402B0AD0B9F80030EC
:104FE4009BB29F42F5D1B8F80030019A9BB29A4225
:104FF400EFD1B9F800309BB29F4200F0A180402667
:105004001A4B00221B781949B3FA83F35B090B701E
:10501400144BA8F800201A80B9F800309BB22BE09A
:1050240058AE002000100240001001400030014042
:1050340000080140000C014000AE00204024002084
:1050440000580040A0860100E8A4002000100040A1
:1050540028A500200080014078AE0020B4AD0020D7
:10506400BCAD0020FCAD0020A4A400201901002048
:105074003C240020AC0100209F4259D2B9F80030F2
:1050840001339BB2A9F80030334B1B78002B4AD173
:105094003249206800F08EFD2368009A1E44266081
:1050A4002B689A4205D04FF480612D48FBF7A6FA8D
:1050B4008FE7B9F800309BB29F42F4D80123002651
:1050C4000222254F19463B70264B06A88DF818205E
:1050D400A8F800601E8000F03FFA314640221F48C5
:1050E400266001F0C4F8402231461F4801F0BFF8A1
:1050F4004FF480611A48FBF781FA3F2323601B4B6E
:10510400174832464FF480611E70FBF773FA184853
:10511400FDF750FC4FF400411148FBF76FFA64208F
:10512400FBF7C6F8E5E65146206800F043FDB3E717
:105134000223012106A88DF8183000F00DFA9DE72E
:10514400B8F80030019A9BB29A427FF458AF2B68AA
:105154001646403B2B6053E719010020BCAD0020EC
:1051640000080140FCAD0020A4A4002058AE00209B
:10517400E8A400200268114B9A4200D0704770B531
:105184000F4C236813B12368013B2360236823B9C0
:105194000C4E3578EDB2012D06D0BDE870404FF4C9
:1051A40080610948FBF72ABA084A3370136801334F
:1051B400136000F045FE20603570EEE700100040FB
:1051C400B0010020180100200008014078AE002042
:1051D400704700BF0E4B82B09A690E4942F001023B
:1051E4009A619A6902F001020092009ADA6942F027
:1051F4008052DA61DB6903F080530193019B4B68B1
:1052040023F0E06343F000734B6002B0704700BFCB
:105214000010024000000140002370B50168154AE7
:1052240086B09142029303930493059301D006B090
:1052340070BD03224FF4406612250F4C02A9A369E6
:105244000E4843F00803A361A369029603F0080320
:105254000093009B03950592FBF7AAF8E36943F4D6
:105264008003E361E36903F480030193019B06B0C7
:1052740070BD00BF0058004000100240000C014007
:10528400002370B501681F4A88B0914204930593C6
:105294000693079301D008B070BD022503244FF490
:1052A400F85603F1804303F504335A6904A942F420
:1052B40080625A615A69144802F480620192019A28
:1052C4009A6942F010029A619A6902F010020292FD
:1052D400029A9A6942F020029A619B69049603F04B
:1052E40020030393039B05950794FBF761F80423BC
:1052F40004A90648059507940493FBF759F808B0E8
:1053040070BD00BF00800140001001400014014046
:1053140070B5002402681C4B86B09A420294039430
:105324000494059401D006B070BD282002260325FC
:1053340003F560439A6902A942F480529A619A691A
:1053440002F480520092009A9A6942F008029A612B
:105354009B69029003F0080301930C48019B039698
:105364000595FBF725F8102302A908480293039436
:105374000494FBF71DF8064A536843F0E06343F0D6
:105384000103536006B070BD00300140000C0140C1
:105394000000014002680D4B9A4200D07047002281
:1053A40003F5003310B5DC6982B044F01004DC610D
:1053B400DB69114603F0100301933620019BFAF7D1
:1053C4009BFF3620FAF7CEFF02B010BD001000405C
:1053D400704700BFFEE700BFFEE700BFFEE700BF67
:1053E400FEE700BF704700BF704700BF704700BFB3
:1053F400FAF74CBF0148FBF757BA00BF40B9002089
:105404000148FDF705BB00BFE8A4002030B44FF409
:105414001F054FF000640E4B0E4A19680E4841F008
:105424000101196059680A405A601A6822F08472AE
:1054340022F480321A601A6822F480221A605A68B0
:1054440022F4FE025A609D60846030BC704700BF45
:10545400001002400000FFF800ED00E008B5002253
:1054640010491148FEF7F2FEC0B910490E48FEF784
:1054740003FF80B90E490C48FEF7A0FE40B90A4864
:10548400FEF702FF00B908BDBDE80840FFF7A0BE63
:10549400FFF79EFEF3E7FFF79BFEEBE7FFF798FEAF
:1054A400E3E700BF300100207CAE002008000020AC
:1054B40020010020002070470020704738B5154BAC
:1054C4000C461B78DBB903F0FF05134B0146226839
:1054D400184600F0C1FE22688554104D22682B88BE
:1054E40090B203440E4C0F499BB22B8020800B6872
:1054F4000D481A440A60FEF791FE002038BD0B4B9C
:1055040001462268184600F0A7FE00212268815453
:10551400E3E700BF19010020A4A40020FCAD002093
:105524003C240020B4AD00207CAE0020BCAD0020A3
:1055340010B5064C002220460549FEF747FE2046DA
:105544000449FEF74BFE002010BD00BF7CAE0020D6
:1055540040B5002040B1002010B5094CD4F8B83251
:10556400D3F814320BB1012010BD0A46014620467F
:10557400FEF72CFE2046BDE81040FEF735BE00BF06
:105584007CAE002002680D4B9A4200D07047002286
:1055940003F5DA3310B5DC6982B044F40004DC614D
:1055A400DB69114603F4000301931420019BFAF70D
:1055B400A3FE1420FAF7D6FE02B010BD005C004032
:1055C40000F50C71D0F86802FEF776BE00EB4113CB
:1055D400D3F83C21D0F86802FEF79EBE00EB4113DD
:1055E400DA6BD0F86802FEF7D7BE00BFD0F86802C5
:1055F400FEF772BF836810B5022B044601D0FFF793
:10560400E7FDD4F868020121FEF74EFFD4F86802E2
:10561400BDE81040FEF720BF10B50446D0F868027C
:10562400FEF746FFA36923B1024A136943F0060358
:10563400136110BD00ED00E0D0F86802FEF742BF30
:1056440070B500220446082502211C4B1C4EC0F8EC
:10565400C0321846C3F868421E605D6099609A6162
:10566400DA611A62FBF788F808B1FFF7B1FD00228E
:1056740018231146D4F8C002FBF794FC58230022E7
:105684008021D4F8C002FBF78DFCC02300228121C5
:10569400D4F8C002FBF786FC4FF488730022012182
:1056A400D4F8C002FBF77EFCD4F8C0024FF4807338
:1056B40000228221FBF776FC002070BD40B9002057
:1056C400005C004008B5D0F8C002FBF7D5F8032809
:1056D4009ABF024B185C022008BD00BFD8620008C4
:1056E40010B51C46D0F8C00213462246FBF75CFBFB
:1056F40003289ABF014B185C022010BDD862000831
:1057040008B5D0F8C002FBF783FB03289ABF024B0D
:10571400185C022008BD00BFD862000808B5D0F8A4
:10572400C002FBF7D5FB03289ABF024B185C02208A
:1057340008BD00BFD862000808B5D0F8C002FBF766
:10574400FDFB03289ABF024B185C022008BD00BF72
:10575400D86200080A06D0F8C03204D403EB41131F
:1057640093F82A01704701F07F0103EB411393F88A
:105774002A00704708B5D0F8C002FBF701FB0328E4
:105784009ABF024B185C022008BD00BFD862000813
:1057940008B5D0F8C002FBF785FB03289ABF024B7B
:1057A400185C022008BD00BFD862000808B5D0F814
:1057B400C002FBF757FB03289ABF024B185C022078
:1057C40008BD00BFD8620008D0F8C002FBF762BB76
:1057D40000487047B4010020704700BF704700BF05
:1057E400122301480B8070474C0100200423014818
:1057F4000B8070476001002010B5044C0A46044831
:105804002146FFF7E5F8204610BD00BFACBB0020E1
:10581400F862000810B5044C0A4604482146FFF714
:10582400D7F8204610BD00BFACBB00200C630008B5
:1058340010B5044C0A4604482146FFF7C9F820462F
:1058440010BD00BFACBB0020DC62000810B5044CE6
:105854000A4604482146FFF7BBF8204610BD00BFA6
:10586400ACBB0020E86200081A203D4A3D4B126898
:105874001B680880D21801D13B48704710B400243B
:105884003A4B100F19680928374B94BF3030373022
:105894009870C2F30360092894BF30303730187110
:1058A400C2F30350092894BF303037309871C2F3E3
:1058B4000340092894BF303037301872C2F30330E4
:1058C400092894BF303037309872C2F30320092876
:1058D40094BF303037301873C2F30310092894BFD3
:1058E40030303730DC709873002400205C71D8733A
:1058F40000240020DC715874002400205C72D874E9
:105904000024002002F00F02092A94BF30323732FB
:105914001A740A0F092A94BF303237329A74C1F3C9
:105924000362092A94BF303237321A75C1F3035225
:10593400092A94BF303237329A75C1F30342092AD7
:1059440094BF30323732DC725875002400201A7646
:105954000022D8755C735A76034810BC704700BFA8
:10596400E8F7FF1FF0F7FF1F64010020ECF7FF1FAB
:1059740070B44FF480041D4B032519461C4A83B0B0
:10598400019014619DF804009DF806609DF805409F
:10599400D87002F510525E701D709C70181D9368CB
:1059A4009C07FCD511F8013B8842D360F7D1114A1A
:1059B40093689807FCD50F4A93681906FCD4D368FA
:1059C4000C4993688B6813F08003FBD1094ACB60C0
:1059D4009368DB07FCD54021D068054B064AC0B26A
:1059E4001070196103B070BC704700BFACAD0020EB
:1059F400000C014000300140E4A400202DE9F041F6
:105A0400264F82B0DFF8A080254E264D0190052454
:105A1400002240213046FAF7EDFD4FF47A7301225B
:105A24001E4928463C70FCF77DFB4FF47A73012233
:105A34001D492846FCF792FC98F8004001224021B9
:105A44003046FAF7D7FD14F00102E0D140211448A2
:105A5400FAF7D0FD03219DF806009DF804409DF857
:105A640005503970787042F2107304220B490D48C6
:105A7400FC70BD70FCF756FB4FF47A7301220A499F
:105A84000848FCF76BFC98F80040012240210448C8
:105A9400FAF7B0FD204602B0BDE8F081ACAD0020BD
:105AA400000C014000AE0020E4A400202DE9F041E8
:105AB4003C4D82B03C4FDFF8F8803C4E0190052409
:105AC400002240214046FAF795FD4FF47A730122F3
