:020000040800F2
:1000000000800120C5C3000815B5000819B5000817
:100010001DB5000821B5000825B500080000000046
:1000200000000000000000000000000029B50008EA
:100030002DB500080000000031B5000835B50008F6
:100040000DC400080DC400080DC400080DC400084C
:100050000DC400080DC400080DC400080DC400083C
:100060000DC400080DC400080DC400080DC400082C
:100070000DC400080DC400080DC400080DC400081C
:100080000DC400080DC400080DC400080DC400080C
:1000900039B500080DC400080DC400080DC40008DF
:1000A0000DC400080DC400080DC400080DC40008EC
:1000B0000DC400080DC400080DC400080DC40008DC
:1000C0000DC400080DC400080DC400080DC40008CC
:1000D0000DC400080DC400080DC400080DC40008BC
:1000E0000DC400080DC400080DC400080DC40008AC
:1000F0000DC400080DC400080DC400080DC400089C
:100100000DC400080DC400080DC400080DC400088B
:100110000DC400080DC4000845B500080DC4000852
:100120000DC400080DC400080DC400080DC400086B
:1001300000000000000000000000000000000000BF
:1001400000000000000000000000000000000000AF
:10015000000000000000000000000000000000009F
:10016000000000000000000000000000000000008F
:10017000000000000000000000000000000000007F
:10018000000000000000000000000000000000006F
:10019000000000000000000000000000000000005F
:1001A000000000000000000000000000000000004F
:1001B000000000000000000000000000000000003F
:1001C000000000000000000000000000000000002F
:1001D000000000000000000000000000000000001F
:0401E0005FF8E0F1F3
:1001E40010B5054C237833B9044B13B10448AFF36D
:1001F40000800123237010BDEC01002000000000EA
:10020400CCCC000808B5034B1BB103490348AFF33A
:10021400008008BD00000000F0010020CCCC0008E4
:10022400034613F8012B002AFBD1181A0138704732
:1002340038B54FF47A730D490D4A09781268B3FB47
:10024400F1F30546B2FBF3F000F0A2F808B90F2D64
:1002540001D9012038BD0446024629464FF0FF303B
:1002640000F052F8034B20461D6038BD000000200A
:100274002401002004000020074A08B51368032065
:1002840043F01003136000F02DF80020FFF7D0FFB7
:100294000BF040F8002008BD00200240034A044B44
:1002A40011681B780B441360704700BF8409002059
:1002B40000000020014B1868704700BF840900202B
:1002C40038B50446FFF7F6FF631C054602D0044B1D
:1002D4001B781C44FFF7EEFF401B8442FAD838BD5C
:1002E400000000204FF6FF01064A0002D36800F424
:1002F400E0600B4043F0BF6343F400330343D36037
:10030400704700BF00ED00E0184B70B4DC68C4F324
:100314000224C4F10706042E04F1040328BF0426B2
:10032400062B17D90125033CA540013D2A40012392
:10033400B340013B1940A140002841EA02010CDB13
:10034400090100F16040C9B200F5614080F8001372
:1003540070BC704700221446E9E7054B00F00F001B
:100364000901C9B20344197670BC704700ED00E07E
:10037400FCEC00E0002807DB012300F01F01034A26
:100384008B40400942F82030704700BF00E100E094
:100394000138B0F1807F0DD230B4F025002207215E
:1003A400054B064C586084F82350104630BC9A60C4
:1003B400196070470120704710E000E000ED00E094
:1003C4002DE9F04F0C6885B0002C00F0A8804FF0A8
:1003D400000A6FF01F075346DFF81CC2DFF81C82C7
:1003E400DFF81CE206E0013334FA03F207F10407F4
:1003F40000F0958001229A4002EA0405AA42F2D153
:100404004C68122C00F0BF8000F29D80022C00F09A
:10041400B68040F29180032C00F0AE80112C02D102
:10042400CA6802F1040AFF2D00F2828006460268BF
:100434004FEA83090F2404FA09FB22EA0B020AFAA1
:1004440009F942EA09023260D1F8049019F0805F98
:100454006CD0DCF8186023F0030246F00106CCF8F7
:100464001860DCF8186002F1804206F00106039679
:1004740002F5803203F00306DDF80CB0B600D2F8C2
:1004840008B0B4402BEA04044045019400F089808C
:10049400524CA04200F08A80514CA04200F08C8063
:1004A400504CA04200F08E804F4CA04200F090804F
:1004B4004E4CA0420CBF4FF0050B4FF0060B019CB5
:1004C4000BFA06F626439660DEF8002019F4803F06
:1004D40014BF2A43AA43CEF80020DEF8042019F4FE
:1004E400003F14BF2A43AA43CEF80420DEF80820B4
:1004F40019F4801F14BF2A43AA43CEF8082019F424
:10050400001FDEF80C200DD01543CEF80C500C68FB
:10051400013334FA03F207F104077FF46BAF05B03B
:10052400BDE8F08F22EA0505CEF80C500C685AE7B6
:10053400B9464268061D7DE7ACB1012C7FF473AF68
:10054400D1F80CA06FE72A4EB4420CD01FD9294E23
:10055400B44208D006F58036B44204D0A6F580161D
:10056400B4427FF460AF8C68ECB1012C0CBF026123
:1005740042614FF0080A56E74FF0000A53E7CA6891
:1005840002F1080A4FE7CA6802F10C0A4BE7A6F524
:100594008016B442E7D006F58036B4427FF443AF08
:1005A400E1E700268EE74FF0040A3CE74FF0010B29
:1005B400019C0BFA06F685E74FF0020B019C0BFA3F
:1005C40006F67FE74FF0030B019C0BFA06F679E77A
:1005D4004FF0040B019C0BFA06F673E7000C014084
:1005E400001001400014014000180140001C0140AB
:1005F40000002110000031100010024000080140EA
:100604000004014002B9090401617047C3680B4248
:1006140014BF416101617047002800F0A880F8B55B
:1006240090F83D30044603F0FF02002B00F08A806E
:100634002423226884F83D30136823F001031360F7
:1006440001F08EFA65684B4B9D424BD84A4B984259
:1006540076D9421E6D00B2FBF5F20132C2F30B02F1
:10066400042A38BF042245492368A1FB00015868C5
:10067400890C20F03F0008435860186A013120F0CB
:100684003F0001431962DE6926F44F4626F0FF0657
:10069400002520273243DA611968206AE26921F0D3
:1006A400C00102430A431A609968E068226921F490
:1006B400034121F0FF0102430A439A60D968A0690B
:1006C400626921F0FF0102430A43DA601A6828468E
:1006D40042F001021A60256484F83D70256384F8B1
:1006E4003E50F8BD264B98422AD94FF496722349BE
:1006F4002368A1FB0061890C02FB01F25E68214FB3
:1007040026F03F06A7FB027231435960196A920929
:1007140021F03F0101320A431A62DE69A16826F41E
:100724004F4626F0FF0691B9411E05EB4505B1FB86
:10073400F5F10131C1F30B01B9B141F40042A7E76E
:100744000120F8BD80F83C200AF006FE70E705EBB6
:10075400850101EB8105411EB1FBF5F10131C1F3C6
:100764000B0111B141F4404292E7012290E70120CC
:10077400704700BFA08601007F841E0083DE1B43F8
:10078400FF083D00D34D62102DE9F043044683B0C9
:1007940098460E461746FFF78DFD94F83D30202B02
:1007A40003D0022003B0BDE8F083054605E0FFF75F
:1007B40081FD401B192800F2B08023689A69D24356
:1007C40012F00209F3D094F83C20012AE9D0012167
:1007D4001A6884F83C10D00702D41A680A431A60D5
:1007E40000214FF0210E10201A6822F400621A60D2
:1007F4009E4A84F83DE084F83E002164A4F82A80EF
:10080400618DE262E26A6762082A218500F0B180A4
:10081400012A00F0AE8012F5803F00F0AA80226B1E
:10082400122A00F0A6800A9A013240F094805A6994
:10083400D207FCD52269B2F5804F40F0B48006F0AF
:10084400FE061E610A9A013204D0BFE05A695105BE
:1008540000F194805A699007F8D5002201925A69F0
:1008640001929A690192019A228D002A00F0BF80B8
:100874000A9A013241D15A69160618D45A695005A8
:10088400F9D500226FF4806020215861226384F836
:100894003D1084F83E20236C84F83C2043F004038C
:1008A4002364236C042B00F0CC8001207AE7666A71
:1008B400278D304610F8012B791E1A61628D89B29A
:1008C400013A92B262855A696062520721850AD55B
:1008D40049B17278023F1A61628D0236013A92B2CE
:1008E4002785666262850A9A013224D15A695007C3
:1008F400BAD45A695105C4D4F8E75A691106D6D452
:100904005A695705BDD4FFF7D5FC0A9B401B8342A7
:100914007AD3002B78D02368AAE72023C4F8309038
:1009240084F83D3084F83E90236C84F83C9043F086
:100934002003236435E75A69520795D45A6956054A
:100944009FD4FFF7B7FC0A9B401B83425CD3002B68
:100954005AD02368C7E75A69D7073FF56BAFFFF74B
:10096400A9FC0A9B401B834272D3002B70D02368DE
:1009740059E71A6842F480721A6054E700226FF44F
:1009840080652020196841F4007119605D6122635B
:1009940084F83D0084F83E20236C84F83C2043F026
:1009A4000403236481E7F21102F0060242F0F0022C
:1009B4001A610A9A013203D034E05A695205DDD42F
:1009C4005A691107F9D5F6B21E613BE75A699207D5
:1009D4003FF543AF5A695605D0D4FFF76BFC0A9B29
:1009E400401B834234D3002B32D023682AE72025CE
:1009F4001968104641F40071196084F83D5084F878
:100A04003C2084F83E20CDE600222023226384F893
:100A14003D3084F83E20236C84F83C2043F02003CE
:100A240023643EE75A691707CDD45A695005A5D403
:100A3400FFF740FC0A9B401B834209D343B1236860
:100A4400B7E722680120136843F400731360A9E632
:100A540000222023226384F83D3084F83E20236C56
:100A640084F83C2043F0200323641EE70000FFFFCA
:100A74002DE9F04F054683B01F4689469246FFF79D
:100A840019FC95F83D30202B03D0022003B0BDE8BB
:100A9400F08F064605E0FFF70DFC801B192800F2D5
:100AA400A8802B689A69D24312F00204F3D095F817
:100AB4003C20012AE9D001211A6885F83C10D207AC
:100AC40002D41A680A431A60242000214FF0010B53
:100AD4004FF0A0081A6809F0FE0922F400621A60B7
:100AE400614A85F83D002964EA621A6842F480721A
:100AF4001A607C1C64D15A69D007FCD5C3F81090E5
:100B0400FFF7D8FB2B6806465A69596995F83D00EA
:100B140002F00202A02801F4806118D0BAB9B1B978
:100B2400002F3DD001E092B989B9FFF7C3FB801BC8
:100B340087422B6838BF85F83D805A69596995F812
:100B44003D0002F00202A02801F48061EBD12022D2
:100B540085F83D205A69920767D46FF480611A685A
:100B640042F400721A60596105E0FFF7A3FB801B91
:100B7400192830D82B689C69E44314F00204F4D09B
:100B84000BF1010BD345B0D32022002385F83D207F
:100B940085F83C30012079E7002AD8D10029D6D144
:100BA400FFF788FB2B6885F83D805A69596995F8E9
:100BB4003D0002F00202A02801F48061ECD1C6E7F6
:100BC4005A69D1079AD4FFF775FB801B87421DD35E
:100BD400E7B12B688DE720232C6385F83D3085F839
:100BE4003E402B6C85F83C4043F020032B640120ED
:100BF4004CE720232C6385F83D3085F83E402B6C70
:100C040085F83C4043F020032B643EE70022202378
:100C14002A6385F83D3085F83E202B6C85F83C200E
:100C240043F020032B64012030E700211A6842F4CA
:100C340000721A6001915A6901929A690192019AAB
:100C440005E0FFF737FB801B1928C4D82B689B6984
:100C5400DB4313F00204F4D02023002085F83D3058
:100C640085F83C0012E700BF0000FFFFF0B587B035
:100C7400002876D090F82932054603F0FF02002BB5
:100C84006AD003232E4685F82932286802F07AFFB9
:100C940056F810EB6C4637460FCF0FC43B682F1D38
:100CA4002360704697E80E0002F05AFF044630B104
:100CB40001240223204685F8293207B0F0BD0146FD
:100CC400286802F069FFD5F804E0BEF1000F29D0CE
:100CD40021464FF0010C224605EB41134C1C83F8CE
:100CE4002810D986E1B2714583F829C083F82B20F6
:100CF4009A63DA631A64EFD30023194605EB4312AF
:100D04005C1C03F10A0082F82831E3B24001734508
:100D140082F8291182F82B11C2F83811C2F83C115B
:100D24002950EBD36C460FCED5F800E00FC43368DE
:100D34007046236097E80E0002F030FF0446002856
:100D4400B6D1012385F82400286885F8293203F0F8
:100D5400ABFB204607B0F0BD80F828220AF0CEFC99
:100D64008FE70124204607B0F0BD00BF90F8282289
:100D7400012A01D102207047012110B5044680F8F0
:100D840028120AF0E7FD206803F08CFB206802F0CB
:100D9400EFFE002084F8280210BD00BF2DE9F84FB3
:100DA4000446006803F082FB10F4004F206842D12F
:100DB40003F07CFB460500F1D481206803F076FB48
:100DC40010F4804F206807D0B0F8443023F48043F7
:100DD4001B041B0CA0F8443003F068FB10F4005F04
:100DE400206807D0B0F8443023F400531B041B0CD4
:100DF400A0F8443003F05AFBC50400F19481206844
:100E040003F054FB000500F16581206803F04EFBFC
:100E1400820500F15281206803F048FBC30508D520
:100E24002268B2F8443023F480731B041B0CA2F82C
:100E34004430BDE8F88FDFF83494DFF834B4B0F808
:100E440044301F04B4D5B0F8441089B211F00F0532
:100E540058D1038811F010019BB27DD013F40065C2
:100E640040F009811B04EAD540F68F7302881340D1
:100E740043F080030380B0F8503094F828219BB2EB
:100E840003EBC20300EB4303B3F80C34C3F30903CD
:100E9400C4F8443193B1D4F83C1179B1B4F82E219B
:100EA40003F00AFBD4F83C31D4F84421204613441F
:100EB4002946C4F83C310AF045FC2068B0F85030AB
:100EC400D4F838219BB200F20C41002A40F0808112
:100ED400CA5A22F4F8421204120CCA52CA5A92B2E2
:100EE40042F40042CA52038823F4804323F070037F
:100EF4001B041B0C83F4405343F4004343F080036E
:100F040003809CE730F82560B6B2320463D433061C
:100F140095D530F8253004EB45129BB203EA09035A
:100F240043F4004320F82530B0F8503092F82810EC
:100F34009BB203EBC10300EB4303B3F80434D56B5A
:100F4400C3F30903166C1D445364D56366BB204682
:100F54000AF000FC206872E703EA090343F4004343
:100F64000380B0F8503094F828209BB203EBC203FE
:100F740000EB4300B0F80434E26BC3F309031A44F2
:100F84006364E26320460AF0E5FB94F8243003B37B
:100F9400236CF3B994F82420206842F08002A0F86E
:100FA4004C2084F824304AE74FF0000E012792F8D1
:100FB400282002F0070251016318283183F8282001
:100FC400DD631E642144C3F844E083F8297003F010
:100FD40099F8206833E740F68F7330F825204FEAFC
:100FE4004518134043F0800320F8253004EB080A29
:100FF4009AF83431002B00F0D2809AF8281130F896
:10100400213000EB810213F4804FB0F850309BB2D2
:1010140000F0E880023303EBC10300EB4303B3F8B1
:101024000074C7F30907002F40F01A8113889BB29C
:1010340003EA0B0343F4004343F0C003138004EBBF
:101044000803D3F84411D3F83C21D3F840013944C0
:101054003A44C3F84411C3F83C2120B1D3F8381101
:101064008F4280F0D880A044204698F828110AF0D6
:1010740069FB20684BE7B0F8503094F828219BB204
:1010840003EBC20300EB4303B3F80C34B4F82E2192
:10109400C3F30903C4F8443104F50C7103F00CFAEA
:1010A40040F68F732268204611880B4043F080037A
:1010B40013800AF041FB2068C1E622682046B2F89A
:1010C400443023F400731B041B0CA2F844300AF0D0
:1010D40049FBA0E62368B3F84020184692B242F0D8
:1010E4000802A3F84020B3F8442022F4006212045A
:1010F400120CA3F84420B3F8402092B242F0040248
:10110400A3F8402003F0D2F9C10408D52268B2F84C
:10111400443023F480531B041B0CA2F844302046B3
:101124000AF036FB71E622682046B2F8403023F01C
:1011340004031B041B0CA2F84030B2F8403023F027
:1011440008031B041B0CA2F840300AF031FB206892
:10115400B0F8443023F480531B041B0CA0F8443033
:101164004EE622682046B2F8443023F480631B0420
:101174001B0CA2F844300AF0F9FA94F82832012B37
:101184003FF41BAE0025012384F8245084F8283250
:101194002946206803F080F984F828520DE6B0F857
:1011A40050309AF828219BB2063303EBC20300EBBC
:1011B4004303B3F80074C7F30907002F3FF43FAFAC
:1011C4003B46BAF82E21DAF83C1103F075F936E7FC
:1011D4003E2A3AD85508D70748BF0135AA0292B229
:1011E400CA5280E6063303EBC10300EB4303B3F8B2
:1011F4000074C7F30907002F3FF418AF3B46BAF851
:101204003221DAF83C1103F057F99AF828312268B0
:1012140002EB83020AE74FF0000E93F8287107F0FF
:1012240007077901631801F59471C3F8400183F845
:101234002871C3F83C212144C3F844E183F829E12F
:10124400206802F05FFF206861E65509D606064A69
:1012540008BF05F1FF3542EA852292B2CA5242E63E
:101264003B46BAF83021CCE70080FFFF0F8FFFFF29
:101274008F8FFFFF90F82822012A01D102207047A6
:1012840010B50446012284F8241080F8282200684E
:1012940003F002F9002084F8280210BD70B50C0692
:1012A40024D4002601F00704650105F59471054472
:1012B400014485F829614D780C700A61CB7005B141
:1012C400CC81022B04BF00230B7190F82832012B30
:1012D40001D1022070BD0123044680F82832006841
:1012E40002F076FC002084F8280270BD012601F08B
:1012F4000704650105F128010544014485F82960C6
:10130400D9E700BF0B0610B51BD4002401F0070376
:101314005A0102F594710244014482F829410B7088
:1013240090F82832012B01D1022010BD012304467C
:1013340080F82832006802F0F1FD002084F82802C9
:1013440010BD012401F007035A0102F128010244EF
:10135400014482F82940E2E770B5002601F0070154
:101364004D01441905F5947584F82811C4F83C21FD
:101374004119C4F840310068C4F8446184F8296113
:1013840002F0C0FE304670BD01F0070100EB4111D0
:10139400D1F84401704700BFF8B50026012701F0D9
:1013A40007014D014419283584F82810E2634119D6
:1013B4002364006884F82970666402F0A3FE304652
:1013C400F8BD00BF38B5436801F007059D4212D847
:1013D4000B061DD400244901431801F594728118A9
:1013E40083F8294101230D708B7090F828229A42CA
:1013F40003D1022038BD012038BD044680F82832CC
:10140400006802F0C9FF65B1002084F8280238BDE5
:1014140001226B0103F128010344014483F82920CC
:10142400E0E704F50C71206803F044F8ECE700BF32
:1014340038B5436801F00F029A4214D80B061FD442
:10144400002401F007035A0102F594710244014497
:1014540082F8294100250B708D7090F82832012BF9
:1014640003D1022038BD012038BD0123044680F891
:101474002832006802F0B8FF84F82852284638BDA4
:10148400012401F007035A0102F128010244014436
:1014940082F82940DEE700BF11F0800F0CD001F084
:1014A400070100EB4110283062B10122190C0381BD
:1014B400418102730020704700EB411000F59470E5
:1014C400002AF2D1C380027300207047F8B5FEF7FA
:1014D400F1FE334B05461A681C4642F001021A60BD
:1014E40004E0FEF7E7FE401B022826D823689B078A
:1014F400F7D523682A4D23F0F80343F080032360D3
:10150400FEF7D8FE0023074641F28836636004E004
:10151400FEF7D0FEC01BB0420FD86B6813F00C0F5F
:10152400F6D12049204B214A08681A60FEF780FE54
:10153400044628B101242046F8BD03242046F8BD02
:10154400FEF7B8FE2B68074623F08073144E2B6019
:1015540004E0FEF7AFFEC01B0228EED8336813F098
:101564000073F6D17360FEF7A5FE3368074623F4D3
:1015740010230B4D336004E0FEF79CFEC01B64286F
:10158400DBD82B6813F40033F6D12A6822F48022C6
:101594002A606A6A42F080726A62AB60CEE700BF7A
:1015A40000100240040000202401002000127A00F0
:1015B400002800F0F1812DE9F041036882B0DD07D5
:1015C400044630D5AC494A6802F00C02042A00F003
:1015D40025814A6802F00C02082A00F01B81636826
:1015E400B3F5803F00F06781002B00F0E480B3F591
:1015F400A02F00F0C481A04B1A6822F480321A6034
:101604001A6822F480221A60FEF754FE9A4D0646A8
:1016140005E0FEF74FFE801B642800F2F7802B687C
:101624009A03F6D523689F0728D5934A516811F089
:101634000C0F00F08E80516801F00C01082900F0B5
:1016440084802369002B00F0258101228B4B8A4D75
:101654001A60FEF72FFE064605E0FEF72BFE801B00
:10166400022800F2D3802B689807F6D52B686269AC
:1016740023F0F80343EAC2032B6023681A071FD43C
:101684005D0741D57C4BDA69D0007DD500257C4BC4
:101694001A68D10540F1A980E368012B00F022818A
:1016A400002B00F0C580052B734B1A6A00F03381C0
:1016B40022F001021A621A6A22F004021A6216E186
:1016C400A369002B50D001226E4B6B4D1A60FEF7BC
:1016D400F1FD064605E0FEF7EDFD801B022800F251
:1016E40095806B6A9B07F6D5674B684A1B68A2FB1B
:1016F40003235B0A019300BF019B5A1E0192002B36
:10170400F9D123685D07BDD4E069D0B15A4D6A6848
:1017140002F00C02082A00F0D48002284FF00001E5
:101724005B4A00F000811160FEF7C4FD2C460546BB
:1017340004E0FEF7BFFD401B022867D823689B0125
:10174400F7D4002002B0BDE8F0815268D6033FF51B
:1017540078AF494A1268950721D52269012A1ED01B
:10176400012002B0BDE8F081464A434D1360FEF704
:10177400A1FD064604E0FEF79DFD801B022845D826
:101784006B6A9F07F7D4BCE7DA69012542F08052FF
:10179400DA61DB6903F080530093009B77E73649F5
:1017A40060690A6822F0F80242EAC0020A601A0775
:1017B4007FF566AF84E703F1804303F504331A68C9
:1017C4001D4622F480321A601A6822F480221A60BC
:1017D400FEF770FD064604E0FEF76CFD801B6428EE
:1017E40014D82B689B03F7D41CE71A681E4642F4EE
:1017F40080721A60FEF75EFD07463368DA053FF52E
:101804004BAFFEF757FDC01B6428F6D9032002B086
:10181400BDE8F0814A68D0037FF5E1AE164A12684C
:1018240091037FF500AF6268002A7FF4FCAE97E76E
:1018340003F1804303F504331A6A1E4622F00102C1
:101844001A621A6A41F2883822F004021A62FEF718
:1018540031FD074604E0FEF72DFDC01B4045D5D8F9
:10186400336A9807F7D4002D3FF44EAF024AD36988
:1018740023F08053D36147E7001002400000424246
:10188400007000408004424224010020D34D6210C5
:1018940060004242454A464D1360FEF70BFD064682
:1018A40004E0FEF707FD801B0228AFD82B689907D8
:1018B400F7D42368E2E63E4A136843F480331360A6
:1018C400A2E601283FF43EAF6B68226A03F480313C
:1018D40091427FF445AF606A03F47013181A18BF7D
:1018E40001202FE7324A136A43F001031362FEF723
:1018F400E1FC2F4E804641F2883705E0FEF7DAFC22
:10190400A0EB0800B84281D8336A9B07F6D5002DB6
:101914003FF4FAAEAAE742F004021A621A6A42F0ED
:1019240001021A62E3E71160FEF7C4FC064605E013
:10193400FEF7C0FC801B02283FF668AF2B689901B4
:10194400F6D4226AB2F5803F28D00125184B606A8C
:101954005968024321F4741116480A435A60056019
:101964001C46FEF7A7FC054605E0FEF7A3FC401B5A
:1019740002283FF64BAF23689A01F6D5E1E603F15E
:101984008043A3F53C331A6842F480221A601A6833
:1019940042F480321A6037E6012070476B68A16810
:1019A40023F400330B436B60CFE700BF00004242D7
:1019B400001002406000424278B15E4A136803F0AE
:1019C40007038B420BD2136823F007030B43136006
:1019D400136803F00703994201D0012070472DE9F1
:1019E400F041036886B09D0714D55C0704D5524CBA
:1019F400626842F4E06262601A0704D54E4C626881
:101A040042F4605262604C4C8568626822F0F002D5
:101A14002A436260DB0704460D4621D54268464BE3
:101A2400012A1B6877D0022A70D0980728D542492A
:101A340041F288384B680E4623F0030313434B608E
:101A4400FEF738FC074604E0FEF734FCC01B4045B3
:101A54005FD87368626803F00C03B3EB820FF3D1B1
:101A6400344A136803F007039D420DD2136823F030
:101A740007032B431360136803F007039D4203D04D
:101A8400012006B0BDE8F0812368590706D52A492C
:101A9400E0684A6822F4E06202434A601A0707D504
:101AA400254A2169536823F4605343EAC103536010
:101AB40001260225214B06AF0FCB07E90F001E4C70
:101AC4008DF804608DF80550626802F00C03082B51
:101AD4000AD1C2F383433B4413F8101CD3031DD42F
:101AE400174B03FB01F300E0164B134A16485268E8
:101AF4001649C2F30312805C154AC3400868136098
:101B0400FEF796FB002006B0BDE8F0819E018ED45E
:101B1400B6E70320B5E79F0389D4B1E76268094BB0
:101B2400C2F3404203FB01F33A4412F8142CB3FB12
:101B3400F2F3DAE70020024000100240E4CC00088F
:101B440000093D0000127A00A4DA00080400002015
:101B540024010020014B1868704700BF24010020B5
:101B6400044B05495B68054AC3F30223CB5C106848
:101B7400D840704700100240B4DA00082401002065
:101B84002DE9F0410446006882B0C30727D53B4BDA
:101B9400DA69D7003BD53A4B00251A68D60544D5F7
:101BA400364A136A13F440730FD0616801F440702D
:101BB40083420BD001270026136A324923F4407074
:101BC4000F600E60D907106246D461682B4A136A0D
:101BD40023F440730B431362002D38D1206883072C
:101BE4000DD410F0100007D00020244A6169536816
:101BF40023F480030B43536002B0BDE8F0811F4A15
:101C0400A168536823F440430B435360E9E7DA695E
:101C1400012542F08052DA61DB6903F080530193BD
:101C2400019B174B1A68D605BAD41A681E4642F4AB
:101C340080721A60FEF73EFB07463368D805AFD4BE
:101C4400FEF738FBC01B6428F7D90320D4E7D36917
:101C540023F08053D361C1E71646FEF72BFB41F214
:101C64008837804605E0FEF725FBA0EB0800B84264
:101C7400EBD8336A9A07F6D5A7E700BF00100240F5
:101C840000700040400442422DE9F04389B005460B
:101C94008846FEF70FFB00230646082128680093B8
:101CA400019301F027FB044618B1204609B0BDE8B2
:101CB400F083296D2868090401F04CFD04460028CE
:101CC400F3D108204FF0FF31022201233027029183
:101CD40003900DEB0001286806940592079304977E
:101CE40001F0F4FA286801F0EFFD04460028DCD185
:101CF400814640F22A4704E0FEF7DCFA801B0130FB
:101D040015D02868436B3B42436B0BD19B02F3D540
:101D140001F0C0FA08AB03EB890343F8200C09F186
:101D24000109E9E7190705D508248463BDE74FF0E5
:101D34000044BAE7436B9A0702D502248463B4E7EC
:101D4400436B9B0602D520248463AEE740F23A51EC
:101D5400019A009B12BA1BBA816388E80C00A4E7BD
:101D64002DE9F04F0E4687B0044615469846FEF717
:101D7400A1FA002E34D094F83430DBB2012B08D011
:101D84000123A26B42F00052A263184607B0BDE8DB
:101D9400F08F07460020E16D05EB08028A42A0633C
:101DA40019D80322236884F83420626C4FF400713C
:101DB400012AD862184618BF6D0201F09BFAC0B11F
:101DC400012122687B4D0B469563A26B1043A063EF
:101DD40084F83410D9E7A26B42F00072A263D4E70E
:101DE40001231846A26B42F00062A26307B0BDE86B
:101DF400F08F4FF0FF3190224FF0010A4FF00209AB
:101E040004904FEA48230091206869460292CDF875
:101E14000C90CDF814A0019301F058FAD04542D9A2
:101E2400C4F830902946206801F0E6FA002841D130
:101E340040F22A3BDDF804A02068436B13EA0B0F41
:101E4400436B44D11D041AD5BAF1000F17D0351DC8
:101E540006F1240900E0206801F01CFA05F8040CDE
:101E6400020A030C000E05F8032C05F8023C05F8E1
:101E7400010C04354D45EED12036AAF1200AFEF7B7
:101E840019FA109BC01B8342D6D801200021226876
:101E9400484D03239563A26B42F00042A26384F889
:101EA4003400216371E7C4F830A02946206801F0AA
:101EB40061FABBE70122002125683E4E1346AE635A
:101EC400A56B2843A06384F8342021635DE7D9051A
:101ED4000AD5B8F1010F07D9636C032B04D001F0C4
:101EE4004FFB0028E6D12068426B12F008022ED185
:101EF400416B11F0020137D1436B9A0640D404368A
:101F04001AE0BAF1000F1AD001F0C4F9030E010A65
:101F1400020C06F8013C06F8040C06F8031C06F84B
:101F2400022CFEF7C7F9109BC01B8342AAF1040AD6
:101F340006F1040630D92068436B9B02E1D440F2D9
:101F44003A5301228363002384F834201DE70121DE
:101F54000025184A0B468263A26B42F00802A26372
:101F640084F83410256310E7012512492B46816358
:101F7400A16B41F00201A16384F83450226304E7A9
:101F840001250C4A2B468263A26B42F02002A26315
:101F940084F834502163F8E6012100202268054DBD
:101FA4000B469563A26B42F00042A26384F834109E
:101FB4002063EAE6FF0540002DE9F0470D4688B0AE
:101FC400044690461F46FEF775F9002D35D094F867
:101FD4003430DBB2012B08D00123A26B42F0005253
:101FE400A263184608B0BDE8F08706460020E16DFC
:101FF40008EB07028A42A0631AD80322236884F8F4
:102004003420626C4FF40071012AD862184618BF5C
:102014004FEA482801F06EF9C0B1012221685B4DF6
:1020240013468D63A16B0843A06384F83420D8E77A
:10203400A26B42F00072A263D3E701231846A26B9D
:1020440042F00062A26308B0BDE8F0874FF0FF33AE
:102054009021012205900690029304917B0202A92B
:1020640020680792039301F031F9012F36D9202318
:1020740041462363206801F041FA002835D140F23B
:102084001A39DDF80CA02068436B13EA090F436B7F
:1020940038D15A0410D5BAF1000F0DD005F120083B
:1020A40000E0206855F8043B01A9019301F0F6F81B
:1020B4004545F6D1AAF1200AFEF7FCF8109B801BD7
:1020C4008342E0D8012100222068304D0323856338
:1020D400A06BA06384F83410226382E71023414686
:1020E4002363206801F0CAF9C7E7012200212568AB
:1020F400264E1346AE63A56B2843A06384F83420B0
:1021040021636EE7DB0509D5012F07D9636C032B27
:1021140004D001F035FA0028E7D12068426B12F0B0
:10212400080213D1416B11F002011CD1436B13F06F
:10213400100324D00125154A2B468263A26B42F07A
:102144001002A26384F8345021634AE70121002578
:102154000E4A0B468263A26B42F00802A26384F823
:10216400341025633DE7012508492B468163A16BA3
:1021740041F00201A16384F83450226331E740F254
:102184003A510122816384F834202AE7FF05400094
:10219400034600205A6EF0B5940F0C70C2F38367A7
:1021A400C2F30166C2F30745C2F30724D2B24F70EB
:1021B4008E70CD700C714A719A6E150DC2F3034482
:1021C400CD80C2F3C0370C72C2F38036C2F34035FF
:1021D400C2F300344F728E72CD720C734873586C14
:1021E40000286DD140F6FC7001254FF40076DC6EBA
:1021F40000EA820242EA9472C4F3C2600A61C4F340
:10220400026E0875C4F3C232C4F38240C4F3425769
:1022140081F815E08F75C8750A760A69087E2A4424
:1022240000F00700023082405A65087A1E6600F00A
:102234000F008540680A02FB00F29D65DA65002202
:102244000125C4F38037C4F3C61604F07F044F7627
:102254008E76CC761B6F1046DC0F0C77C3F3417778
:10226400C3F38266C3F383544F778E77C3F3405727
:10227400CC77C3F30046C3F3C03481F82070C3F3B2
:10228400803E81F82120C3F3403781F82260C3F3F4
:10229400012281F82340C3F30036C3F38124C3F33E
:1022A400460381F824E081F8257081F8266081F8DE
:1022B400274081F8282081F8293081F82A50F0BD80
:1022C40001280BD001211A680D4C084694639A6BBF
:1022D40042F080529A6383F83410F0BD4FF40070DA
:1022E400DC6E120402F47C1242EA14420A610A69A6
:1022F4009865013292025A65DA6518669FE700BF55
:10230400FF054000F0B599B0E8B190F834300446C8
:1023140003F0FF02002B2ED00023762203260A931B
:102324000B930C920AAA256807CA84F834608DE8D6
:10233400070007930893099307AB28460ECB00F0D8
:102344008DFF054618B10125284619B0F0BD0127B7
:102354006F4E2068356000F0A7FF3760206806954F
:1023640001F08EF9054650B1012384F83430A36B93
:102374001D43A563E7E7027709F022F8CCE720685C
:1023840001F0A8F940B9A7640021206801F0E2F93E
:1023940060B14FF08055E7E7A564206801F070F95B
:1023A400002840F09680A36C012BEDD04FF6FE7709
:1023B400069BBB421AD8574E0021206801F0CAF987
:1023C40005460028D0D13146206801F005FA0028DE
:1023D400DFD12946206800F075FF069B051E03F136
:1023E40001030693069B01DBBB42E5D94FF6FE735E
:1023F400069A9A4202D94FF08075B5E70123C5F3D6
:10240400807565642068ADF8163000F057FF40B958
:102414004FF08060012384F83430A36B1843A06329
:1024240091E7636C032B0FD10421206800F04AFF6D
:10243400000DE0640DA92046FFF7AAFE054600281A
:1024440049D04FF08050E5E7206801F07FFA00287A
:10245400E0D10146206800F035FF04216067206860
:1024640000F030FF0821A067206800F02BFF0C214A
:10247400E067206800F026FF636CC4F88000032B3B
:10248400D2D00DF11601206801F0D4FA0028C1D190
:10249400636C032BC8D0BDF81610206821650904AD
:1024A40001F08EFA0028B5D10146206800F00AFF39
:1024B40004216066206800F005FF0821A0662068FA
:1024C40000F000FF0C21E066206800F0FBFE2067AE
:1024D400AAE7054648E7226D03461204206801F086
:1024E4008DF8002896D1234653F8107B261D93E8D7
:1024F40007008DE80700384696E80E0000F0AEFEAF
:1025040001232846A563256384F8343019B0F0BD4F
:10251400A0003042000010C1F0B4436C876CC66C5C
:10252400056D446D826D0B60C36D006E4F608E60EF
:10253400CD600C61C8614A610020F0BC8B617047BA
:102544000322F0B5436C8BB09342044680F83420E8
:102554000E4616D0B1F5805F13D0B1F5006F32D0BE
:1025640000293ED0836B43F000638363A56B7DB188
:102574000123184622683949916384F834300BB03A
:10258400F0BDA36B43F08053A363A56B002DEFD183
:10259400A0696769211D0EC90796059208970990DD
:1025A4000AAA0491266812E907008DE80700069339
:1025B40004AB0ECB304600F051FE0123284684F8CC
:1025C40034300BB0F0BD0023006819460493059322
:1025D40000F078FE80011DD53046A36B1843A0633C
:1025E400C4E700680491059100F06CFE820105D5F2
:1025F4004FF40060A16B0843A063B7E704A9204629
:10260400FFF742FB0028F5D1059BDB030ED44FF006
:102614008060EFE704A92046FFF736FB0028DCD1F1
:10262400059B59030ED44FF08060D6E7216D2068D6
:10263400090401F08FF80028DCD10146206801F07C
:1026440001F9D7E7216D2068090401F083F8002817
:10265400C3D10221206801F0F5F8BEE7FF05400070
:10266400016D10B509040446006801F037FA01460B
:1026740020B1A36B00201943A16310BD206800F0B2
:1026840021FEC0F3432010BD00283BD0F8B5002341
:1026940090F851100446836201F0FF0261B31A46B8
:1026A400022700210125A6686368E0683343266990
:1026B400034360693343E669D4F818E00343206AAE
:1026C4003343266884F8517003430EF400700343C7
:1026D40030684FEA1E4E134320F040000EF004020F
:1026E400306033607260F369084623F40063F36179
:1026F400616584F85150F8BD80F8502008F0A8FEB8
:10270400A26ACDE7012070472DE9F04190F85040CE
:1027140082B0012C03D1022002B0BDE8F0811D4635
:10272400012380F85030044690460F46FDF7C2FD61
:10273400064694F85100C0B2012809D002200122B3
:10274400002384F8512084F8503002B0BDE8F081B1
:10275400002FF4D0B8F1000FF1D000230321A268B8
:1027640084F85110B2F5004F63652763A4F83680EE
:10277400A4F83480A363A38763642364E387206895
:1027840000F0C48003685A0603D4036843F040038E
:102794000360E368B3F5006F636836D0002B00F084
:1027A4008B80B8F1010F00F087806A1C0BD01FE00A
:1027B400236B1B780373E28E236B013A92B20133CD
:1027C400E28623632068E38E9BB2002B38D08368B3
:1027D4009B07EDD4FDF76EFDF4E7236B1B780373C1
:1027E400E38E226B013B9BB20132E38622632068B5
:1027F400E38E9BB223B383689F07EED4FDF75AFDA3
:10280400801B8542F3D8032099E7002B00F08380D6
:10281400B8F1010F7FD06B1C5FD1E38E9BB27BB10B
:1028240083689F076ED5226B32F8023BC360E38E48
:102834002263013B9BB2E386E38E9BB2002BEFD174
:10284400691C0FD183681A06FCD4A2682AB90192C4
:10285400C368019383680193019B606D003018BFC6
:1028640001206CE783681B06EFD5FDF723FD801B71
:1028740085422068E4D862684368B2F5827F23F019
:10288400E0034360A2684FD0A36AB3F5005F07D1A9
:10289400036823F400530360036843F400530360A4
:1028A40001232021002584F85130636D84F85050B1
:1028B4000B4363656165C9E73B780373E38E226B61
:1028C400013B9BB201322068E38622636DE7FDF78A
:1028D400F1FC801BA84296D22068E38E9BB2002BA9
:1028E400AED083689907F2D5226B32F8023BC360FD
:1028F400E38E2263013B9BB2E386E38E9BB2002B03
:10290400EFD19DE7FDF7D6FC206886E7036843F422
:102914008043036036E737F8023BC360E38E2763E6
:10292400013B9BB2E38676E7B2F5004F02D0B2F5E5
:10293400806FA9D1036823F040030360A4E700BFBC
:102944002DE9F0410446406882B0B0F5827F8846A4
:1029540017461D461DD094F85000012803D10220CB
:1029640002B0BDE8F081012384F85030FDF7A2FCE9
:10297400064694F85100C0B2012800F08C80022071
:102984000122002384F8512084F8503002B0BDE8BD
:10299400F081A368002BDED1042294F8503084F82F
:1029A4005120012BDBD0012384F85030FDF782FC49
:1029B40094F851300646DBB2012B626807D0B2F5B9
:1029C400827FDCD1A1680029D9D1042BD7D1B8F1F9
:1029D400000F00F04481002F00F0418194F8513041
:1029E4000021042B1CBF052384F851302368616542
:1029F400E787E7861868216461644106C4F8388073
:102A0400A787C4F83080A78603D4196841F0400131
:102A14001960E168B1F5006F00F07481002A00F0DC
:102A24003281012F00F02F81691C4FF0010714D06F
:102A340097E09A68D0070DD5E28F92B252B1012780
:102A4400DA68A36B1A70E38FA26B013B3A449BB222
:102A5400A263E387FDF72EFC2368E28E92B222B9CB
:102A6400E28F92B2002A00F0A3809A689207E0D520
:102A7400E28E92B2002ADCD0002FDAD0226B00273B
:102A840012781A73E28E236B013A591C92B22368AE
:102A9400E2862163CDE7B8F1000F3FF471AF002F58
:102AA4003FF46EAF00230421A26884F85110B2F5FC
:102AB400004F6365C4F83880E787A7872363A3863C
:102AC40023646364E386226800F0C48013685B06B1
:102AD40003D4136843F040031360E368002B00F051
:102AE40087806F1C27D1E38F9BB27BB19368D80793
:102AF4006FD5D368A16B21F8023BE38FA163013B3F
:102B04009BB2E387E38F9BB2002BEFD16368B3F5ED
:102B1400827F00F0A680681C5FD193681906FCD4FC
:102B2400606D003018BF01202AE7FDF7C3FB801B4E
:102B340085423BD92268E38F9BB2002BE6D0936891
:102B4400D807F2D5D368A16B21F8023BE38FA163C8
:102B5400013B9BB2E387E38F9BB2002BEFD1D5E718
:102B64002368E28E92B212B9E28F92B202B39A68EB
:102B7400910705D5E28E92B212B1002F40F059812F
:102B84009A68D2070DD5E28F92B252B10127DA6862
:102B9400A36B1A70E38FA26B013B9BB23A44E387A9
:102BA400A263FDF787FB801B8542D9D80320E7E6A3
:102BB400681C40F085809A681106FCD4A06800283F
:102BC40040F029810190DA6801929B680193019B8E
:102BD400D6E6FDF76FFB226885E793681B069FD551
:102BE400FDF768FB801B854240F2EC80226892E787
:102BF400691C0BD020E0127BA36B1A70E28FA36BCD
:102C0400013A92B20133E287A3632268E38F9BB255
:102C1400002B3FF47BAF9368DB07ECD4FDF74AFB52
:102C2400F3E7127BA36B1A70E38FA26B013B9BB299
:102C34000132E387A2632268E38F9BB2002B3FF447
:102C440065AF9368DF07ECD4FDF734FB801B854246
:102C5400F1D8ABE7136823F48043136036E701200F
:102C64008EE6A368B3F5004F19D0B3F5806F7FF4F7
:102C740052AF136823F040031360691C14D19368A6
:102C8400DB07FCD44CE798F800201A73E28E236B20
:102C9400013A591C92B22368E2862163C4E61368A0
:102CA40023F04003136036E79368DF077FF538AFFE
:102CB400FDF700FB801B854240F284802268DCE73C
:102CC4009A6812067FF57AAFFDF7F4FA801B854205
:102CD40023683FF66DAF61685A68B1F5827F22F0D0
:102CE400E0025A6000F0C680A26AB2F5005F00F00C
:102CF400B8800120202284F85100636D134363657A
:102D040062653DE6002A7CD0012F7AD06A1C4FF020
:102D1400010713D02FE09A68D1070CD5E28F92B245
:102D24004AB10127DB68A26B22F8023BE38FA2635E
:102D3400013B9BB2E387FDF7BDFA2368E28E92B2B2
:102D440022B9E28F92B2002A3FF432AF9A68900718
:102D5400E1D5E28E92B2002ADDD0002FDBD0216BC8
:102D6400002731F8022BDA60E28E2163013A92B235
:102D7400E286D0E72368E28E92B222B9E28F92B261
:102D8400002A3FF415AF9A68920704D5E28E92B2F6
:102D94000AB1002F5AD19A68D0070CD5E28F92B2AB
:102DA4004AB10127DB68A26B22F8023BE38FA263DE
:102DB400013B9BB2E387FDF77DFA801B85427FF6DA
:102DC400F5AED7E7236861685A68B1F5827F22F0CF
:102DD400E0025A6021D0A26AB2F5005F07D11A68F6
:102DE40022F400521A601A6842F400521A60012355
:102DF40084F85130636D43F02003636520236365D9
:102E04008EE6414631F8022BDA60E28E2163013A04
:102E140092B2E2867AE70020B2E5A268B2F5004FEA
:102E240002D0B2F5806FD6D11A6822F040021A603F
:102E3400D1E7226B002712781A73E28E236B013AD2
:102E4400591C92B22368E286216399E6216B00271C
:102E540031F8022BDA60E28E2163013A92B2E28603
:102E640099E71A6822F400521A601A6842F4005270
:102E74001A603EE7A268B2F5004F03D0B2F5806F46
:102E84007FF432AF1A6822F040021A602CE700BFC8
:102E940000287DD038B590F83D30044603F0FF0299
:102EA400002B4AD0022223683A4984F83D208B4201
:102EB4001A6847D001F500618B4257D0B3F1804FB7
:102EC40024D0A1F598318B4220D001F580618B424A
:102ED4001CD001F580618B4218D001F5A0318B42E2
:102EE40018D001F580618B4214D001F580618B42CA
:102EF40010D0A1F59E318B420CD001F580618B423C
:102F040008D001F580618B4208D103E0A16822F06A
:102F140070020A43216922F440720A43A569E068F9
:102F2400616822F080022A431A60D8629962012201
:102F340000205A6184F83D2038BD80F83C2008F018
:102F4400C9FAAFE7A16822F070020A43216922F4AA
:102F540040720A43A16922F080020A431A60E268BF
:102F6400DA6262689A6262691A63E0E7A16822F031
:102F740070020A43216922F44072A5690A43E06899
:102F8400616822F080022A431A60D8629962EAE7F3
:102F940001207047002C01400368DA6842F0010206
:102FA400DA609A6802F00702062A03D01A6842F02F
:102FB40001021A600020704741F211110368DA68B7
:102FC40022F00102DA601A6A0A4208D140F244424D
:102FD400196A114203D11A6822F001021A60002012
:102FE400704700BF704700BF704700BF704700BF05
:102FF400704700BF036810B51A690446910702D5EB
:10300400DA68920762D41A69500702D5DA68510760
:1030140049D41A69120702D5DA68100731D41A693B
:10302400D20602D5DA68D00618D41A69D10702D5B7
:10303400DA68D2076BD41A69100602D5DA68110669
:103044006DD41A69520602D5DA68500657D41A6943
:10305400910602D5DA68920649D410BD6FF01001CA
:1030640008221961DB69204613F4407F227761D17D
:10307400FFF7B8FF2046FFF7B9FF00222368227745
:10308400D3E76FF0080104221961DB692046990730
:10309400227755D1FFF7A6FF2046FFF7A7FF0022AE
:1030A40023682277BBE76FF00401022219619B6950
:1030B400204613F4407F22773FD1FFF793FF204649
:1030C400FFF794FF002223682277A2E76FF0020142
:1030D400012219619B6902779B0728D1FFF782FFC0
:1030E4002046FFF783FF0022236822778BE76FF0E7
:1030F40020022046BDE810401A6100F047B86FF086
:10310400400220461A61FFF773FF23689FE76FF0C0
:10311400010220461A6106F0B3FF23688BE76FF0C3
:10312400800220461A6100F033F8236889E7FFF72C
:103134005BFFD8E7FFF758FF9FE7FFF755FFC1E7AD
:10314400FFF752FFABE700BF90F83C20012A1BD0E9
:103154000222F0B5034600250126046880F83D20CC
:103164006068A268D1F800E04F6822F0800220F085
:10317400700141EA0E013A4361602846A26083F877
:103184003D6083F83C50F0BD02207047704700BF9B
:10319400704700BF304B4269134043B1002A03DB40
:1031A400510006D5402070474FF000707047184614
:1031B4007047930001D580207047D10002D54FF4A9
:1031C40080707047130102D54FF4007070475101AD
:1031D40002D54FF480607047D30102D54FF40060EC
:1031E4007047110202D54FF480507047530202D544
:1031F4004FF400507047910202D54FF4804070475D
:10320400D30202D54FF400407047510302D54FF466
:1032140000307047930302D54FF480207047D103E8
:1032240002D54FF400207047130402D54FF48010E8
:103234007047510402D54FF400107047930402D52F
:103244004FF48000704712F0080F14BF4FF40000D1
:103254004FF48030704700BF08E0FFFD84B010B425
:1032640002AC84E80E000B460399049A0B430599BB
:10327400069C134342680B430799234322F4FD42FF
:103284000B4322F07F0210BC1343436004B00020C0
:10329400704700BFD0F88000704700BF03460A683B
:1032A4000020C3F88020704708B50322034602209B
:1032B4001A60FDF705F8002008BD00BF006800F0A3
:1032C4000300704714304058704700BF30B40C6896
:1032D4000A1D2CCA44620C698262C26A2B43496982
:1032E400234322F0F7020B431343C36230BC002094
:1032F400704700BF41F288331C4A10B412681C4C5A
:103304008160A4FB0221C268490A22F47F6203FBA4
:1033140001F322F00F0242F48A62C26013F1FF3318
:103324000DD3426B12F0450FF8D01105F6D4436B60
:103334005A0708D5042310BC8363184670474FF01E
:10334400004010BC7047436BDB070AD4C52383637A
:103354000369DBB2102B01D00120F2E710BCFFF7A8
:1033640019BF012383631846EBE700BF2401002043
:10337400D34D621041F288331D4A10B412681D4CBB
:103384008160A4FB0221C268490A22F47F6222F010
:103394000F0203FB01F342F48A6242F00102C260AD
:1033A40013F1FF330DD3426B12F0450FF8D0110522
:1033B400F6D4436B5A0708D5042310BC836318461C
:1033C40070474FF0004010BC7047436BDB070AD4D2
:1033D400C52383630369DBB2112B01D00120F2E71B
:1033E40010BCFFF7D7BE012383631846EBE700BF89
:1033F40024010020D34D621041F288331D4A10B4D9
:1034040012681D4C8160A4FB0221C268490A22F49F
:103414007F6222F00F0203FB01F342F48A6242F05E
:103424000202C26013F1FF330DD3426B12F0450F59
:10343400F8D01105F6D4436B5A0708D5042310BC01
:103444008363184670474FF0004010BC7047436BCD
:10345400DB070AD4C52383630369DBB2122B01D0D3
:103464000120F2E710BCFFF795BE012383631846E1
:10347400EBE700BF24010020D34D621041F28833F2
:103484001C4A10B412681C4C8160A4FB0221C2685F
:10349400490A22F47F6203FB01F322F00F0242F493
:1034A4008B62C26013F1FF330DD3426B12F0450FF0
:1034B400F8D01105F6D4436B5A0708D5042310BC81
:1034C4008363184670474FF0004010BC7047436B4D
:1034D400DB070AD4C52383630369DBB2182B01D04D
:1034E4000120F2E710BCFFF755BE012383631846A1
:1034F400EBE700BF24010020D34D621041F2883372
:103504001D4A10B412681D4C8160A4FB0221C268DC
:10351400490A22F47F6222F00F0203FB01F342F412
:103524008B6242F00102C26013F1FF330DD3426B90
:1035340012F0450FF8D01105F6D4436B5A0708D59D
:10354400042310BC8363184670474FF0004010BC3E
:103554007047436BDB070AD4C52383630369DBB27B
:10356400192B01D00120F2E710BCFFF713BE012391
:1035740083631846EBE700BF24010020D34D62109B
:1035840000221B4B826019681A4BC268A3FB0131ED
:10359400194B22F47F62490A22F00F0203FB01F364
:1035A40042F4896242F00402C2606BB1426B013B97
:1035B40012F0450FF9D01105F7D4436B5A0706D51D
:1035C40004238363184670474FF000407047436BF1
:1035D400DB0709D4C52383630369DBB20C2B01D059
:1035E40001207047FFF7D6BD012383631846704757
:1035F40024010020D34D621000E1F50541F2883327
:103604001D4910B409681D4C8260A4FB0121C268E5
:10361400490A22F47F6222F00F0203FB01F342F411
:10362400886242F00702C26013F1FF330DD3426B8C
:1036340012F0450FF8D01105F6D4436B5A0708D59C
:10364400042310BC8363184670474FF0004010BC3D
:103654007047436BDB070AD4C52383630369DBB27A
:10366400072B01D00120F2E710BCFFF793BD012323
:1036740083631846EBE700BF24010020D34D62109A
:10368400014610B4002441F288331048104A0068FF
:103694008C60A2FB0020CA68400A22F47F6222F0F8
:1036A4000F0242F4806203FB00F3CA6002E04A6B3B
:1036B400120606D413F1FF33F9D24FF0004010BCC8
:1036C4007047C52300208B6310BC70472401002081
:1036D400D34D6210014610B44FF4D57441F28833CF
:1036E4001A481B4A00688C60A2FB0020CA68400A82
:1036F40022F47F6203FB00F322F00F0242F489629A
:10370400CA6013F1FF330CD34A6B12F0450FF8D0A3
:103714001205F6D44B6B5B0707D50420886310BCF5
:1037240070474FF0004010BC7047486B10F0010028
:1037340008D14B6B13F0400302D040238B63F2E7B4
:103744001846F0E701208863EDE700BF240100205C
:10375400D34D621041F288331D4A10B412681D4CD7
:103764008160A4FB0221C268490A22F47F6222F02C
:103774000F0203FB01F342F48E6242F00702C260BF
:1037840013F1FF330DD3426B12F0450FF8D011053E
:10379400F6D4436B5A0708D5042310BC8363184638
:1037A40070474FF0004010BC7047436BDB070AD4EE
:1037B400C52383630369DBB2372B01D00120F2E711
:1037C40010BCFFF7E7BC012383631846EBE700BF97
:1037D40024010020D34D621030B4044641F28833F2
:1037E400164A174D126841F0004040F48010A5FBC2
:1037F4000221A060E268490A22F47F6222F00F02EB
:1038040003FB01F342F48D6242F00102E26013F122
:10381400FF330FD3626B12F0450FF8D01205F6D4C4
:10382400606B10F0040015BF0420C523A063A363DC
:1038340030BC70474FF0004030BC7047240100207A
:10384400D34D621041F288331D4A10B412681D4CE6
:103854008160A4FB0221C268490A22F47F6222F03B
:103864000F0203FB01F342F4886242F00602C260D5
:1038740013F1FF330DD3426B12F0450FF8D011054D
:10388400F6D4436B5A0708D5042310BC8363184647
:1038940070474FF0004010BC7047436BDB070AD4FD
:1038A400C52383630369DBB2062B01D00120F2E751
:1038B40010BCFFF76FBC012383631846EBE700BF1E
:1038C40024010020D34D621010B4002441F2883347
:1038D4001C491D4A09688460A2FB0121C268490A87
:1038E40022F47F6222F00F0203FB01F342F48E62A2
:1038F40042F00302C26013F1FF330DD3426B12F0A6
:10390400450FF8D01105F6D4436B5A0708D50423A4
:1039140010BC8363184670474FF0004010BC7047DA
:10392400436BDB070AD4C52383630369DBB2332B00
:1039340001D00120F2E710BCFFF72CBC0123836304
:103944001846EBE724010020D34D6210014610B461
:10395400002441F288331848184A00688C60A2FB9E
:103964000020CA68400A22F47F6222F00F0203FB9F
:1039740000F342F4986242F00202CA6013F1FF338A
:103984000CD34A6B12F0450FF8D01205F6D44B6BEA
:103994005B0707D50420886310BC70474FF00040D4
:1039A40010BC7047486B10BC10F0010015BF01201B
:1039B400C52388638B63704724010020D34D6210B4
:1039C40010B4044641F28833184A19481268A160B9
:1039D400A0FB0221E268490A22F47F6222F00F026E
:1039E40003FB01F342F4996242F00102E26013F135
:1039F400FF330CD3626B12F0450FF8D01205F6D4E6
:103A0400636B5B0707D50420A06310BC70474FF0BD
:103A1400004010BC7047606B10F0010015BF01201E
:103A2400C523A063A36310BC704700BF240100201A
:103A3400D34D621030B4002541F28833254C264A18
:103A440024688560A2FB0424C268640A22F47F62AD
:103A540022F00F0203FB04F342F4886242F00302F3
:103A6400C26013F1FF330DD3426B12F0450FF8D04F
:103A74001205F6D4436B5D0708D530BC0423836379
:103A8400184670474FF0004030BC7047436BDC076A
:103A940010D40369DBB2032B01D00120F4E7C52362
:103AA4008363436913F4604008D05A0409D54FF482
:103AB4000050E9E7012383631846E5E71B0C0B80FC
:103AC400E2E713F4004F0CBF4FF480304FF4805002
:103AD400DAE700BF24010020D34D621041F288339D
:103AE4001D4A10B412681D4C8160A4FB0221C268F7
:103AF400490A22F47F6222F00F0203FB01F342F42D
:103B0400896242F00502C26013F1FF330DD3426BA8
:103B140012F0450FF8D01105F6D4436B5A0708D5B7
:103B2400042310BC8363184670474FF0004010BC58
:103B34007047436BDB070AD4C52383630369DBB295
:103B44000D2B01D00120F2E710BCFFF723BB0123AA
:103B540083631846EBE700BF24010020D34D6210B5
:103B640084B001A880E80E0004B00020704700BFB4
:103B74000246B0F8403000209BB243F43F43A2F821
:103B84004030704744F2FF030246B0F84010002072
:103B94000B40A2F8403070470020704784B070B4E6
:103BA400044601250020A4F84050A4F84000A4F8DD
:103BB4004400A4F85000B4F8405004AEADB245F44B
:103BC4003F45A4F8405086E80E0070BC04B070472E
:103BD400034670B40D78C87833F8252022F4EC42FB
:103BE40022F070021204120C032800F27881DFE83C
:103BF40000F0574F0253002048F28004224323F878
:103C040025200E78C34D33F82620344392B22A403F
:103C1400224323F826200A7B002A40F090804A7829
:103C2400002A41D00A78CC88B3F8506003EB021222
:103C340024F0010402F58062A4B2B6B294530C7865
:103C440033F8246003EB840276060CD533F8242081
:103C540092B2154045F4004545F0C00523F82450C0
:103C64000A7803EB8202CB78012B138823F4E04318
:103C740023F040034FEA03434FEA134358D070BC88
:103C840083F0200343F4004343F080031380704720
:103C940042F480620020AFE742F4C0620020ABE748
:103CA40042F400720020A7E70A78CC88B3F8505099
:103CB40003EB021224F0010402F58162A4B2ADB256
:103CC40054530A78B3F850400D6903EB021202F220
:103CD4000C42A4B2002D00F004813E2D00F20F81AD
:103CE4006E08ED0748BF0136B602B6B216530C781B
:103CF40033F8245003EB84026D0410D533F82420E8
:103D040022F4E04222F070021204120C42F4404207
:103D140042F0800223F824200A7803EB82021388FD
:103D240023F4804323F070031B041B0C83F44053DF
:103D340043F4004343F08003138070BC70470C7855
:103D440033F8242092B22A4042F4014242F0800225
:103D540023F824200A780C89B3F8506003EB02128C
:103D640024F0010402F58062A4B2B6B294530A7836
:103D74004C89B3F8506003EB021224F0010402F5FD
:103D84008162B6B2A4B294534A780E78002A4ED116
:103D940033F8262003EB860452040CD533F826208E
:103DA40092B2154045F4404545F0800523F826506D
:103DB4000C7803EB8404228855060ED5228822F45D
:103DC400E04222F070021204120C42F4004242F06B
:103DD400C00222800C7803EB840448F28005228818
:103DE40022F4E04222F070021204120C42F4004267
:103DF40042F0C00222800C7833F8242022F480425E
:103E040022F070021204120C82F440522A4323F866
:103E14002420097833F8212022F4E04222F04002E1
:103E24001204120C2A4323F8212070BC704733F883
:103E3400262003EB860452040CD533F8262092B2D4
:103E4400154045F4404545F0800523F826500C788C
:103E540003EB8404228852060ED5228822F4E04221
:103E640022F070021204120C42F4004242F0C0022A
:103E740022800C7803EB8404228822F4E04222F0AE
:103E840070021204120C42F4404242F0800222807A
:103E9400CA780C78012A33F8242022F4E04222F074
:103EA40040024FEA02424FEA124218BF82F0200257
:103EB40042F4004242F0800223F82420097870BCC6
:103EC40033F8212022F4804222F070021204120CF2
:103ED40042F4004242F0800223F82120704701207E
:103EE4008AE6155B25F4F8452D042D0C1553155B56
:103EF4006FEA45456FEA5545ADB21553F7E66E09CD
:103F0400ED06054D08BF06F1FF3645EA8625ADB23C
:103F14001553ECE68F8FFFFF0080FFFF0B7B10B47F
:103F240053BB4B780C78002B00F0BF8030F8243062
:103F340000EB84025B0610D530F8243023F4E04310
:103F440023F070031B041B0C43F4004343F0C00331
:103F540020F824300A7800EB8202138823F4E0432B
:103F640023F040031B041B0C43F4004343F0800381
:103F74000020138010BC70474B780C78002B51D173
:103F840030F8243000EB84025B0410D530F8243080
:103F940023F4E04323F070031B041B0C43F440435D
:103FA40043F0800320F824300A7800EB820213885F
:103FB4005C060ED5138823F4E04323F070031B043E
:103FC4001B0C43F4004343F0C00313800A7800EB56
:103FD400820248F28004138823F4E04323F0700340
:103FE4001B041B0C43F4004343F0C00313800A7802
:103FF40030F8223023F4804323F070031B041B0C9D
:10400400234320F822300A7830F8223023F4E043A6
:1040140023F040031B041B0C234320F8223010BC64
:104024000020704730F8243000EB84025B0410D584
:1040340030F8243023F4E04323F070031B041B0CFA
:1040440043F4404343F0800320F824300A7800EB23
:10405400820213885B0645D448F28004138823F453
:10406400E04323F070031B041B0C43F4404343F070
:10407400800313800A7830F8223023F4E04323F0DD
:1040840040031B041B0C234320F822300A7830F829
:10409400223023F4804323F070031B041B0C2343BE
:1040A40020F8223010BC0020704730F8243000EB98
:1040B40084025B0410D530F8243023F4E04323F069
:1040C40070031B041B0C43F4404343F0800320F8AB
:1040D40024300A7800EB8202138823F4804323F00F
:1040E40070033FE7138823F4E04323F070031B04B9
:1040F4001B0C43F4004343F0C00313800A7800EB25
:104104008202A9E74A7870B4012A8B6963D00C69EA
:10411400A34292BF00251D1B23460C7B8D6144BB2B
:10412400B0F850400A78A4B200F20C452C441201B5
:10413400002B00F08F803E2B00F2CB805D08DE0761
:1041440048BF0135AD02ADB2A5520A7870BC30F853
:10415400223023F4804323F070031B041B0C83F4EC
:10416400405343F4004343F0800320F822300020FE
:104174007047002AE9D1B0F850400A78A4B200F29E
:1041840004452C441201002B40F0AE80A55A25F4BE
:10419400F8452D042D0CA552A55A6FEA45456FEA42
:1041A4005545ADB2A5524A78002A40F0E480B0F8F3
:1041B40050200C7893B200F20C421A442401A35A02
:1041C40023F4F8431B041B0CA352A35A9BB243F4DD
:1041D4000043A352B9E70A69934292BF00249C1A90
:1041E40013460A7B8C61002A42D00A7830F82240B8
:1041F400B0F85050640640F18D80ADB200F20C442A
:104204002C4412019DB2A5524D899AB201324B69D8
:1042140000F58064520804EB450418BF03EB420226
:1042240005D033F8025B9A4224F8045BF9D14B7849
:10423400002B78D10A7830F8223023F4E04323F0BD
:1042440070031B041B0C43F4004343F0C00320F829
:1042540022302AE0A35A23F4F8431B041B0CA35274
:10426400A35A6FEA43436FEA53439BB2A3526CE7EA
:104274009EB2CD8801369AB24B6900F58064760807
:1042840004EB450418BF03EB460605D033F8025B84
:10429400B34224F8045BF9D1B0F850300C789DB2E5
:1042A40000F204432B442401E2520A7870BC30F833
:1042B400223023F4E04323F040031B041B0C83F05F
:1042C400300343F4004343F0800320F822300020FD
:1042D40070475D09DB062F4B08BF05F1FF3543EA44
:1042E40085239BB2A35230E73E2B2ED85D08DE0710
:1042F40048BF0135AD02ADB2A5524A78002A3AD181
:10430400B0F850200B7894B200F20C4222441B0106
:10431400D5521AE7ADB200F204442C4412019DB206
:10432400A5520D8971E7012BBFD10A7830F82230EC
:1043340023F4E04323F070031B041B0C43F44043B9
:1043440043F0800320F82230AFE75E09DD06114D0B
:1043540008BF06F1FF3645EA8625ADB2A5524A7874
:104364004AB9B0F850300A789CB200F20C432344A6
:104374001201D552E9E6012A7FF4E7AEB0F85020E5
:104384000C7895B200F20C429BB22A442401A35249
:10439400DBE600BF0080FFFF4B780A788BB930F86A
:1043A400223023F4804323F070031B041B0C83F49A
:1043B400805343F4004343F0800320F8223000206C
:1043C400704730F8223023F4E04323F040031B0409
:1043D4001B0C83F0100343F4004343F0800320F8E4
:1043E40022300020704700BF0B7BD3B94B78D3B188
:1043F4000A7830F822305B063FD4CB78012B10D0FA
:104404000A7830F8223023F4E04323F040031B04FD
:104414001B0C83F0200343F4004343F0800320F893
:1044240022300020704710B40C7830F8243000EBB0
:1044340084025B0410D530F8243023F4E04323F0E5
:1044440070031B041B0C43F4404343F0800320F827
:1044540024300A7800EB82021388002023F480437E
:1044640023F070031B041B0C83F4405343F40043F8
:1044740043F08003138010BC704730F8223023F4DB
:10448400E04323F070031B041B0C43F4004343F08C
:10449400C00320F82230B0E711B98023A0F84C30D3
:1044A400002070470020704700207047B0F8440097
:1044B40080B270470020704700EB4202580802F5B2
:1044C400806219D0F0B5174606468D1C37F8044BA8
:1044D400013EA4B24FEA142E05F8024C05F801EC93
:1044E40005F10205F2D101EB400102EB8002D8078D
:1044F40044BF13880B70F0BDDB0744BF13880B70F7
:10450400704700BFD0F8BC3210B5D0F8B8425BB1E8
:1045140094F80002FF2807D09B6894F801222146F2
:104524009847FF2384F80032002010BD4323038002
:104534000048704740000020432303800048704730
:10454400840000204323038000487047D4000020E7
:104554000A23038000487047C800002038B5044689
:10456400D0F8B85207F0ECF9D4F8B832C5F80C0218
:104574004BB1D4F8BC3205F50371DB68D5F80402FD
:104584009847002038BD022038BD00BFF8B5D0F8E8
:10459400B8629EB101EB810200EB8202D7694FB190
:1045A400D0F8C03203EB4115AB6BB7FBF3F403FB5C
:1045B40014742CB10020C6F81402F8BD0220F8BD12
:1045C400D4612346224607F09FF92046F8BD00BF78
:1045D4002DE9F04100240B7882B013F060080D46F9
:1045E4000646D0F8B8728DF80540ADF806401CD0E8
:1045F400B8F1200F13D1B1F80680B8F1000F46D0FE
:104604001B062BD44B78424687F8003287F8018288
:10461400394600F009FD204602B0BDE8F08100F003
:10462400BDFC022002B0BDE8F0814C780A2C23D0F6
:104634000B2C0DD0002CF2D190F89C32032B2ED0F1
:104644003046294600F0AAFC022002B0BDE8F08101
:1046540090F89C32032BF3D14046E3E7D0F8BC3208
:1046640042469B68394668789847EA883946304616
:1046740000F0C4FC2046D5E790F89C32032BDFD130
:1046840001220DF1050100F0B9FC4046CAE7D0F85B
:10469400BC32424648789B6898474046C2E70222AB
:1046A4000DF1060100F0AAFC2046BBE738B504462C
:1046B4000025812107F0E0F80121E562204607F09A
:1046C400DBF8C4F86C512046822107F0D5F8D4F801
:1046D400B83225644BB1D4F8BC325B689847D4F83F
:1046E400B80207F035F9C4F8B852002038BD00BF4D
:1046F400037C2DE9F04104460125BBBB4FF4007354
:104704000222812107F0A8F8E56229464FF40073DC
:104714000222204607F0A0F8C4F86C5101270823B0
:1047240003228221204607F097F827644FF407708C
:1047340007F00AF90546C4F8B80268B30026D4F8AD
:10474400BC321B68984794F81080D5F80422C5F849
:1047540014623946C5F818622046B8F1000F14D027
:10476400402307F0DFF83046BDE8F0814023022201
:10477400812107F071F8E562294640230222204690
:1047840007F06AF8C4F86C51C8E74FF4007307F0F7
:10479400C9F84046BDE8F0813846BDE8F08100BF65
:1047A40019B1C0F8BC12002070470220704700BF46
:1047B400D0F8B8320020C3F80812C3F810227047AA
:1047C400D0F8B8320020C3F804127047D0F8B822E9
:1047D4009AB138B5D2F814420CB1012038BD012386
:1047E400D2F81052C2F814328121ABB20563D2F868
:1047F400082207F089F8204638BD0220704700BF20
:10480400D0F8B8228AB110B5047CD2F804222CB1B5
:104814004023012107F086F8002010BD4FF40073F7
:10482400012107F07FF8204610BD0220704700BF29
:1048340088B108B5D0F8B43213B10023C0F8B4324B
:1048440009B1C0F8B0120123027080F89C3206F05E
:10485400B3FF002008BD0220704700BF19B1C0F8A3
:10486400B412002070470220704700BF08B506F05C
:10487400E5FF002008BD00BF08B5D0F8B43213B17D
:104884001B68984708B1022008BD08BD08B5D0F8D8
:10489400B4325B689847002008BD00BF38B50446B1
:1048A40000F52A75284600F065FB012094F8A8124B
:1048B400B4F8AE2201F01F038342C4F89402C4F892
:1048C400982215D00ED3022B06D001F08001204689
:1048D40006F0E0FF002038BD2946204600F0A2FA89
:1048E400002038BD2946204600F0F6F8002038BDE7
:1048F4002946204600F060FA002038BD70B5054610
:1049040041B9D0F89432032B0ED0052B0C462AD093
:10491400002070BDD0F8B4329B691BB190F89C2282
:10492400032A26D0022070BD1646D0F86031D0F894
:10493400642193420AD99B1A9A42C0F860318CBF11
:104944009AB292B2314600F07FFBE1E7D0F8B4327C
:104954001B691BB190F89C22032A0DD0284600F055
:104964007BFB002070BDC5F8941206F093FF20462F
:1049740070BD9847002070BD9847EFE770B50446B6
:1049840069B91346D0F89422022A1DD032F00403E8
:104994000FD094F8A0320020012B12D070BDD0F8B3
:1049A400B4325B691BB190F89C22032A40D00220E8
:1049B40070BD802106F06EFF94F8A0320020012B18
:1049C400ECD184F8A00270BD066A426A964227D8E8
:1049D400C369B3FBF2F502FB15358DB99A420FD8C2
:1049E400D0F8982293420BD22A4600F015FBC4F863
:1049F40098522B462A462946204606F093FFC8E7DC
:104A0400D4F8B432DB681BB194F89C22032A12D088
:104A14008021204606F03EFF204600F029FBB8E73F
:104A2400B21A0D460262194692B200F0F5FAE0E7B6
:104A34009847002070BD20469847E9E770B50022EA
:104A44004026044601251146334606F005FF334649
:104A54008021C4F85851C4F864612046002206F04D
:104A6400FBFE0021D4F8B832A561666284F89C523A
:104A7400C4F894126160C4F8A41223B1D4F8B43217
:104A840020465B689847002070BD00BF0174002079
:104A9400704700BF0346042290F89C12002083F85C
:104AA4009D1283F89C22704790F89C32042B04BF1B
:104AB40090F89D3280F89C320020704790F89C2238
:104AC400032A01D00020704708B5D0F8B432DB695E
:104AD40003B19847002008BD30B50B7883B003F0CC
:104AE4006003202B0C46054616D0402B14D04BB146
:104AF400802106F0CFFE2846002106F0CBFE0020E0
:104B040003B030BD4B78092B19D8DFE803F04359C3
:104B14001867186D8918A323D5F8B43221469B6809
:104B240028469847002003B030BD79B30121032300
:104B3400416080F89C32FFF79FFE022826D1802135
:104B4400284606F0A7FE2846002106F0A3FE002012
:104B540003B030BD8978974C01292170EFD890F8C3
:104B64009C32022BE1D0032B40F00081002900F09D
:104B740016814168012909D0C9B2FFF787FE21785F
:104B840028466960FFF778FE0228D8D0284600F04E
:104B940063FAB4E790F89C320322013B022BCED88F
:104BA400CB88022BCBD10121D0F8A432C16003B150
:104BB400C260022205F10C01284600F01FFA9EE7AC
:104BC40090F89C32013B022BB9D84B88012B96D12B
:104BD4000023C0F8A43200F03FFA90E74B88012B81
:104BE4008DD1C0F8A432D1E78B88002BA7D1CB8814
:104BF400002BA4D14C887F2CA1D890F89C32E1B230
:104C0400032B9CD080F89E1206F070FE284600F01C
:104C140023FA002C00F0BF80022385F89C326EE753
:104C240000234A88ADF80630130A013B062B86D8C8
:104C340001A151F823F000BF014D0008E94C000820
:104C4400D74C0008434B0008434B0008C14C0008F4
:104C54007D4C0008CA88012A7FF471AF90F89C3219
:104C6400002B3FF46CAF022B79D9032B7FF467AF91
:104C7400011D00F0C3F942E7037C002B7FF45FAF12
:104C8400D0F8B4320DF106001B6B9847072343702C
:104C9400BDF806306BB1E288002A3FF477AF934247
:104CA40028BF134601461A462846ADF8063000F0E0
:104CB400A5F9E388002B7FF422AF67E7037C002B80
:104CC4007FF43DAFD0F8B4320DF106005B6B98472A
:104CD400DEE7D2B2052A3FF632AFDFE802F03A341B
:104CE4002E282217037C002B4CD1D0F8B4320DF1BE
:104CF40006009B6A984702234370C9E7D0F8B03294
:104D04000DF106011B68007C9847C1E7D0F8B0326A
:104D14009B69002B3FF413AF0DF10601287C9847E3
:104D2400B6E7D0F8B0325B69002BF5D107E7D0F8CD
:104D3400B0321B69002BEFD101E7D0F8B032DB6849
:104D4400002BE9D1FBE6D0F8B0329B68002BE3D10D
:104D5400F5E6D0F8B0325B68002BDDD1EFE6002336
:104D6400014641F8083F00F049F9C8E6802106F001
:104D740091FD0021284606F08DFD21782846FFF795
:104D840085FDBCE6D0F8B4320DF10600DB6A984725
:104D9400022343707CE7012385F89C32AFE60223AB
:104DA400416080F89C32FFF771FD284600F054F909
:104DB400A5E600BF0802002038B50B780D4603F0C5
:104DC4006003202B04460BD0402B09D043B1802133
:104DD40006F060FD2046002106F05CFD002038BD91
:104DE40094F89C32013B022B02D82B79012B09D970
:104DF4008021204606F04EFD2046002106F04AFDA3
:104E0400002038BDD4F8B43229469B682046984720
:104E1400EB88002BF4D10028F2D1204600F01CF9D5
:104E2400EEE700BF70B50C78054604F06004202C52
:104E340025D0402C23D044B1802106F02BFD2846F8
:104E4400002106F027FD002070BD4B788A88012BD5
:104E5400D6B244D01AD3032B47D190F89C32022BFC
:104E64004CD0032B41D14B88002B59D1720657D01B
:104E7400CB88002B54D1314606F00CFD50E0D5F818
:104E8400B43228469B689847002070BD90F89C3245
:104E9400022B52D0032B28D106F00F0303EB83031C
:104EA400120600EB830357D4D3F85831002B3BD0C0
:104EB40006F07F0303EB830400EB840404F5AA7477
:104EC40033B13146284606F001FD00284FD00123B6
:104ED400236021462846022200F090F8B3E790F8B8
:104EE4009C32022B0AD0032B12D0802106F0D2FC74
:104EF4002146284606F0CEFC002070BD730613D070
:104F0400314606F0C7FC2846802106F0C3FC9AE728
:104F14004B88002B97D1740602D0314606F0C8FCAA
:104F2400284600F099F88EE78021284606F0B2FC66
:104F34002846002106F0AEFC85E77006F4D1002374
:104F440011064CBF05F1140105F5AA7128460B6042
:104F5400022200F053F876E79B69002BE4D006F0B8
:104F64007F035C1C04EB840400EB8404A8E720604A
:104F7400AFE700BF0B7803704B784370CA788B7827
:104F840003EB022343804A790B7903EB02238380EA
:104F9400CA798B7903EB0223C380704710B50446AA
:104FA400802106F077FC2046BDE81040002106F081
:104FB40071BC00BFF8B1037830B4EBB104460023F0
:104FC40014F8015F0133DBB2002DF9D15B00023329
:104FD400032413800B704C7004785CB10223002509
:104FE4005A1CD2B2CC548D5410F8014F0233DBB2A8
:104FF400002CF5D130BC70470223E9E738B51346DD
:1050040002250A46C3610362C0F89452002106F0E7
:105014007BFC002038BD00BF08B513460A460021BA
:1050240006F072FC002008BD38B5134603250A4675
:10503400C0F85C31C0F86031C0F89452002106F029
:1050440071FC002038BD00BF08B513460A46002194
:1050540006F068FC002008BD08B504220023C0F84F
:10506400942219461A4606F04FFC002008BD00BFE2
:1050740008B505220023C0F8942219461A4606F002
:1050840051FC002008BD00BF034B03EB80025268B3
:1050940003445268187A10472C040020064B1A5C0B
:1050A4000AB100207047012103EB800252681954B1
:1050B40003441268187A10472C04002030B4054CBD
:1050C40004EB80056D680444AD68207AAC4630BCBE
:1050D400604700BF2C04002030B4054C04EB80056D
:1050E4006D680444ED68207AAC4630BC604700BF6C
:1050F4002C040020054B10B403EB800464680344C3
:105104002469187A234610BC184700BF2C040020D9
:10511400012310B5054C237004F032FF18B923782D
:1051240003F0FE032370207810BD00BF1701002098
:10513400012310B5054C237004F062FF18B92378DD
:1051440003F0FE032370207810BD00BF1701002078
:1051540010B5084611461A46074B04F02DFF40B916
:10516400064C01E0013C04D004F04AFF0028F9D1C8
:1051740010BD012010BD00BF00E1F505A1860100AE
:10518400144B1B78DB0701D50320704710B5144678
:1051940088B003291BD8DFE801F002130C050020B6
:1051A40008B010BD684604F035FF079B002023605B
:1051B400F6E7684604F02EFF079B00202380EFE704
:1051C400684604F027FF069B00202360E8E70420DC
:1051D400E6E700BF1701002010B5084611461A463D
:1051E400074B04F0FBFE40B9064C01E0013C04D03F
:1051F40004F006FF0028F9D110BD012010BD00BF46
:1052040000E1F505A186010041F21003C3582DE920
:10521400F04101F10904002B35D041F21403C658C2
:1052240000224FF02E0C751E14E0092AA3F1410749
:105234005BD0192F0AD8082A8CBF1027082796F8A4
:105244000CE017EA0E0F1CBF2033DBB223700134CD
:105254000B2A0AD015F8013F0132202BF8D0052B78
:10526400E3D1092A4BD0E523F0E7F37A0B72F36913
:105274000B60727E337E43EA02238B80F27DB37D22
:1052840043EA0223CB80002323708E695EB341F28C
:105294001002825812B3CA6902B341F224044FF6D1
:1052A400FF72045B944219D000F581500768388876
:1052B400A0B10D461C4606F1FF380AE0EB69013B3C
:1052C400A34204F1010409D908F8010F37F81400C6
:1052D40028B1002104F018FE0028EFD10024002397
:1052E4003355BDE8F081BDE8F081192F84F800C082
:1052F40004F10104AAD896F80CE01027A1E784F879
:1053040000C00134AFE700BF41F22C0241F20103B7
:105314002DE9F0418458064601462246C05C01232B
:10532400FFF7DAFE28BB41F2040341F21807F054F8
:1053340006F581531A68F359A21A9A4216D241F219
:105344000302B55C012D11D906F58058374408F1E4
:10535400010800E03B681C44013D2246012331461C
:1053640098F80000FFF7B8FE012DF3D10020BDE846
:10537400F0810120BDE8F0812DE9F84341F22C03CE
:10538400C5588D4249D041F20407C35D04460E4618
:105394009BB941F201020123A05C21463246FFF78A
:1053A4008DFE002818BF4FF0FF3641F22C0314BFC6
:1053B40001200020E650BDE8F88341F201020123F8
:1053C400805C21462A46FFF787FE18BB41F2180885
:1053D400E05504F581531A6854F80830AA1A9A4221
:1053E400D7D241F20302A75C012FD2D904F5805928
:1053F400A04409F1010901E0D8F800301D44013F3F
:105404002A460123214699F80000FFF765FE012F83
:10541400F2D1BEE70120BDE8F8830020BDE8F8839F
:105424002DE9F04141F20406835D044683B904F595
:1054340080531B78032B3CD041F201030022E05C33
:105444001146FFF757FE003018BF0120BDE8F08178
:1054540041F22C0241F2010385582146C05C2A46E0
:105464000123FFF739FE08BB41F21807A05504F5E4
:1054740081531A68E359AA1A9A42D8D241F2030214
:10548400A65C012ED3D904F58058274408F10108FD
:1054940000E03B681D44013E2A460123214698F85A
:1054A4000000FFF719FE012EF3D1C0E70120BDE88B
:1054B400F08141F20503E35C012BBDD141F20A0303
:1054C400E25A1AB10021204606F0D5FF41F210013C
:1054D40041F20C0341F21C0241F22C075526AA2585
:1054E40041F201006158E358C1F3072EA25884F831
:1054F400E81184F8E9E14FEA114E090E84F8EB1142
:10550400C3F3072184F8EC3184F8ED11190C1B0E58
:1055140084F8EE1184F8EF3101320B490B4B84F817
:10552400EAE1E25184F8FE6184F8FF51205C2160D5
:10553400C4F8E43121460123FFF7CEFD41F205030F
:105544000022E25478E700BF525261417272416115
:1055540000232DE9F0470E6884B00360002E40D08C
:1055640037781F2F0AD93A2F3BD0334602E03A2C22
:1055740022D02B465C785D1C1F2CF8D8C14B1C68CC
:105584002CB3046004F580563378154633B141F2E8
:105594000103E05CFFF778FDC1071CD5002341F24D
:1055A400010233701846A354FFF778FDC2071CD5D7
:1055B400032004B0BDE8F0870136B54211D1302F85
:1055C4000FD102330B60AF4B1C68002CD9D10C20D7
:1055D40004B0BDE8F08785B310F00400E9D00A20D8
:1055E400E7E70B2004B0BDE8F0870DB14307F6D41C
:1055F40041F20A0541F201076219E05D0221FFF759
:1056040079FD0246B8B9635BA3F500739BB2B3F5A9
:10561400606F10D841F2040341F22C054FF0FF38BB
:10562400E05D2146E25444F805800123FFF746FD7E
:1056340028B144F805800120BBE72846B9E74AF6BB
:10564400552294F8FF1194F8FE31605143EA012386
:10565400934201D00D20ACE7D4F836308A4923F0C8
:105664007F428A4200F02482D4F8522022F07F4202
:105674008A4200F01D8294F8C2510DB1D4F8C6518B
:1056840094F8D2210AB1D4F8D62194F8E211019207
:1056940009B1D4F8E61194F8F22102910AB1D4F8D0
:1056A400F6210392002D40F0CF81019D002D40F0A2
:1056B400B381029D002D40F0ED80039D002DC9D0E3
:1056C4004FF0FF3841F20403002241F22C07454514
:1056D400E25444F807800BD041F201020123A05C9C
:1056E40021462A46FFF7EAFC002840F0E381E55111
:1056F4004AF6552294F8FF1194F8FE3143EA012347
:105704009342A7D1D4F836305F4A23F07F439342C3
:1057140005D0D4F8523023F07F4393429AD141F21A
:105724000A03227BE07AE35A40EA0220834291D1C1
:10573400E37D94F816E041F203025EEA032E41F29F
:10574400180308BFD4F824E094F810C044F803E028
:105754000CF1FF33012B04F802C03FF67BAF41F29A
:10576400020394F80D800EFB0CFC04F80380B8F1DE
:10577400000F3FF46FAF08F1FF3313EA080F7FF413
:1057840069AFA27C677C430947EA0227B7FBF3F1C0
:1057940041F2080203FB11739BB2A752002B7FF462
:1057A40059AF227DE37C94F80F9053EA0223A27B45
:1057B40008BF236A52EA09223FF44CAF89B211446C
:1057C40061448B42FFF446AF5B1AB3FBF8F3002B42
:1057D4003FF440AF40F6F578434540F2E9804FF698
:1057E400F578434540F2B58041F2140A41F21C09B0
:1057F40041F2280803F1020C2A44294404F5815398
:1058040044F80AC044F809501A6044F80810002FFC
:105814007FF420AF431E03EB8C03B3FBF0F041F2A3
:105824002403E26A8645E250FFF414AF4FF0FF33DD
:1058340041F2100241F20C0041F205088021A3500C
:1058440094F83120235094F8303004F8081043EAD7
:105854000223012B36D0032241F206070B4D0C49DB
:105864002B88086801339BB284422B803270E35347
:1058740004BF00230B60CB6800209C427FF499AEE8
:10588400C86096E60C02002046415400280200201D
:10589400100200204FF0FF3841F20403002241F2CD
:1058A4002C074545E25444F8078037D041F2010201
:1058B4000123A05C21462A46FFF700FC68B344F8A4
:1058C4000780FAE6691C2046FFF756FD0028C2D17E
:1058D4004AF6552294F8FF1194F8FE3104F8087042
:1058E40043EA01239342B6D1824B22689A42B2D151
:1058F40003F1FF5303F50053D4F8E42120339A4213
:10590400A9D141F2100041F20C03D4F8E851D4F8C3
:10591400EC1103222550E1509EE7E5514AF6552249
:1059240094F8FF1194F8FE3143EA012393427FF483
:10593400C4AED4F83630704A23F07F4393423FF428
:10594400EEAED4F8523023F07F4393427FF4B5AEE9
:10595400E5E641F2140A41F21C0941F22808023337
:1059640044F80A302A4444F80950294404F581557E
:105974002A6044F80810002F3FF46CAE411E01EB7E
:105984004303B3FBF0F041F2240362448645E25042
:10599400FFF460AE4FF0FF3341F2050241F210050F
:1059A40041F20C00802163512350A154022253E799
:1059B40041F2140A41F21C0941F22808023344F866
:1059C4000A302A4444F80950294404F581552A60D0
:1059D40044F80810002F3FF43DAE03F00101451ECA
:1059E40003EB4303294401EB5303B3FBF0F041F20F
:1059F400240362448645E250FFF42CAE4FF0FF339B
:105A040041F2050241F2100541F20C00802163517C
:105A14002350A15401221FE74FF0FF3841F2040341
:105A2400002241F22C074545E25444F8078024D073
:105A340041F201020123A05C21462A46FFF73EFB06
:105A4400D0B144F8078034E64FF0FF3841F2040245
:105A5400002141F22C074545A15444F807803AD06F
:105A640041F201020123A05C21462A46FFF726FBEE
:105A740018B344F8078018E6E5514AF6552294F81D
:105A8400FF1194F8FE3143EA012393427FF411AEEF
:105A9400D4F83630184A23F07F4393423FF43FAEA4
:105AA400D4F8523023F07F4393427FF402AE36E6BB
:105AB400054634E644F80780BDE54AF6552294F8D5
:105AC400FF1194F8FE31E55143EA012393427FF438
